{
	"contracts/test2.sol/NFT_swap.sol": {
		"NFT_swap": {
			"abi": [
				{
					"inputs": [
						{
							"internalType": "address",
							"name": "nftContract",
							"type": "address"
						},
						{
							"internalType": "uint256",
							"name": "tokenId",
							"type": "uint256"
						},
						{
							"internalType": "uint256",
							"name": "price",
							"type": "uint256"
						}
					],
					"name": "list",
					"outputs": [],
					"stateMutability": "nonpayable",
					"type": "function"
				},
				{
					"inputs": [
						{
							"internalType": "address",
							"name": "",
							"type": "address"
						},
						{
							"internalType": "uint256",
							"name": "",
							"type": "uint256"
						}
					],
					"name": "orders",
					"outputs": [
						{
							"internalType": "uint256",
							"name": "price",
							"type": "uint256"
						},
						{
							"internalType": "address",
							"name": "owner",
							"type": "address"
						}
					],
					"stateMutability": "view",
					"type": "function"
				},
				{
					"inputs": [
						{
							"internalType": "address",
							"name": "nftContract",
							"type": "address"
						},
						{
							"internalType": "uint256",
							"name": "tokenId",
							"type": "uint256"
						}
					],
					"name": "purchase",
					"outputs": [],
					"stateMutability": "payable",
					"type": "function"
				},
				{
					"inputs": [
						{
							"internalType": "address",
							"name": "nftContract",
							"type": "address"
						},
						{
							"internalType": "uint256",
							"name": "tokenId",
							"type": "uint256"
						}
					],
					"name": "revoke",
					"outputs": [],
					"stateMutability": "nonpayable",
					"type": "function"
				},
				{
					"inputs": [
						{
							"internalType": "address",
							"name": "nftContract",
							"type": "address"
						},
						{
							"internalType": "uint256",
							"name": "tokenId",
							"type": "uint256"
						},
						{
							"internalType": "uint256",
							"name": "newPrice",
							"type": "uint256"
						}
					],
					"name": "update",
					"outputs": [],
					"stateMutability": "nonpayable",
					"type": "function"
				}
			],
			"devdoc": {
				"kind": "dev",
				"methods": {},
				"version": 1
			},
			"evm": {
				"assembly": "    /* \"contracts/test2.sol/NFT_swap.sol\":184:1644  contract NFT_swap {... */\n  mstore(0x40, 0x80)\n  callvalue\n  dup1\n  iszero\n  tag_1\n  jumpi\n  0x00\n  dup1\n  revert\ntag_1:\n  pop\n  dataSize(sub_0)\n  dup1\n  dataOffset(sub_0)\n  0x00\n  codecopy\n  0x00\n  return\nstop\n\nsub_0: assembly {\n        /* \"contracts/test2.sol/NFT_swap.sol\":184:1644  contract NFT_swap {... */\n      mstore(0x40, 0x80)\n      jumpi(tag_1, lt(calldatasize, 0x04))\n      shr(0xe0, calldataload(0x00))\n      dup1\n      0x793b8c6d\n      eq\n      tag_2\n      jumpi\n      dup1\n      0x8de93222\n      eq\n      tag_3\n      jumpi\n      dup1\n      0xd09b6d43\n      eq\n      tag_4\n      jumpi\n      dup1\n      0xdda342bb\n      eq\n      tag_5\n      jumpi\n      dup1\n      0xeac449d9\n      eq\n      tag_6\n      jumpi\n    tag_1:\n      0x00\n      dup1\n      revert\n        /* \"contracts/test2.sol/NFT_swap.sol\":277:333  mapping(address => mapping(uint => Order)) public orders */\n    tag_2:\n      callvalue\n      dup1\n      iszero\n      tag_7\n      jumpi\n      0x00\n      dup1\n      revert\n    tag_7:\n      pop\n      tag_8\n      0x04\n      dup1\n      calldatasize\n      sub\n      dup2\n      add\n      swap1\n      tag_9\n      swap2\n      swap1\n      tag_10\n      jump\t// in\n    tag_9:\n      tag_11\n      jump\t// in\n    tag_8:\n      mload(0x40)\n      tag_12\n      swap3\n      swap2\n      swap1\n      tag_13\n      jump\t// in\n    tag_12:\n      mload(0x40)\n      dup1\n      swap2\n      sub\n      swap1\n      return\n        /* \"contracts/test2.sol/NFT_swap.sol\":1192:1642  function purchase(address nftContract, uint tokenId) external payable {... */\n    tag_3:\n      tag_14\n      0x04\n      dup1\n      calldatasize\n      sub\n      dup2\n      add\n      swap1\n      tag_15\n      swap2\n      swap1\n      tag_10\n      jump\t// in\n    tag_15:\n      tag_16\n      jump\t// in\n    tag_14:\n      stop\n        /* \"contracts/test2.sol/NFT_swap.sol\":917:1186  function update(address nftContract, uint tokenId, uint newPrice) external  {... */\n    tag_4:\n      callvalue\n      dup1\n      iszero\n      tag_17\n      jumpi\n      0x00\n      dup1\n      revert\n    tag_17:\n      pop\n      tag_18\n      0x04\n      dup1\n      calldatasize\n      sub\n      dup2\n      add\n      swap1\n      tag_19\n      swap2\n      swap1\n      tag_20\n      jump\t// in\n    tag_19:\n      tag_21\n      jump\t// in\n    tag_18:\n      stop\n        /* \"contracts/test2.sol/NFT_swap.sol\":340:671  function list(address nftContract, uint tokenId, uint price) external  {... */\n    tag_5:\n      callvalue\n      dup1\n      iszero\n      tag_22\n      jumpi\n      0x00\n      dup1\n      revert\n    tag_22:\n      pop\n      tag_23\n      0x04\n      dup1\n      calldatasize\n      sub\n      dup2\n      add\n      swap1\n      tag_24\n      swap2\n      swap1\n      tag_20\n      jump\t// in\n    tag_24:\n      tag_25\n      jump\t// in\n    tag_23:\n      stop\n        /* \"contracts/test2.sol/NFT_swap.sol\":681:911  function revoke(address nftContract, uint tokenId) external {... */\n    tag_6:\n      callvalue\n      dup1\n      iszero\n      tag_26\n      jumpi\n      0x00\n      dup1\n      revert\n    tag_26:\n      pop\n      tag_27\n      0x04\n      dup1\n      calldatasize\n      sub\n      dup2\n      add\n      swap1\n      tag_28\n      swap2\n      swap1\n      tag_10\n      jump\t// in\n    tag_28:\n      tag_29\n      jump\t// in\n    tag_27:\n      stop\n        /* \"contracts/test2.sol/NFT_swap.sol\":277:333  mapping(address => mapping(uint => Order)) public orders */\n    tag_11:\n      mstore(0x20, 0x00)\n      dup2\n      0x00\n      mstore\n      mstore(0x20, keccak256(0x00, 0x40))\n      dup1\n      0x00\n      mstore\n      keccak256(0x00, 0x40)\n      0x00\n      swap2\n      pop\n      swap2\n      pop\n      pop\n      dup1\n      0x00\n      add\n      sload\n      swap1\n      dup1\n      0x01\n      add\n      0x00\n      swap1\n      sload\n      swap1\n      0x0100\n      exp\n      swap1\n      div\n      0xffffffffffffffffffffffffffffffffffffffff\n      and\n      swap1\n      pop\n      dup3\n      jump\t// out\n        /* \"contracts/test2.sol/NFT_swap.sol\":1192:1642  function purchase(address nftContract, uint tokenId) external payable {... */\n    tag_16:\n        /* \"contracts/test2.sol/NFT_swap.sol\":1272:1290  Order memory order */\n      0x00\n        /* \"contracts/test2.sol/NFT_swap.sol\":1293:1299  orders */\n      dup1\n        /* \"contracts/test2.sol/NFT_swap.sol\":1293:1312  orders[nftContract] */\n      0x00\n        /* \"contracts/test2.sol/NFT_swap.sol\":1300:1311  nftContract */\n      dup5\n        /* \"contracts/test2.sol/NFT_swap.sol\":1293:1312  orders[nftContract] */\n      0xffffffffffffffffffffffffffffffffffffffff\n      and\n      0xffffffffffffffffffffffffffffffffffffffff\n      and\n      dup2\n      mstore\n      0x20\n      add\n      swap1\n      dup2\n      mstore\n      0x20\n      add\n      0x00\n      keccak256\n        /* \"contracts/test2.sol/NFT_swap.sol\":1293:1321  orders[nftContract][tokenId] */\n      0x00\n        /* \"contracts/test2.sol/NFT_swap.sol\":1313:1320  tokenId */\n      dup4\n        /* \"contracts/test2.sol/NFT_swap.sol\":1293:1321  orders[nftContract][tokenId] */\n      dup2\n      mstore\n      0x20\n      add\n      swap1\n      dup2\n      mstore\n      0x20\n      add\n      0x00\n      keccak256\n        /* \"contracts/test2.sol/NFT_swap.sol\":1272:1321  Order memory order = orders[nftContract][tokenId] */\n      mload(0x40)\n      dup1\n      0x40\n      add\n      0x40\n      mstore\n      swap1\n      dup2\n      0x00\n      dup3\n      add\n      sload\n      dup2\n      mstore\n      0x20\n      add\n      0x01\n      dup3\n      add\n      0x00\n      swap1\n      sload\n      swap1\n      0x0100\n      exp\n      swap1\n      div\n      0xffffffffffffffffffffffffffffffffffffffff\n      and\n      0xffffffffffffffffffffffffffffffffffffffff\n      and\n      0xffffffffffffffffffffffffffffffffffffffff\n      and\n      dup2\n      mstore\n      pop\n      pop\n      swap1\n      pop\n        /* \"contracts/test2.sol/NFT_swap.sol\":1363:1364  0 */\n      0x00\n        /* \"contracts/test2.sol/NFT_swap.sol\":1340:1365  order.owner != address(0) */\n      0xffffffffffffffffffffffffffffffffffffffff\n      and\n        /* \"contracts/test2.sol/NFT_swap.sol\":1340:1345  order */\n      dup2\n        /* \"contracts/test2.sol/NFT_swap.sol\":1340:1351  order.owner */\n      0x20\n      add\n      mload\n        /* \"contracts/test2.sol/NFT_swap.sol\":1340:1365  order.owner != address(0) */\n      0xffffffffffffffffffffffffffffffffffffffff\n      and\n      sub\n        /* \"contracts/test2.sol/NFT_swap.sol\":1332:1390  require(order.owner != address(0), \"nft has not for sale\") */\n      tag_31\n      jumpi\n      mload(0x40)\n      0x08c379a000000000000000000000000000000000000000000000000000000000\n      dup2\n      mstore\n      0x04\n      add\n      tag_32\n      swap1\n      tag_33\n      jump\t// in\n    tag_32:\n      mload(0x40)\n      dup1\n      swap2\n      sub\n      swap1\n      revert\n    tag_31:\n        /* \"contracts/test2.sol/NFT_swap.sol\":1423:1432  msg.value */\n      callvalue\n        /* \"contracts/test2.sol/NFT_swap.sol\":1408:1413  order */\n      dup2\n        /* \"contracts/test2.sol/NFT_swap.sol\":1408:1419  order.price */\n      0x00\n      add\n      mload\n        /* \"contracts/test2.sol/NFT_swap.sol\":1408:1432  order.price == msg.value */\n      eq\n        /* \"contracts/test2.sol/NFT_swap.sol\":1400:1455  require(order.price == msg.value, \"price is not equal\") */\n      tag_34\n      jumpi\n      mload(0x40)\n      0x08c379a000000000000000000000000000000000000000000000000000000000\n      dup2\n      mstore\n      0x04\n      add\n      tag_35\n      swap1\n      tag_36\n      jump\t// in\n    tag_35:\n      mload(0x40)\n      dup1\n      swap2\n      sub\n      swap1\n      revert\n    tag_34:\n        /* \"contracts/test2.sol/NFT_swap.sol\":1474:1485  nftContract */\n      dup3\n        /* \"contracts/test2.sol/NFT_swap.sol\":1466:1503  IERC721(nftContract).safeTransferFrom */\n      0xffffffffffffffffffffffffffffffffffffffff\n      and\n      0x42842e0e\n        /* \"contracts/test2.sol/NFT_swap.sol\":1504:1509  order */\n      dup3\n        /* \"contracts/test2.sol/NFT_swap.sol\":1504:1515  order.owner */\n      0x20\n      add\n      mload\n        /* \"contracts/test2.sol/NFT_swap.sol\":1517:1527  msg.sender */\n      caller\n        /* \"contracts/test2.sol/NFT_swap.sol\":1529:1536  tokenId */\n      dup6\n        /* \"contracts/test2.sol/NFT_swap.sol\":1466:1537  IERC721(nftContract).safeTransferFrom(order.owner, msg.sender, tokenId) */\n      mload(0x40)\n      dup5\n      0xffffffff\n      and\n      0xe0\n      shl\n      dup2\n      mstore\n      0x04\n      add\n      tag_37\n      swap4\n      swap3\n      swap2\n      swap1\n      tag_38\n      jump\t// in\n    tag_37:\n      0x00\n      mload(0x40)\n      dup1\n      dup4\n      sub\n      dup2\n      0x00\n      dup8\n      dup1\n      extcodesize\n      iszero\n      dup1\n      iszero\n      tag_39\n      jumpi\n      0x00\n      dup1\n      revert\n    tag_39:\n      pop\n      gas\n      call\n      iszero\n      dup1\n      iszero\n      tag_41\n      jumpi\n      returndatasize\n      0x00\n      dup1\n      returndatacopy\n      revert(0x00, returndatasize)\n    tag_41:\n      pop\n      pop\n      pop\n      pop\n        /* \"contracts/test2.sol/NFT_swap.sol\":1556:1561  order */\n      dup1\n        /* \"contracts/test2.sol/NFT_swap.sol\":1556:1567  order.owner */\n      0x20\n      add\n      mload\n        /* \"contracts/test2.sol/NFT_swap.sol\":1548:1577  payable(order.owner).transfer */\n      0xffffffffffffffffffffffffffffffffffffffff\n      and\n        /* \"contracts/test2.sol/NFT_swap.sol\":1548:1588  payable(order.owner).transfer(msg.value) */\n      0x08fc\n        /* \"contracts/test2.sol/NFT_swap.sol\":1578:1587  msg.value */\n      callvalue\n        /* \"contracts/test2.sol/NFT_swap.sol\":1548:1588  payable(order.owner).transfer(msg.value) */\n      swap1\n      dup2\n      iszero\n      mul\n      swap1\n      mload(0x40)\n      0x00\n      mload(0x40)\n      dup1\n      dup4\n      sub\n      dup2\n      dup6\n      dup9\n      dup9\n      call\n      swap4\n      pop\n      pop\n      pop\n      pop\n      iszero\n      dup1\n      iszero\n      tag_43\n      jumpi\n      returndatasize\n      0x00\n      dup1\n      returndatacopy\n      revert(0x00, returndatasize)\n    tag_43:\n      pop\n        /* \"contracts/test2.sol/NFT_swap.sol\":1606:1612  orders */\n      0x00\n        /* \"contracts/test2.sol/NFT_swap.sol\":1606:1625  orders[nftContract] */\n      dup1\n        /* \"contracts/test2.sol/NFT_swap.sol\":1613:1624  nftContract */\n      dup5\n        /* \"contracts/test2.sol/NFT_swap.sol\":1606:1625  orders[nftContract] */\n      0xffffffffffffffffffffffffffffffffffffffff\n      and\n      0xffffffffffffffffffffffffffffffffffffffff\n      and\n      dup2\n      mstore\n      0x20\n      add\n      swap1\n      dup2\n      mstore\n      0x20\n      add\n      0x00\n      keccak256\n        /* \"contracts/test2.sol/NFT_swap.sol\":1606:1634  orders[nftContract][tokenId] */\n      0x00\n        /* \"contracts/test2.sol/NFT_swap.sol\":1626:1633  tokenId */\n      dup4\n        /* \"contracts/test2.sol/NFT_swap.sol\":1606:1634  orders[nftContract][tokenId] */\n      dup2\n      mstore\n      0x20\n      add\n      swap1\n      dup2\n      mstore\n      0x20\n      add\n      0x00\n      keccak256\n      0x00\n        /* \"contracts/test2.sol/NFT_swap.sol\":1599:1634  delete orders[nftContract][tokenId] */\n      dup1\n      dup3\n      add\n      0x00\n      swap1\n      sstore\n      0x01\n      dup3\n      add\n      exp(0x0100, 0x00)\n      dup2\n      sload\n      swap1\n      0xffffffffffffffffffffffffffffffffffffffff\n      mul\n      not\n      and\n      swap1\n      sstore\n      pop\n      pop\n        /* \"contracts/test2.sol/NFT_swap.sol\":1262:1642  {... */\n      pop\n        /* \"contracts/test2.sol/NFT_swap.sol\":1192:1642  function purchase(address nftContract, uint tokenId) external payable {... */\n      pop\n      pop\n      jump\t// out\n        /* \"contracts/test2.sol/NFT_swap.sol\":917:1186  function update(address nftContract, uint tokenId, uint newPrice) external  {... */\n    tag_21:\n        /* \"contracts/test2.sol/NFT_swap.sol\":1003:1021  Order memory order */\n      0x00\n        /* \"contracts/test2.sol/NFT_swap.sol\":1024:1030  orders */\n      dup1\n        /* \"contracts/test2.sol/NFT_swap.sol\":1024:1043  orders[nftContract] */\n      0x00\n        /* \"contracts/test2.sol/NFT_swap.sol\":1031:1042  nftContract */\n      dup6\n        /* \"contracts/test2.sol/NFT_swap.sol\":1024:1043  orders[nftContract] */\n      0xffffffffffffffffffffffffffffffffffffffff\n      and\n      0xffffffffffffffffffffffffffffffffffffffff\n      and\n      dup2\n      mstore\n      0x20\n      add\n      swap1\n      dup2\n      mstore\n      0x20\n      add\n      0x00\n      keccak256\n        /* \"contracts/test2.sol/NFT_swap.sol\":1024:1052  orders[nftContract][tokenId] */\n      0x00\n        /* \"contracts/test2.sol/NFT_swap.sol\":1044:1051  tokenId */\n      dup5\n        /* \"contracts/test2.sol/NFT_swap.sol\":1024:1052  orders[nftContract][tokenId] */\n      dup2\n      mstore\n      0x20\n      add\n      swap1\n      dup2\n      mstore\n      0x20\n      add\n      0x00\n      keccak256\n        /* \"contracts/test2.sol/NFT_swap.sol\":1003:1052  Order memory order = orders[nftContract][tokenId] */\n      mload(0x40)\n      dup1\n      0x40\n      add\n      0x40\n      mstore\n      swap1\n      dup2\n      0x00\n      dup3\n      add\n      sload\n      dup2\n      mstore\n      0x20\n      add\n      0x01\n      dup3\n      add\n      0x00\n      swap1\n      sload\n      swap1\n      0x0100\n      exp\n      swap1\n      div\n      0xffffffffffffffffffffffffffffffffffffffff\n      and\n      0xffffffffffffffffffffffffffffffffffffffff\n      and\n      0xffffffffffffffffffffffffffffffffffffffff\n      and\n      dup2\n      mstore\n      pop\n      pop\n      swap1\n      pop\n        /* \"contracts/test2.sol/NFT_swap.sol\":1086:1096  msg.sender */\n      caller\n        /* \"contracts/test2.sol/NFT_swap.sol\":1071:1096  order.owner == msg.sender */\n      0xffffffffffffffffffffffffffffffffffffffff\n      and\n        /* \"contracts/test2.sol/NFT_swap.sol\":1071:1076  order */\n      dup2\n        /* \"contracts/test2.sol/NFT_swap.sol\":1071:1082  order.owner */\n      0x20\n      add\n      mload\n        /* \"contracts/test2.sol/NFT_swap.sol\":1071:1096  order.owner == msg.sender */\n      0xffffffffffffffffffffffffffffffffffffffff\n      and\n      eq\n        /* \"contracts/test2.sol/NFT_swap.sol\":1063:1110  require(order.owner == msg.sender, \"not owner\") */\n      tag_45\n      jumpi\n      mload(0x40)\n      0x08c379a000000000000000000000000000000000000000000000000000000000\n      dup2\n      mstore\n      0x04\n      add\n      tag_46\n      swap1\n      tag_47\n      jump\t// in\n    tag_46:\n      mload(0x40)\n      dup1\n      swap2\n      sub\n      swap1\n      revert\n    tag_45:\n        /* \"contracts/test2.sol/NFT_swap.sol\":1152:1179  Order(newPrice, msg.sender) */\n      mload(0x40)\n      dup1\n      0x40\n      add\n      0x40\n      mstore\n      dup1\n        /* \"contracts/test2.sol/NFT_swap.sol\":1158:1166  newPrice */\n      dup4\n        /* \"contracts/test2.sol/NFT_swap.sol\":1152:1179  Order(newPrice, msg.sender) */\n      dup2\n      mstore\n      0x20\n      add\n        /* \"contracts/test2.sol/NFT_swap.sol\":1168:1178  msg.sender */\n      caller\n        /* \"contracts/test2.sol/NFT_swap.sol\":1152:1179  Order(newPrice, msg.sender) */\n      0xffffffffffffffffffffffffffffffffffffffff\n      and\n      dup2\n      mstore\n      pop\n        /* \"contracts/test2.sol/NFT_swap.sol\":1121:1127  orders */\n      0x00\n        /* \"contracts/test2.sol/NFT_swap.sol\":1121:1140  orders[nftContract] */\n      dup1\n        /* \"contracts/test2.sol/NFT_swap.sol\":1128:1139  nftContract */\n      dup7\n        /* \"contracts/test2.sol/NFT_swap.sol\":1121:1140  orders[nftContract] */\n      0xffffffffffffffffffffffffffffffffffffffff\n      and\n      0xffffffffffffffffffffffffffffffffffffffff\n      and\n      dup2\n      mstore\n      0x20\n      add\n      swap1\n      dup2\n      mstore\n      0x20\n      add\n      0x00\n      keccak256\n        /* \"contracts/test2.sol/NFT_swap.sol\":1121:1149  orders[nftContract][tokenId] */\n      0x00\n        /* \"contracts/test2.sol/NFT_swap.sol\":1141:1148  tokenId */\n      dup6\n        /* \"contracts/test2.sol/NFT_swap.sol\":1121:1149  orders[nftContract][tokenId] */\n      dup2\n      mstore\n      0x20\n      add\n      swap1\n      dup2\n      mstore\n      0x20\n      add\n      0x00\n      keccak256\n        /* \"contracts/test2.sol/NFT_swap.sol\":1121:1179  orders[nftContract][tokenId] = Order(newPrice, msg.sender) */\n      0x00\n      dup3\n      add\n      mload\n      dup2\n      0x00\n      add\n      sstore\n      0x20\n      dup3\n      add\n      mload\n      dup2\n      0x01\n      add\n      exp(0x0100, 0x00)\n      dup2\n      sload\n      dup2\n      0xffffffffffffffffffffffffffffffffffffffff\n      mul\n      not\n      and\n      swap1\n      dup4\n      0xffffffffffffffffffffffffffffffffffffffff\n      and\n      mul\n      or\n      swap1\n      sstore\n      pop\n      swap1\n      pop\n      pop\n        /* \"contracts/test2.sol/NFT_swap.sol\":993:1186  {... */\n      pop\n        /* \"contracts/test2.sol/NFT_swap.sol\":917:1186  function update(address nftContract, uint tokenId, uint newPrice) external  {... */\n      pop\n      pop\n      pop\n      jump\t// out\n        /* \"contracts/test2.sol/NFT_swap.sol\":340:671  function list(address nftContract, uint tokenId, uint price) external  {... */\n    tag_25:\n        /* \"contracts/test2.sol/NFT_swap.sol\":421:432  IERC721 nft */\n      0x00\n        /* \"contracts/test2.sol/NFT_swap.sol\":443:454  nftContract */\n      dup4\n        /* \"contracts/test2.sol/NFT_swap.sol\":421:455  IERC721 nft = IERC721(nftContract) */\n      swap1\n      pop\n        /* \"contracts/test2.sol/NFT_swap.sol\":498:508  msg.sender */\n      caller\n        /* \"contracts/test2.sol/NFT_swap.sol\":474:508  nft.ownerOf(tokenId) == msg.sender */\n      0xffffffffffffffffffffffffffffffffffffffff\n      and\n        /* \"contracts/test2.sol/NFT_swap.sol\":474:477  nft */\n      dup2\n        /* \"contracts/test2.sol/NFT_swap.sol\":474:485  nft.ownerOf */\n      0xffffffffffffffffffffffffffffffffffffffff\n      and\n      0x6352211e\n        /* \"contracts/test2.sol/NFT_swap.sol\":486:493  tokenId */\n      dup6\n        /* \"contracts/test2.sol/NFT_swap.sol\":474:494  nft.ownerOf(tokenId) */\n      mload(0x40)\n      dup3\n      0xffffffff\n      and\n      0xe0\n      shl\n      dup2\n      mstore\n      0x04\n      add\n      tag_49\n      swap2\n      swap1\n      tag_50\n      jump\t// in\n    tag_49:\n      0x20\n      mload(0x40)\n      dup1\n      dup4\n      sub\n      dup2\n      dup7\n      gas\n      staticcall\n      iszero\n      dup1\n      iszero\n      tag_52\n      jumpi\n      returndatasize\n      0x00\n      dup1\n      returndatacopy\n      revert(0x00, returndatasize)\n    tag_52:\n      pop\n      pop\n      pop\n      pop\n      mload(0x40)\n      returndatasize\n      not(0x1f)\n      0x1f\n      dup3\n      add\n      and\n      dup3\n      add\n      dup1\n      0x40\n      mstore\n      pop\n      dup2\n      add\n      swap1\n      tag_53\n      swap2\n      swap1\n      tag_54\n      jump\t// in\n    tag_53:\n        /* \"contracts/test2.sol/NFT_swap.sol\":474:508  nft.ownerOf(tokenId) == msg.sender */\n      0xffffffffffffffffffffffffffffffffffffffff\n      and\n      eq\n        /* \"contracts/test2.sol/NFT_swap.sol\":466:522  require(nft.ownerOf(tokenId) == msg.sender, \"not owner\") */\n      tag_55\n      jumpi\n      mload(0x40)\n      0x08c379a000000000000000000000000000000000000000000000000000000000\n      dup2\n      mstore\n      0x04\n      add\n      tag_56\n      swap1\n      tag_47\n      jump\t// in\n    tag_56:\n      mload(0x40)\n      dup1\n      swap2\n      sub\n      swap1\n      revert\n    tag_55:\n        /* \"contracts/test2.sol/NFT_swap.sol\":576:580  this */\n      address\n        /* \"contracts/test2.sol/NFT_swap.sol\":540:581  nft.getApproved(tokenId) == address(this) */\n      0xffffffffffffffffffffffffffffffffffffffff\n      and\n        /* \"contracts/test2.sol/NFT_swap.sol\":540:543  nft */\n      dup2\n        /* \"contracts/test2.sol/NFT_swap.sol\":540:555  nft.getApproved */\n      0xffffffffffffffffffffffffffffffffffffffff\n      and\n      0x081812fc\n        /* \"contracts/test2.sol/NFT_swap.sol\":556:563  tokenId */\n      dup6\n        /* \"contracts/test2.sol/NFT_swap.sol\":540:564  nft.getApproved(tokenId) */\n      mload(0x40)\n      dup3\n      0xffffffff\n      and\n      0xe0\n      shl\n      dup2\n      mstore\n      0x04\n      add\n      tag_57\n      swap2\n      swap1\n      tag_50\n      jump\t// in\n    tag_57:\n      0x20\n      mload(0x40)\n      dup1\n      dup4\n      sub\n      dup2\n      dup7\n      gas\n      staticcall\n      iszero\n      dup1\n      iszero\n      tag_59\n      jumpi\n      returndatasize\n      0x00\n      dup1\n      returndatacopy\n      revert(0x00, returndatasize)\n    tag_59:\n      pop\n      pop\n      pop\n      pop\n      mload(0x40)\n      returndatasize\n      not(0x1f)\n      0x1f\n      dup3\n      add\n      and\n      dup3\n      add\n      dup1\n      0x40\n      mstore\n      pop\n      dup2\n      add\n      swap1\n      tag_60\n      swap2\n      swap1\n      tag_54\n      jump\t// in\n    tag_60:\n        /* \"contracts/test2.sol/NFT_swap.sol\":540:581  nft.getApproved(tokenId) == address(this) */\n      0xffffffffffffffffffffffffffffffffffffffff\n      and\n      eq\n        /* \"contracts/test2.sol/NFT_swap.sol\":532:598  require(nft.getApproved(tokenId) == address(this), \"not approved\") */\n      tag_61\n      jumpi\n      mload(0x40)\n      0x08c379a000000000000000000000000000000000000000000000000000000000\n      dup2\n      mstore\n      0x04\n      add\n      tag_62\n      swap1\n      tag_63\n      jump\t// in\n    tag_62:\n      mload(0x40)\n      dup1\n      swap2\n      sub\n      swap1\n      revert\n    tag_61:\n        /* \"contracts/test2.sol/NFT_swap.sol\":640:664  Order(price, msg.sender) */\n      mload(0x40)\n      dup1\n      0x40\n      add\n      0x40\n      mstore\n      dup1\n        /* \"contracts/test2.sol/NFT_swap.sol\":646:651  price */\n      dup4\n        /* \"contracts/test2.sol/NFT_swap.sol\":640:664  Order(price, msg.sender) */\n      dup2\n      mstore\n      0x20\n      add\n        /* \"contracts/test2.sol/NFT_swap.sol\":653:663  msg.sender */\n      caller\n        /* \"contracts/test2.sol/NFT_swap.sol\":640:664  Order(price, msg.sender) */\n      0xffffffffffffffffffffffffffffffffffffffff\n      and\n      dup2\n      mstore\n      pop\n        /* \"contracts/test2.sol/NFT_swap.sol\":609:615  orders */\n      0x00\n        /* \"contracts/test2.sol/NFT_swap.sol\":609:628  orders[nftContract] */\n      dup1\n        /* \"contracts/test2.sol/NFT_swap.sol\":616:627  nftContract */\n      dup7\n        /* \"contracts/test2.sol/NFT_swap.sol\":609:628  orders[nftContract] */\n      0xffffffffffffffffffffffffffffffffffffffff\n      and\n      0xffffffffffffffffffffffffffffffffffffffff\n      and\n      dup2\n      mstore\n      0x20\n      add\n      swap1\n      dup2\n      mstore\n      0x20\n      add\n      0x00\n      keccak256\n        /* \"contracts/test2.sol/NFT_swap.sol\":609:637  orders[nftContract][tokenId] */\n      0x00\n        /* \"contracts/test2.sol/NFT_swap.sol\":629:636  tokenId */\n      dup6\n        /* \"contracts/test2.sol/NFT_swap.sol\":609:637  orders[nftContract][tokenId] */\n      dup2\n      mstore\n      0x20\n      add\n      swap1\n      dup2\n      mstore\n      0x20\n      add\n      0x00\n      keccak256\n        /* \"contracts/test2.sol/NFT_swap.sol\":609:664  orders[nftContract][tokenId] = Order(price, msg.sender) */\n      0x00\n      dup3\n      add\n      mload\n      dup2\n      0x00\n      add\n      sstore\n      0x20\n      dup3\n      add\n      mload\n      dup2\n      0x01\n      add\n      exp(0x0100, 0x00)\n      dup2\n      sload\n      dup2\n      0xffffffffffffffffffffffffffffffffffffffff\n      mul\n      not\n      and\n      swap1\n      dup4\n      0xffffffffffffffffffffffffffffffffffffffff\n      and\n      mul\n      or\n      swap1\n      sstore\n      pop\n      swap1\n      pop\n      pop\n        /* \"contracts/test2.sol/NFT_swap.sol\":411:671  {... */\n      pop\n        /* \"contracts/test2.sol/NFT_swap.sol\":340:671  function list(address nftContract, uint tokenId, uint price) external  {... */\n      pop\n      pop\n      pop\n      jump\t// out\n        /* \"contracts/test2.sol/NFT_swap.sol\":681:911  function revoke(address nftContract, uint tokenId) external {... */\n    tag_29:\n        /* \"contracts/test2.sol/NFT_swap.sol\":751:769  Order memory order */\n      0x00\n        /* \"contracts/test2.sol/NFT_swap.sol\":772:778  orders */\n      dup1\n        /* \"contracts/test2.sol/NFT_swap.sol\":772:791  orders[nftContract] */\n      0x00\n        /* \"contracts/test2.sol/NFT_swap.sol\":779:790  nftContract */\n      dup5\n        /* \"contracts/test2.sol/NFT_swap.sol\":772:791  orders[nftContract] */\n      0xffffffffffffffffffffffffffffffffffffffff\n      and\n      0xffffffffffffffffffffffffffffffffffffffff\n      and\n      dup2\n      mstore\n      0x20\n      add\n      swap1\n      dup2\n      mstore\n      0x20\n      add\n      0x00\n      keccak256\n        /* \"contracts/test2.sol/NFT_swap.sol\":772:800  orders[nftContract][tokenId] */\n      0x00\n        /* \"contracts/test2.sol/NFT_swap.sol\":792:799  tokenId */\n      dup4\n        /* \"contracts/test2.sol/NFT_swap.sol\":772:800  orders[nftContract][tokenId] */\n      dup2\n      mstore\n      0x20\n      add\n      swap1\n      dup2\n      mstore\n      0x20\n      add\n      0x00\n      keccak256\n        /* \"contracts/test2.sol/NFT_swap.sol\":751:800  Order memory order = orders[nftContract][tokenId] */\n      mload(0x40)\n      dup1\n      0x40\n      add\n      0x40\n      mstore\n      swap1\n      dup2\n      0x00\n      dup3\n      add\n      sload\n      dup2\n      mstore\n      0x20\n      add\n      0x01\n      dup3\n      add\n      0x00\n      swap1\n      sload\n      swap1\n      0x0100\n      exp\n      swap1\n      div\n      0xffffffffffffffffffffffffffffffffffffffff\n      and\n      0xffffffffffffffffffffffffffffffffffffffff\n      and\n      0xffffffffffffffffffffffffffffffffffffffff\n      and\n      dup2\n      mstore\n      pop\n      pop\n      swap1\n      pop\n        /* \"contracts/test2.sol/NFT_swap.sol\":834:844  msg.sender */\n      caller\n        /* \"contracts/test2.sol/NFT_swap.sol\":819:844  order.owner == msg.sender */\n      0xffffffffffffffffffffffffffffffffffffffff\n      and\n        /* \"contracts/test2.sol/NFT_swap.sol\":819:824  order */\n      dup2\n        /* \"contracts/test2.sol/NFT_swap.sol\":819:830  order.owner */\n      0x20\n      add\n      mload\n        /* \"contracts/test2.sol/NFT_swap.sol\":819:844  order.owner == msg.sender */\n      0xffffffffffffffffffffffffffffffffffffffff\n      and\n      eq\n        /* \"contracts/test2.sol/NFT_swap.sol\":811:858  require(order.owner == msg.sender, \"not owner\") */\n      tag_65\n      jumpi\n      mload(0x40)\n      0x08c379a000000000000000000000000000000000000000000000000000000000\n      dup2\n      mstore\n      0x04\n      add\n      tag_66\n      swap1\n      tag_47\n      jump\t// in\n    tag_66:\n      mload(0x40)\n      dup1\n      swap2\n      sub\n      swap1\n      revert\n    tag_65:\n        /* \"contracts/test2.sol/NFT_swap.sol\":876:882  orders */\n      0x00\n        /* \"contracts/test2.sol/NFT_swap.sol\":876:895  orders[nftContract] */\n      dup1\n        /* \"contracts/test2.sol/NFT_swap.sol\":883:894  nftContract */\n      dup5\n        /* \"contracts/test2.sol/NFT_swap.sol\":876:895  orders[nftContract] */\n      0xffffffffffffffffffffffffffffffffffffffff\n      and\n      0xffffffffffffffffffffffffffffffffffffffff\n      and\n      dup2\n      mstore\n      0x20\n      add\n      swap1\n      dup2\n      mstore\n      0x20\n      add\n      0x00\n      keccak256\n        /* \"contracts/test2.sol/NFT_swap.sol\":876:904  orders[nftContract][tokenId] */\n      0x00\n        /* \"contracts/test2.sol/NFT_swap.sol\":896:903  tokenId */\n      dup4\n        /* \"contracts/test2.sol/NFT_swap.sol\":876:904  orders[nftContract][tokenId] */\n      dup2\n      mstore\n      0x20\n      add\n      swap1\n      dup2\n      mstore\n      0x20\n      add\n      0x00\n      keccak256\n      0x00\n        /* \"contracts/test2.sol/NFT_swap.sol\":869:904  delete orders[nftContract][tokenId] */\n      dup1\n      dup3\n      add\n      0x00\n      swap1\n      sstore\n      0x01\n      dup3\n      add\n      exp(0x0100, 0x00)\n      dup2\n      sload\n      swap1\n      0xffffffffffffffffffffffffffffffffffffffff\n      mul\n      not\n      and\n      swap1\n      sstore\n      pop\n      pop\n        /* \"contracts/test2.sol/NFT_swap.sol\":741:911  {... */\n      pop\n        /* \"contracts/test2.sol/NFT_swap.sol\":681:911  function revoke(address nftContract, uint tokenId) external {... */\n      pop\n      pop\n      jump\t// out\n        /* \"#utility.yul\":88:205   */\n    tag_68:\n        /* \"#utility.yul\":197:198   */\n      0x00\n        /* \"#utility.yul\":194:195   */\n      dup1\n        /* \"#utility.yul\":187:199   */\n      revert\n        /* \"#utility.yul\":334:460   */\n    tag_70:\n        /* \"#utility.yul\":371:378   */\n      0x00\n        /* \"#utility.yul\":411:453   */\n      0xffffffffffffffffffffffffffffffffffffffff\n        /* \"#utility.yul\":404:409   */\n      dup3\n        /* \"#utility.yul\":400:454   */\n      and\n        /* \"#utility.yul\":389:454   */\n      swap1\n      pop\n        /* \"#utility.yul\":334:460   */\n      swap2\n      swap1\n      pop\n      jump\t// out\n        /* \"#utility.yul\":466:562   */\n    tag_71:\n        /* \"#utility.yul\":503:510   */\n      0x00\n        /* \"#utility.yul\":532:556   */\n      tag_95\n        /* \"#utility.yul\":550:555   */\n      dup3\n        /* \"#utility.yul\":532:556   */\n      tag_70\n      jump\t// in\n    tag_95:\n        /* \"#utility.yul\":521:556   */\n      swap1\n      pop\n        /* \"#utility.yul\":466:562   */\n      swap2\n      swap1\n      pop\n      jump\t// out\n        /* \"#utility.yul\":568:690   */\n    tag_72:\n        /* \"#utility.yul\":641:665   */\n      tag_97\n        /* \"#utility.yul\":659:664   */\n      dup2\n        /* \"#utility.yul\":641:665   */\n      tag_71\n      jump\t// in\n    tag_97:\n        /* \"#utility.yul\":634:639   */\n      dup2\n        /* \"#utility.yul\":631:666   */\n      eq\n        /* \"#utility.yul\":621:684   */\n      tag_98\n      jumpi\n        /* \"#utility.yul\":680:681   */\n      0x00\n        /* \"#utility.yul\":677:678   */\n      dup1\n        /* \"#utility.yul\":670:682   */\n      revert\n        /* \"#utility.yul\":621:684   */\n    tag_98:\n        /* \"#utility.yul\":568:690   */\n      pop\n      jump\t// out\n        /* \"#utility.yul\":696:835   */\n    tag_73:\n        /* \"#utility.yul\":742:747   */\n      0x00\n        /* \"#utility.yul\":780:786   */\n      dup2\n        /* \"#utility.yul\":767:787   */\n      calldataload\n        /* \"#utility.yul\":758:787   */\n      swap1\n      pop\n        /* \"#utility.yul\":796:829   */\n      tag_100\n        /* \"#utility.yul\":823:828   */\n      dup2\n        /* \"#utility.yul\":796:829   */\n      tag_72\n      jump\t// in\n    tag_100:\n        /* \"#utility.yul\":696:835   */\n      swap3\n      swap2\n      pop\n      pop\n      jump\t// out\n        /* \"#utility.yul\":841:918   */\n    tag_74:\n        /* \"#utility.yul\":878:885   */\n      0x00\n        /* \"#utility.yul\":907:912   */\n      dup2\n        /* \"#utility.yul\":896:912   */\n      swap1\n      pop\n        /* \"#utility.yul\":841:918   */\n      swap2\n      swap1\n      pop\n      jump\t// out\n        /* \"#utility.yul\":924:1046   */\n    tag_75:\n        /* \"#utility.yul\":997:1021   */\n      tag_103\n        /* \"#utility.yul\":1015:1020   */\n      dup2\n        /* \"#utility.yul\":997:1021   */\n      tag_74\n      jump\t// in\n    tag_103:\n        /* \"#utility.yul\":990:995   */\n      dup2\n        /* \"#utility.yul\":987:1022   */\n      eq\n        /* \"#utility.yul\":977:1040   */\n      tag_104\n      jumpi\n        /* \"#utility.yul\":1036:1037   */\n      0x00\n        /* \"#utility.yul\":1033:1034   */\n      dup1\n        /* \"#utility.yul\":1026:1038   */\n      revert\n        /* \"#utility.yul\":977:1040   */\n    tag_104:\n        /* \"#utility.yul\":924:1046   */\n      pop\n      jump\t// out\n        /* \"#utility.yul\":1052:1191   */\n    tag_76:\n        /* \"#utility.yul\":1098:1103   */\n      0x00\n        /* \"#utility.yul\":1136:1142   */\n      dup2\n        /* \"#utility.yul\":1123:1143   */\n      calldataload\n        /* \"#utility.yul\":1114:1143   */\n      swap1\n      pop\n        /* \"#utility.yul\":1152:1185   */\n      tag_106\n        /* \"#utility.yul\":1179:1184   */\n      dup2\n        /* \"#utility.yul\":1152:1185   */\n      tag_75\n      jump\t// in\n    tag_106:\n        /* \"#utility.yul\":1052:1191   */\n      swap3\n      swap2\n      pop\n      pop\n      jump\t// out\n        /* \"#utility.yul\":1197:1671   */\n    tag_10:\n        /* \"#utility.yul\":1265:1271   */\n      0x00\n        /* \"#utility.yul\":1273:1279   */\n      dup1\n        /* \"#utility.yul\":1322:1324   */\n      0x40\n        /* \"#utility.yul\":1310:1319   */\n      dup4\n        /* \"#utility.yul\":1301:1308   */\n      dup6\n        /* \"#utility.yul\":1297:1320   */\n      sub\n        /* \"#utility.yul\":1293:1325   */\n      slt\n        /* \"#utility.yul\":1290:1409   */\n      iszero\n      tag_108\n      jumpi\n        /* \"#utility.yul\":1328:1407   */\n      tag_109\n      tag_68\n      jump\t// in\n    tag_109:\n        /* \"#utility.yul\":1290:1409   */\n    tag_108:\n        /* \"#utility.yul\":1448:1449   */\n      0x00\n        /* \"#utility.yul\":1473:1526   */\n      tag_110\n        /* \"#utility.yul\":1518:1525   */\n      dup6\n        /* \"#utility.yul\":1509:1515   */\n      dup3\n        /* \"#utility.yul\":1498:1507   */\n      dup7\n        /* \"#utility.yul\":1494:1516   */\n      add\n        /* \"#utility.yul\":1473:1526   */\n      tag_73\n      jump\t// in\n    tag_110:\n        /* \"#utility.yul\":1463:1526   */\n      swap3\n      pop\n        /* \"#utility.yul\":1419:1536   */\n      pop\n        /* \"#utility.yul\":1575:1577   */\n      0x20\n        /* \"#utility.yul\":1601:1654   */\n      tag_111\n        /* \"#utility.yul\":1646:1653   */\n      dup6\n        /* \"#utility.yul\":1637:1643   */\n      dup3\n        /* \"#utility.yul\":1626:1635   */\n      dup7\n        /* \"#utility.yul\":1622:1644   */\n      add\n        /* \"#utility.yul\":1601:1654   */\n      tag_76\n      jump\t// in\n    tag_111:\n        /* \"#utility.yul\":1591:1654   */\n      swap2\n      pop\n        /* \"#utility.yul\":1546:1664   */\n      pop\n        /* \"#utility.yul\":1197:1671   */\n      swap3\n      pop\n      swap3\n      swap1\n      pop\n      jump\t// out\n        /* \"#utility.yul\":1677:1795   */\n    tag_77:\n        /* \"#utility.yul\":1764:1788   */\n      tag_113\n        /* \"#utility.yul\":1782:1787   */\n      dup2\n        /* \"#utility.yul\":1764:1788   */\n      tag_74\n      jump\t// in\n    tag_113:\n        /* \"#utility.yul\":1759:1762   */\n      dup3\n        /* \"#utility.yul\":1752:1789   */\n      mstore\n        /* \"#utility.yul\":1677:1795   */\n      pop\n      pop\n      jump\t// out\n        /* \"#utility.yul\":1801:1919   */\n    tag_78:\n        /* \"#utility.yul\":1888:1912   */\n      tag_115\n        /* \"#utility.yul\":1906:1911   */\n      dup2\n        /* \"#utility.yul\":1888:1912   */\n      tag_71\n      jump\t// in\n    tag_115:\n        /* \"#utility.yul\":1883:1886   */\n      dup3\n        /* \"#utility.yul\":1876:1913   */\n      mstore\n        /* \"#utility.yul\":1801:1919   */\n      pop\n      pop\n      jump\t// out\n        /* \"#utility.yul\":1925:2257   */\n    tag_13:\n        /* \"#utility.yul\":2046:2050   */\n      0x00\n        /* \"#utility.yul\":2084:2086   */\n      0x40\n        /* \"#utility.yul\":2073:2082   */\n      dup3\n        /* \"#utility.yul\":2069:2087   */\n      add\n        /* \"#utility.yul\":2061:2087   */\n      swap1\n      pop\n        /* \"#utility.yul\":2097:2168   */\n      tag_117\n        /* \"#utility.yul\":2165:2166   */\n      0x00\n        /* \"#utility.yul\":2154:2163   */\n      dup4\n        /* \"#utility.yul\":2150:2167   */\n      add\n        /* \"#utility.yul\":2141:2147   */\n      dup6\n        /* \"#utility.yul\":2097:2168   */\n      tag_77\n      jump\t// in\n    tag_117:\n        /* \"#utility.yul\":2178:2250   */\n      tag_118\n        /* \"#utility.yul\":2246:2248   */\n      0x20\n        /* \"#utility.yul\":2235:2244   */\n      dup4\n        /* \"#utility.yul\":2231:2249   */\n      add\n        /* \"#utility.yul\":2222:2228   */\n      dup5\n        /* \"#utility.yul\":2178:2250   */\n      tag_78\n      jump\t// in\n    tag_118:\n        /* \"#utility.yul\":1925:2257   */\n      swap4\n      swap3\n      pop\n      pop\n      pop\n      jump\t// out\n        /* \"#utility.yul\":2263:2882   */\n    tag_20:\n        /* \"#utility.yul\":2340:2346   */\n      0x00\n        /* \"#utility.yul\":2348:2354   */\n      dup1\n        /* \"#utility.yul\":2356:2362   */\n      0x00\n        /* \"#utility.yul\":2405:2407   */\n      0x60\n        /* \"#utility.yul\":2393:2402   */\n      dup5\n        /* \"#utility.yul\":2384:2391   */\n      dup7\n        /* \"#utility.yul\":2380:2403   */\n      sub\n        /* \"#utility.yul\":2376:2408   */\n      slt\n        /* \"#utility.yul\":2373:2492   */\n      iszero\n      tag_120\n      jumpi\n        /* \"#utility.yul\":2411:2490   */\n      tag_121\n      tag_68\n      jump\t// in\n    tag_121:\n        /* \"#utility.yul\":2373:2492   */\n    tag_120:\n        /* \"#utility.yul\":2531:2532   */\n      0x00\n        /* \"#utility.yul\":2556:2609   */\n      tag_122\n        /* \"#utility.yul\":2601:2608   */\n      dup7\n        /* \"#utility.yul\":2592:2598   */\n      dup3\n        /* \"#utility.yul\":2581:2590   */\n      dup8\n        /* \"#utility.yul\":2577:2599   */\n      add\n        /* \"#utility.yul\":2556:2609   */\n      tag_73\n      jump\t// in\n    tag_122:\n        /* \"#utility.yul\":2546:2609   */\n      swap4\n      pop\n        /* \"#utility.yul\":2502:2619   */\n      pop\n        /* \"#utility.yul\":2658:2660   */\n      0x20\n        /* \"#utility.yul\":2684:2737   */\n      tag_123\n        /* \"#utility.yul\":2729:2736   */\n      dup7\n        /* \"#utility.yul\":2720:2726   */\n      dup3\n        /* \"#utility.yul\":2709:2718   */\n      dup8\n        /* \"#utility.yul\":2705:2727   */\n      add\n        /* \"#utility.yul\":2684:2737   */\n      tag_76\n      jump\t// in\n    tag_123:\n        /* \"#utility.yul\":2674:2737   */\n      swap3\n      pop\n        /* \"#utility.yul\":2629:2747   */\n      pop\n        /* \"#utility.yul\":2786:2788   */\n      0x40\n        /* \"#utility.yul\":2812:2865   */\n      tag_124\n        /* \"#utility.yul\":2857:2864   */\n      dup7\n        /* \"#utility.yul\":2848:2854   */\n      dup3\n        /* \"#utility.yul\":2837:2846   */\n      dup8\n        /* \"#utility.yul\":2833:2855   */\n      add\n        /* \"#utility.yul\":2812:2865   */\n      tag_76\n      jump\t// in\n    tag_124:\n        /* \"#utility.yul\":2802:2865   */\n      swap2\n      pop\n        /* \"#utility.yul\":2757:2875   */\n      pop\n        /* \"#utility.yul\":2263:2882   */\n      swap3\n      pop\n      swap3\n      pop\n      swap3\n      jump\t// out\n        /* \"#utility.yul\":2888:3057   */\n    tag_79:\n        /* \"#utility.yul\":2972:2983   */\n      0x00\n        /* \"#utility.yul\":3006:3012   */\n      dup3\n        /* \"#utility.yul\":3001:3004   */\n      dup3\n        /* \"#utility.yul\":2994:3013   */\n      mstore\n        /* \"#utility.yul\":3046:3050   */\n      0x20\n        /* \"#utility.yul\":3041:3044   */\n      dup3\n        /* \"#utility.yul\":3037:3051   */\n      add\n        /* \"#utility.yul\":3022:3051   */\n      swap1\n      pop\n        /* \"#utility.yul\":2888:3057   */\n      swap3\n      swap2\n      pop\n      pop\n      jump\t// out\n        /* \"#utility.yul\":3063:3233   */\n    tag_80:\n        /* \"#utility.yul\":3203:3225   */\n      0x6e667420686173206e6f7420666f722073616c65000000000000000000000000\n        /* \"#utility.yul\":3199:3200   */\n      0x00\n        /* \"#utility.yul\":3191:3197   */\n      dup3\n        /* \"#utility.yul\":3187:3201   */\n      add\n        /* \"#utility.yul\":3180:3226   */\n      mstore\n        /* \"#utility.yul\":3063:3233   */\n      pop\n      jump\t// out\n        /* \"#utility.yul\":3239:3605   */\n    tag_81:\n        /* \"#utility.yul\":3381:3384   */\n      0x00\n        /* \"#utility.yul\":3402:3469   */\n      tag_128\n        /* \"#utility.yul\":3466:3468   */\n      0x14\n        /* \"#utility.yul\":3461:3464   */\n      dup4\n        /* \"#utility.yul\":3402:3469   */\n      tag_79\n      jump\t// in\n    tag_128:\n        /* \"#utility.yul\":3395:3469   */\n      swap2\n      pop\n        /* \"#utility.yul\":3478:3571   */\n      tag_129\n        /* \"#utility.yul\":3567:3570   */\n      dup3\n        /* \"#utility.yul\":3478:3571   */\n      tag_80\n      jump\t// in\n    tag_129:\n        /* \"#utility.yul\":3596:3598   */\n      0x20\n        /* \"#utility.yul\":3591:3594   */\n      dup3\n        /* \"#utility.yul\":3587:3599   */\n      add\n        /* \"#utility.yul\":3580:3599   */\n      swap1\n      pop\n        /* \"#utility.yul\":3239:3605   */\n      swap2\n      swap1\n      pop\n      jump\t// out\n        /* \"#utility.yul\":3611:4030   */\n    tag_33:\n        /* \"#utility.yul\":3777:3781   */\n      0x00\n        /* \"#utility.yul\":3815:3817   */\n      0x20\n        /* \"#utility.yul\":3804:3813   */\n      dup3\n        /* \"#utility.yul\":3800:3818   */\n      add\n        /* \"#utility.yul\":3792:3818   */\n      swap1\n      pop\n        /* \"#utility.yul\":3864:3873   */\n      dup2\n        /* \"#utility.yul\":3858:3862   */\n      dup2\n        /* \"#utility.yul\":3854:3874   */\n      sub\n        /* \"#utility.yul\":3850:3851   */\n      0x00\n        /* \"#utility.yul\":3839:3848   */\n      dup4\n        /* \"#utility.yul\":3835:3852   */\n      add\n        /* \"#utility.yul\":3828:3875   */\n      mstore\n        /* \"#utility.yul\":3892:4023   */\n      tag_131\n        /* \"#utility.yul\":4018:4022   */\n      dup2\n        /* \"#utility.yul\":3892:4023   */\n      tag_81\n      jump\t// in\n    tag_131:\n        /* \"#utility.yul\":3884:4023   */\n      swap1\n      pop\n        /* \"#utility.yul\":3611:4030   */\n      swap2\n      swap1\n      pop\n      jump\t// out\n        /* \"#utility.yul\":4036:4204   */\n    tag_82:\n        /* \"#utility.yul\":4176:4196   */\n      0x7072696365206973206e6f7420657175616c0000000000000000000000000000\n        /* \"#utility.yul\":4172:4173   */\n      0x00\n        /* \"#utility.yul\":4164:4170   */\n      dup3\n        /* \"#utility.yul\":4160:4174   */\n      add\n        /* \"#utility.yul\":4153:4197   */\n      mstore\n        /* \"#utility.yul\":4036:4204   */\n      pop\n      jump\t// out\n        /* \"#utility.yul\":4210:4576   */\n    tag_83:\n        /* \"#utility.yul\":4352:4355   */\n      0x00\n        /* \"#utility.yul\":4373:4440   */\n      tag_134\n        /* \"#utility.yul\":4437:4439   */\n      0x12\n        /* \"#utility.yul\":4432:4435   */\n      dup4\n        /* \"#utility.yul\":4373:4440   */\n      tag_79\n      jump\t// in\n    tag_134:\n        /* \"#utility.yul\":4366:4440   */\n      swap2\n      pop\n        /* \"#utility.yul\":4449:4542   */\n      tag_135\n        /* \"#utility.yul\":4538:4541   */\n      dup3\n        /* \"#utility.yul\":4449:4542   */\n      tag_82\n      jump\t// in\n    tag_135:\n        /* \"#utility.yul\":4567:4569   */\n      0x20\n        /* \"#utility.yul\":4562:4565   */\n      dup3\n        /* \"#utility.yul\":4558:4570   */\n      add\n        /* \"#utility.yul\":4551:4570   */\n      swap1\n      pop\n        /* \"#utility.yul\":4210:4576   */\n      swap2\n      swap1\n      pop\n      jump\t// out\n        /* \"#utility.yul\":4582:5001   */\n    tag_36:\n        /* \"#utility.yul\":4748:4752   */\n      0x00\n        /* \"#utility.yul\":4786:4788   */\n      0x20\n        /* \"#utility.yul\":4775:4784   */\n      dup3\n        /* \"#utility.yul\":4771:4789   */\n      add\n        /* \"#utility.yul\":4763:4789   */\n      swap1\n      pop\n        /* \"#utility.yul\":4835:4844   */\n      dup2\n        /* \"#utility.yul\":4829:4833   */\n      dup2\n        /* \"#utility.yul\":4825:4845   */\n      sub\n        /* \"#utility.yul\":4821:4822   */\n      0x00\n        /* \"#utility.yul\":4810:4819   */\n      dup4\n        /* \"#utility.yul\":4806:4823   */\n      add\n        /* \"#utility.yul\":4799:4846   */\n      mstore\n        /* \"#utility.yul\":4863:4994   */\n      tag_137\n        /* \"#utility.yul\":4989:4993   */\n      dup2\n        /* \"#utility.yul\":4863:4994   */\n      tag_83\n      jump\t// in\n    tag_137:\n        /* \"#utility.yul\":4855:4994   */\n      swap1\n      pop\n        /* \"#utility.yul\":4582:5001   */\n      swap2\n      swap1\n      pop\n      jump\t// out\n        /* \"#utility.yul\":5007:5449   */\n    tag_38:\n        /* \"#utility.yul\":5156:5160   */\n      0x00\n        /* \"#utility.yul\":5194:5196   */\n      0x60\n        /* \"#utility.yul\":5183:5192   */\n      dup3\n        /* \"#utility.yul\":5179:5197   */\n      add\n        /* \"#utility.yul\":5171:5197   */\n      swap1\n      pop\n        /* \"#utility.yul\":5207:5278   */\n      tag_139\n        /* \"#utility.yul\":5275:5276   */\n      0x00\n        /* \"#utility.yul\":5264:5273   */\n      dup4\n        /* \"#utility.yul\":5260:5277   */\n      add\n        /* \"#utility.yul\":5251:5257   */\n      dup7\n        /* \"#utility.yul\":5207:5278   */\n      tag_78\n      jump\t// in\n    tag_139:\n        /* \"#utility.yul\":5288:5360   */\n      tag_140\n        /* \"#utility.yul\":5356:5358   */\n      0x20\n        /* \"#utility.yul\":5345:5354   */\n      dup4\n        /* \"#utility.yul\":5341:5359   */\n      add\n        /* \"#utility.yul\":5332:5338   */\n      dup6\n        /* \"#utility.yul\":5288:5360   */\n      tag_78\n      jump\t// in\n    tag_140:\n        /* \"#utility.yul\":5370:5442   */\n      tag_141\n        /* \"#utility.yul\":5438:5440   */\n      0x40\n        /* \"#utility.yul\":5427:5436   */\n      dup4\n        /* \"#utility.yul\":5423:5441   */\n      add\n        /* \"#utility.yul\":5414:5420   */\n      dup5\n        /* \"#utility.yul\":5370:5442   */\n      tag_77\n      jump\t// in\n    tag_141:\n        /* \"#utility.yul\":5007:5449   */\n      swap5\n      swap4\n      pop\n      pop\n      pop\n      pop\n      jump\t// out\n        /* \"#utility.yul\":5455:5614   */\n    tag_84:\n        /* \"#utility.yul\":5595:5606   */\n      0x6e6f74206f776e65720000000000000000000000000000000000000000000000\n        /* \"#utility.yul\":5591:5592   */\n      0x00\n        /* \"#utility.yul\":5583:5589   */\n      dup3\n        /* \"#utility.yul\":5579:5593   */\n      add\n        /* \"#utility.yul\":5572:5607   */\n      mstore\n        /* \"#utility.yul\":5455:5614   */\n      pop\n      jump\t// out\n        /* \"#utility.yul\":5620:5985   */\n    tag_85:\n        /* \"#utility.yul\":5762:5765   */\n      0x00\n        /* \"#utility.yul\":5783:5849   */\n      tag_144\n        /* \"#utility.yul\":5847:5848   */\n      0x09\n        /* \"#utility.yul\":5842:5845   */\n      dup4\n        /* \"#utility.yul\":5783:5849   */\n      tag_79\n      jump\t// in\n    tag_144:\n        /* \"#utility.yul\":5776:5849   */\n      swap2\n      pop\n        /* \"#utility.yul\":5858:5951   */\n      tag_145\n        /* \"#utility.yul\":5947:5950   */\n      dup3\n        /* \"#utility.yul\":5858:5951   */\n      tag_84\n      jump\t// in\n    tag_145:\n        /* \"#utility.yul\":5976:5978   */\n      0x20\n        /* \"#utility.yul\":5971:5974   */\n      dup3\n        /* \"#utility.yul\":5967:5979   */\n      add\n        /* \"#utility.yul\":5960:5979   */\n      swap1\n      pop\n        /* \"#utility.yul\":5620:5985   */\n      swap2\n      swap1\n      pop\n      jump\t// out\n        /* \"#utility.yul\":5991:6410   */\n    tag_47:\n        /* \"#utility.yul\":6157:6161   */\n      0x00\n        /* \"#utility.yul\":6195:6197   */\n      0x20\n        /* \"#utility.yul\":6184:6193   */\n      dup3\n        /* \"#utility.yul\":6180:6198   */\n      add\n        /* \"#utility.yul\":6172:6198   */\n      swap1\n      pop\n        /* \"#utility.yul\":6244:6253   */\n      dup2\n        /* \"#utility.yul\":6238:6242   */\n      dup2\n        /* \"#utility.yul\":6234:6254   */\n      sub\n        /* \"#utility.yul\":6230:6231   */\n      0x00\n        /* \"#utility.yul\":6219:6228   */\n      dup4\n        /* \"#utility.yul\":6215:6232   */\n      add\n        /* \"#utility.yul\":6208:6255   */\n      mstore\n        /* \"#utility.yul\":6272:6403   */\n      tag_147\n        /* \"#utility.yul\":6398:6402   */\n      dup2\n        /* \"#utility.yul\":6272:6403   */\n      tag_85\n      jump\t// in\n    tag_147:\n        /* \"#utility.yul\":6264:6403   */\n      swap1\n      pop\n        /* \"#utility.yul\":5991:6410   */\n      swap2\n      swap1\n      pop\n      jump\t// out\n        /* \"#utility.yul\":6416:6638   */\n    tag_50:\n        /* \"#utility.yul\":6509:6513   */\n      0x00\n        /* \"#utility.yul\":6547:6549   */\n      0x20\n        /* \"#utility.yul\":6536:6545   */\n      dup3\n        /* \"#utility.yul\":6532:6550   */\n      add\n        /* \"#utility.yul\":6524:6550   */\n      swap1\n      pop\n        /* \"#utility.yul\":6560:6631   */\n      tag_149\n        /* \"#utility.yul\":6628:6629   */\n      0x00\n        /* \"#utility.yul\":6617:6626   */\n      dup4\n        /* \"#utility.yul\":6613:6630   */\n      add\n        /* \"#utility.yul\":6604:6610   */\n      dup5\n        /* \"#utility.yul\":6560:6631   */\n      tag_77\n      jump\t// in\n    tag_149:\n        /* \"#utility.yul\":6416:6638   */\n      swap3\n      swap2\n      pop\n      pop\n      jump\t// out\n        /* \"#utility.yul\":6644:6787   */\n    tag_86:\n        /* \"#utility.yul\":6701:6706   */\n      0x00\n        /* \"#utility.yul\":6732:6738   */\n      dup2\n        /* \"#utility.yul\":6726:6739   */\n      mload\n        /* \"#utility.yul\":6717:6739   */\n      swap1\n      pop\n        /* \"#utility.yul\":6748:6781   */\n      tag_151\n        /* \"#utility.yul\":6775:6780   */\n      dup2\n        /* \"#utility.yul\":6748:6781   */\n      tag_72\n      jump\t// in\n    tag_151:\n        /* \"#utility.yul\":6644:6787   */\n      swap3\n      swap2\n      pop\n      pop\n      jump\t// out\n        /* \"#utility.yul\":6793:7144   */\n    tag_54:\n        /* \"#utility.yul\":6863:6869   */\n      0x00\n        /* \"#utility.yul\":6912:6914   */\n      0x20\n        /* \"#utility.yul\":6900:6909   */\n      dup3\n        /* \"#utility.yul\":6891:6898   */\n      dup5\n        /* \"#utility.yul\":6887:6910   */\n      sub\n        /* \"#utility.yul\":6883:6915   */\n      slt\n        /* \"#utility.yul\":6880:6999   */\n      iszero\n      tag_153\n      jumpi\n        /* \"#utility.yul\":6918:6997   */\n      tag_154\n      tag_68\n      jump\t// in\n    tag_154:\n        /* \"#utility.yul\":6880:6999   */\n    tag_153:\n        /* \"#utility.yul\":7038:7039   */\n      0x00\n        /* \"#utility.yul\":7063:7127   */\n      tag_155\n        /* \"#utility.yul\":7119:7126   */\n      dup5\n        /* \"#utility.yul\":7110:7116   */\n      dup3\n        /* \"#utility.yul\":7099:7108   */\n      dup6\n        /* \"#utility.yul\":7095:7117   */\n      add\n        /* \"#utility.yul\":7063:7127   */\n      tag_86\n      jump\t// in\n    tag_155:\n        /* \"#utility.yul\":7053:7127   */\n      swap2\n      pop\n        /* \"#utility.yul\":7009:7137   */\n      pop\n        /* \"#utility.yul\":6793:7144   */\n      swap3\n      swap2\n      pop\n      pop\n      jump\t// out\n        /* \"#utility.yul\":7150:7312   */\n    tag_87:\n        /* \"#utility.yul\":7290:7304   */\n      0x6e6f7420617070726f7665640000000000000000000000000000000000000000\n        /* \"#utility.yul\":7286:7287   */\n      0x00\n        /* \"#utility.yul\":7278:7284   */\n      dup3\n        /* \"#utility.yul\":7274:7288   */\n      add\n        /* \"#utility.yul\":7267:7305   */\n      mstore\n        /* \"#utility.yul\":7150:7312   */\n      pop\n      jump\t// out\n        /* \"#utility.yul\":7318:7684   */\n    tag_88:\n        /* \"#utility.yul\":7460:7463   */\n      0x00\n        /* \"#utility.yul\":7481:7548   */\n      tag_158\n        /* \"#utility.yul\":7545:7547   */\n      0x0c\n        /* \"#utility.yul\":7540:7543   */\n      dup4\n        /* \"#utility.yul\":7481:7548   */\n      tag_79\n      jump\t// in\n    tag_158:\n        /* \"#utility.yul\":7474:7548   */\n      swap2\n      pop\n        /* \"#utility.yul\":7557:7650   */\n      tag_159\n        /* \"#utility.yul\":7646:7649   */\n      dup3\n        /* \"#utility.yul\":7557:7650   */\n      tag_87\n      jump\t// in\n    tag_159:\n        /* \"#utility.yul\":7675:7677   */\n      0x20\n        /* \"#utility.yul\":7670:7673   */\n      dup3\n        /* \"#utility.yul\":7666:7678   */\n      add\n        /* \"#utility.yul\":7659:7678   */\n      swap1\n      pop\n        /* \"#utility.yul\":7318:7684   */\n      swap2\n      swap1\n      pop\n      jump\t// out\n        /* \"#utility.yul\":7690:8109   */\n    tag_63:\n        /* \"#utility.yul\":7856:7860   */\n      0x00\n        /* \"#utility.yul\":7894:7896   */\n      0x20\n        /* \"#utility.yul\":7883:7892   */\n      dup3\n        /* \"#utility.yul\":7879:7897   */\n      add\n        /* \"#utility.yul\":7871:7897   */\n      swap1\n      pop\n        /* \"#utility.yul\":7943:7952   */\n      dup2\n        /* \"#utility.yul\":7937:7941   */\n      dup2\n        /* \"#utility.yul\":7933:7953   */\n      sub\n        /* \"#utility.yul\":7929:7930   */\n      0x00\n        /* \"#utility.yul\":7918:7927   */\n      dup4\n        /* \"#utility.yul\":7914:7931   */\n      add\n        /* \"#utility.yul\":7907:7954   */\n      mstore\n        /* \"#utility.yul\":7971:8102   */\n      tag_161\n        /* \"#utility.yul\":8097:8101   */\n      dup2\n        /* \"#utility.yul\":7971:8102   */\n      tag_88\n      jump\t// in\n    tag_161:\n        /* \"#utility.yul\":7963:8102   */\n      swap1\n      pop\n        /* \"#utility.yul\":7690:8109   */\n      swap2\n      swap1\n      pop\n      jump\t// out\n\n    auxdata: 0xa26469706673582212202ceaf617da8c56d74049512ac4006e5de4820a9c29997dbdb19ca5ea31536ddd64736f6c634300081a0033\n}\n",
				"bytecode": {
					"linkReferences": {},
					"object": "6080604052348015600e575f80fd5b50610e1a8061001c5f395ff3fe608060405260043610610049575f3560e01c8063793b8c6d1461004d5780638de932221461008a578063d09b6d43146100a6578063dda342bb146100ce578063eac449d9146100f6575b5f80fd5b348015610058575f80fd5b50610073600480360381019061006e9190610ad4565b61011e565b604051610081929190610b30565b60405180910390f35b6100a4600480360381019061009f9190610ad4565b610167565b005b3480156100b1575f80fd5b506100cc60048036038101906100c79190610b57565b61040a565b005b3480156100d9575f80fd5b506100f460048036038101906100ef9190610b57565b610600565b005b348015610101575f80fd5b5061011c60048036038101906101179190610ad4565b61089b565b005b5f602052815f5260405f20602052805f5260405f205f9150915050805f015490806001015f9054906101000a900473ffffffffffffffffffffffffffffffffffffffff16905082565b5f805f8473ffffffffffffffffffffffffffffffffffffffff1673ffffffffffffffffffffffffffffffffffffffff1681526020019081526020015f205f8381526020019081526020015f206040518060400160405290815f8201548152602001600182015f9054906101000a900473ffffffffffffffffffffffffffffffffffffffff1673ffffffffffffffffffffffffffffffffffffffff1673ffffffffffffffffffffffffffffffffffffffff168152505090505f73ffffffffffffffffffffffffffffffffffffffff16816020015173ffffffffffffffffffffffffffffffffffffffff1603610290576040517f08c379a000000000000000000000000000000000000000000000000000000000815260040161028790610c01565b60405180910390fd5b34815f0151146102d5576040517f08c379a00000000000000000000000000000000000000000000000000000000081526004016102cc90610c69565b60405180910390fd5b8273ffffffffffffffffffffffffffffffffffffffff166342842e0e826020015133856040518463ffffffff1660e01b815260040161031693929190610c87565b5f604051808303815f87803b15801561032d575f80fd5b505af115801561033f573d5f803e3d5ffd5b50505050806020015173ffffffffffffffffffffffffffffffffffffffff166108fc3490811502906040515f60405180830381858888f1935050505015801561038a573d5f803e3d5ffd5b505f808473ffffffffffffffffffffffffffffffffffffffff1673ffffffffffffffffffffffffffffffffffffffff1681526020019081526020015f205f8381526020019081526020015f205f8082015f9055600182015f6101000a81549073ffffffffffffffffffffffffffffffffffffffff02191690555050505050565b5f805f8573ffffffffffffffffffffffffffffffffffffffff1673ffffffffffffffffffffffffffffffffffffffff1681526020019081526020015f205f8481526020019081526020015f206040518060400160405290815f8201548152602001600182015f9054906101000a900473ffffffffffffffffffffffffffffffffffffffff1673ffffffffffffffffffffffffffffffffffffffff1673ffffffffffffffffffffffffffffffffffffffff168152505090503373ffffffffffffffffffffffffffffffffffffffff16816020015173ffffffffffffffffffffffffffffffffffffffff1614610533576040517f08c379a000000000000000000000000000000000000000000000000000000000815260040161052a90610d06565b60405180910390fd5b60405180604001604052808381526020013373ffffffffffffffffffffffffffffffffffffffff168152505f808673ffffffffffffffffffffffffffffffffffffffff1673ffffffffffffffffffffffffffffffffffffffff1681526020019081526020015f205f8581526020019081526020015f205f820151815f01556020820151816001015f6101000a81548173ffffffffffffffffffffffffffffffffffffffff021916908373ffffffffffffffffffffffffffffffffffffffff16021790555090505050505050565b5f8390503373ffffffffffffffffffffffffffffffffffffffff168173ffffffffffffffffffffffffffffffffffffffff16636352211e856040518263ffffffff1660e01b81526004016106549190610d24565b602060405180830381865afa15801561066f573d5f803e3d5ffd5b505050506040513d601f19601f820116820180604052508101906106939190610d51565b73ffffffffffffffffffffffffffffffffffffffff16146106e9576040517f08c379a00000000000000000000000000000000000000000000000000000000081526004016106e090610d06565b60405180910390fd5b3073ffffffffffffffffffffffffffffffffffffffff168173ffffffffffffffffffffffffffffffffffffffff1663081812fc856040518263ffffffff1660e01b81526004016107399190610d24565b602060405180830381865afa158015610754573d5f803e3d5ffd5b505050506040513d601f19601f820116820180604052508101906107789190610d51565b73ffffffffffffffffffffffffffffffffffffffff16146107ce576040517f08c379a00000000000000000000000000000000000000000000000000000000081526004016107c590610dc6565b60405180910390fd5b60405180604001604052808381526020013373ffffffffffffffffffffffffffffffffffffffff168152505f808673ffffffffffffffffffffffffffffffffffffffff1673ffffffffffffffffffffffffffffffffffffffff1681526020019081526020015f205f8581526020019081526020015f205f820151815f01556020820151816001015f6101000a81548173ffffffffffffffffffffffffffffffffffffffff021916908373ffffffffffffffffffffffffffffffffffffffff16021790555090505050505050565b5f805f8473ffffffffffffffffffffffffffffffffffffffff1673ffffffffffffffffffffffffffffffffffffffff1681526020019081526020015f205f8381526020019081526020015f206040518060400160405290815f8201548152602001600182015f9054906101000a900473ffffffffffffffffffffffffffffffffffffffff1673ffffffffffffffffffffffffffffffffffffffff1673ffffffffffffffffffffffffffffffffffffffff168152505090503373ffffffffffffffffffffffffffffffffffffffff16816020015173ffffffffffffffffffffffffffffffffffffffff16146109c4576040517f08c379a00000000000000000000000000000000000000000000000000000000081526004016109bb90610d06565b60405180910390fd5b5f808473ffffffffffffffffffffffffffffffffffffffff1673ffffffffffffffffffffffffffffffffffffffff1681526020019081526020015f205f8381526020019081526020015f205f8082015f9055600182015f6101000a81549073ffffffffffffffffffffffffffffffffffffffff02191690555050505050565b5f80fd5b5f73ffffffffffffffffffffffffffffffffffffffff82169050919050565b5f610a7082610a47565b9050919050565b610a8081610a66565b8114610a8a575f80fd5b50565b5f81359050610a9b81610a77565b92915050565b5f819050919050565b610ab381610aa1565b8114610abd575f80fd5b50565b5f81359050610ace81610aaa565b92915050565b5f8060408385031215610aea57610ae9610a43565b5b5f610af785828601610a8d565b9250506020610b0885828601610ac0565b9150509250929050565b610b1b81610aa1565b82525050565b610b2a81610a66565b82525050565b5f604082019050610b435f830185610b12565b610b506020830184610b21565b9392505050565b5f805f60608486031215610b6e57610b6d610a43565b5b5f610b7b86828701610a8d565b9350506020610b8c86828701610ac0565b9250506040610b9d86828701610ac0565b9150509250925092565b5f82825260208201905092915050565b7f6e667420686173206e6f7420666f722073616c650000000000000000000000005f82015250565b5f610beb601483610ba7565b9150610bf682610bb7565b602082019050919050565b5f6020820190508181035f830152610c1881610bdf565b9050919050565b7f7072696365206973206e6f7420657175616c00000000000000000000000000005f82015250565b5f610c53601283610ba7565b9150610c5e82610c1f565b602082019050919050565b5f6020820190508181035f830152610c8081610c47565b9050919050565b5f606082019050610c9a5f830186610b21565b610ca76020830185610b21565b610cb46040830184610b12565b949350505050565b7f6e6f74206f776e657200000000000000000000000000000000000000000000005f82015250565b5f610cf0600983610ba7565b9150610cfb82610cbc565b602082019050919050565b5f6020820190508181035f830152610d1d81610ce4565b9050919050565b5f602082019050610d375f830184610b12565b92915050565b5f81519050610d4b81610a77565b92915050565b5f60208284031215610d6657610d65610a43565b5b5f610d7384828501610d3d565b91505092915050565b7f6e6f7420617070726f76656400000000000000000000000000000000000000005f82015250565b5f610db0600c83610ba7565b9150610dbb82610d7c565b602082019050919050565b5f6020820190508181035f830152610ddd81610da4565b905091905056fea26469706673582212202ceaf617da8c56d74049512ac4006e5de4820a9c29997dbdb19ca5ea31536ddd64736f6c634300081a0033",
					"opcodes": "PUSH1 0x80 PUSH1 0x40 MSTORE CALLVALUE DUP1 ISZERO PUSH1 0xE JUMPI PUSH0 DUP1 REVERT JUMPDEST POP PUSH2 0xE1A DUP1 PUSH2 0x1C PUSH0 CODECOPY PUSH0 RETURN INVALID PUSH1 0x80 PUSH1 0x40 MSTORE PUSH1 0x4 CALLDATASIZE LT PUSH2 0x49 JUMPI PUSH0 CALLDATALOAD PUSH1 0xE0 SHR DUP1 PUSH4 0x793B8C6D EQ PUSH2 0x4D JUMPI DUP1 PUSH4 0x8DE93222 EQ PUSH2 0x8A JUMPI DUP1 PUSH4 0xD09B6D43 EQ PUSH2 0xA6 JUMPI DUP1 PUSH4 0xDDA342BB EQ PUSH2 0xCE JUMPI DUP1 PUSH4 0xEAC449D9 EQ PUSH2 0xF6 JUMPI JUMPDEST PUSH0 DUP1 REVERT JUMPDEST CALLVALUE DUP1 ISZERO PUSH2 0x58 JUMPI PUSH0 DUP1 REVERT JUMPDEST POP PUSH2 0x73 PUSH1 0x4 DUP1 CALLDATASIZE SUB DUP2 ADD SWAP1 PUSH2 0x6E SWAP2 SWAP1 PUSH2 0xAD4 JUMP JUMPDEST PUSH2 0x11E JUMP JUMPDEST PUSH1 0x40 MLOAD PUSH2 0x81 SWAP3 SWAP2 SWAP1 PUSH2 0xB30 JUMP JUMPDEST PUSH1 0x40 MLOAD DUP1 SWAP2 SUB SWAP1 RETURN JUMPDEST PUSH2 0xA4 PUSH1 0x4 DUP1 CALLDATASIZE SUB DUP2 ADD SWAP1 PUSH2 0x9F SWAP2 SWAP1 PUSH2 0xAD4 JUMP JUMPDEST PUSH2 0x167 JUMP JUMPDEST STOP JUMPDEST CALLVALUE DUP1 ISZERO PUSH2 0xB1 JUMPI PUSH0 DUP1 REVERT JUMPDEST POP PUSH2 0xCC PUSH1 0x4 DUP1 CALLDATASIZE SUB DUP2 ADD SWAP1 PUSH2 0xC7 SWAP2 SWAP1 PUSH2 0xB57 JUMP JUMPDEST PUSH2 0x40A JUMP JUMPDEST STOP JUMPDEST CALLVALUE DUP1 ISZERO PUSH2 0xD9 JUMPI PUSH0 DUP1 REVERT JUMPDEST POP PUSH2 0xF4 PUSH1 0x4 DUP1 CALLDATASIZE SUB DUP2 ADD SWAP1 PUSH2 0xEF SWAP2 SWAP1 PUSH2 0xB57 JUMP JUMPDEST PUSH2 0x600 JUMP JUMPDEST STOP JUMPDEST CALLVALUE DUP1 ISZERO PUSH2 0x101 JUMPI PUSH0 DUP1 REVERT JUMPDEST POP PUSH2 0x11C PUSH1 0x4 DUP1 CALLDATASIZE SUB DUP2 ADD SWAP1 PUSH2 0x117 SWAP2 SWAP1 PUSH2 0xAD4 JUMP JUMPDEST PUSH2 0x89B JUMP JUMPDEST STOP JUMPDEST PUSH0 PUSH1 0x20 MSTORE DUP2 PUSH0 MSTORE PUSH1 0x40 PUSH0 KECCAK256 PUSH1 0x20 MSTORE DUP1 PUSH0 MSTORE PUSH1 0x40 PUSH0 KECCAK256 PUSH0 SWAP2 POP SWAP2 POP POP DUP1 PUSH0 ADD SLOAD SWAP1 DUP1 PUSH1 0x1 ADD PUSH0 SWAP1 SLOAD SWAP1 PUSH2 0x100 EXP SWAP1 DIV PUSH20 0xFFFFFFFFFFFFFFFFFFFFFFFFFFFFFFFFFFFFFFFF AND SWAP1 POP DUP3 JUMP JUMPDEST PUSH0 DUP1 PUSH0 DUP5 PUSH20 0xFFFFFFFFFFFFFFFFFFFFFFFFFFFFFFFFFFFFFFFF AND PUSH20 0xFFFFFFFFFFFFFFFFFFFFFFFFFFFFFFFFFFFFFFFF AND DUP2 MSTORE PUSH1 0x20 ADD SWAP1 DUP2 MSTORE PUSH1 0x20 ADD PUSH0 KECCAK256 PUSH0 DUP4 DUP2 MSTORE PUSH1 0x20 ADD SWAP1 DUP2 MSTORE PUSH1 0x20 ADD PUSH0 KECCAK256 PUSH1 0x40 MLOAD DUP1 PUSH1 0x40 ADD PUSH1 0x40 MSTORE SWAP1 DUP2 PUSH0 DUP3 ADD SLOAD DUP2 MSTORE PUSH1 0x20 ADD PUSH1 0x1 DUP3 ADD PUSH0 SWAP1 SLOAD SWAP1 PUSH2 0x100 EXP SWAP1 DIV PUSH20 0xFFFFFFFFFFFFFFFFFFFFFFFFFFFFFFFFFFFFFFFF AND PUSH20 0xFFFFFFFFFFFFFFFFFFFFFFFFFFFFFFFFFFFFFFFF AND PUSH20 0xFFFFFFFFFFFFFFFFFFFFFFFFFFFFFFFFFFFFFFFF AND DUP2 MSTORE POP POP SWAP1 POP PUSH0 PUSH20 0xFFFFFFFFFFFFFFFFFFFFFFFFFFFFFFFFFFFFFFFF AND DUP2 PUSH1 0x20 ADD MLOAD PUSH20 0xFFFFFFFFFFFFFFFFFFFFFFFFFFFFFFFFFFFFFFFF AND SUB PUSH2 0x290 JUMPI PUSH1 0x40 MLOAD PUSH32 0x8C379A000000000000000000000000000000000000000000000000000000000 DUP2 MSTORE PUSH1 0x4 ADD PUSH2 0x287 SWAP1 PUSH2 0xC01 JUMP JUMPDEST PUSH1 0x40 MLOAD DUP1 SWAP2 SUB SWAP1 REVERT JUMPDEST CALLVALUE DUP2 PUSH0 ADD MLOAD EQ PUSH2 0x2D5 JUMPI PUSH1 0x40 MLOAD PUSH32 0x8C379A000000000000000000000000000000000000000000000000000000000 DUP2 MSTORE PUSH1 0x4 ADD PUSH2 0x2CC SWAP1 PUSH2 0xC69 JUMP JUMPDEST PUSH1 0x40 MLOAD DUP1 SWAP2 SUB SWAP1 REVERT JUMPDEST DUP3 PUSH20 0xFFFFFFFFFFFFFFFFFFFFFFFFFFFFFFFFFFFFFFFF AND PUSH4 0x42842E0E DUP3 PUSH1 0x20 ADD MLOAD CALLER DUP6 PUSH1 0x40 MLOAD DUP5 PUSH4 0xFFFFFFFF AND PUSH1 0xE0 SHL DUP2 MSTORE PUSH1 0x4 ADD PUSH2 0x316 SWAP4 SWAP3 SWAP2 SWAP1 PUSH2 0xC87 JUMP JUMPDEST PUSH0 PUSH1 0x40 MLOAD DUP1 DUP4 SUB DUP2 PUSH0 DUP8 DUP1 EXTCODESIZE ISZERO DUP1 ISZERO PUSH2 0x32D JUMPI PUSH0 DUP1 REVERT JUMPDEST POP GAS CALL ISZERO DUP1 ISZERO PUSH2 0x33F JUMPI RETURNDATASIZE PUSH0 DUP1 RETURNDATACOPY RETURNDATASIZE PUSH0 REVERT JUMPDEST POP POP POP POP DUP1 PUSH1 0x20 ADD MLOAD PUSH20 0xFFFFFFFFFFFFFFFFFFFFFFFFFFFFFFFFFFFFFFFF AND PUSH2 0x8FC CALLVALUE SWAP1 DUP2 ISZERO MUL SWAP1 PUSH1 0x40 MLOAD PUSH0 PUSH1 0x40 MLOAD DUP1 DUP4 SUB DUP2 DUP6 DUP9 DUP9 CALL SWAP4 POP POP POP POP ISZERO DUP1 ISZERO PUSH2 0x38A JUMPI RETURNDATASIZE PUSH0 DUP1 RETURNDATACOPY RETURNDATASIZE PUSH0 REVERT JUMPDEST POP PUSH0 DUP1 DUP5 PUSH20 0xFFFFFFFFFFFFFFFFFFFFFFFFFFFFFFFFFFFFFFFF AND PUSH20 0xFFFFFFFFFFFFFFFFFFFFFFFFFFFFFFFFFFFFFFFF AND DUP2 MSTORE PUSH1 0x20 ADD SWAP1 DUP2 MSTORE PUSH1 0x20 ADD PUSH0 KECCAK256 PUSH0 DUP4 DUP2 MSTORE PUSH1 0x20 ADD SWAP1 DUP2 MSTORE PUSH1 0x20 ADD PUSH0 KECCAK256 PUSH0 DUP1 DUP3 ADD PUSH0 SWAP1 SSTORE PUSH1 0x1 DUP3 ADD PUSH0 PUSH2 0x100 EXP DUP2 SLOAD SWAP1 PUSH20 0xFFFFFFFFFFFFFFFFFFFFFFFFFFFFFFFFFFFFFFFF MUL NOT AND SWAP1 SSTORE POP POP POP POP POP JUMP JUMPDEST PUSH0 DUP1 PUSH0 DUP6 PUSH20 0xFFFFFFFFFFFFFFFFFFFFFFFFFFFFFFFFFFFFFFFF AND PUSH20 0xFFFFFFFFFFFFFFFFFFFFFFFFFFFFFFFFFFFFFFFF AND DUP2 MSTORE PUSH1 0x20 ADD SWAP1 DUP2 MSTORE PUSH1 0x20 ADD PUSH0 KECCAK256 PUSH0 DUP5 DUP2 MSTORE PUSH1 0x20 ADD SWAP1 DUP2 MSTORE PUSH1 0x20 ADD PUSH0 KECCAK256 PUSH1 0x40 MLOAD DUP1 PUSH1 0x40 ADD PUSH1 0x40 MSTORE SWAP1 DUP2 PUSH0 DUP3 ADD SLOAD DUP2 MSTORE PUSH1 0x20 ADD PUSH1 0x1 DUP3 ADD PUSH0 SWAP1 SLOAD SWAP1 PUSH2 0x100 EXP SWAP1 DIV PUSH20 0xFFFFFFFFFFFFFFFFFFFFFFFFFFFFFFFFFFFFFFFF AND PUSH20 0xFFFFFFFFFFFFFFFFFFFFFFFFFFFFFFFFFFFFFFFF AND PUSH20 0xFFFFFFFFFFFFFFFFFFFFFFFFFFFFFFFFFFFFFFFF AND DUP2 MSTORE POP POP SWAP1 POP CALLER PUSH20 0xFFFFFFFFFFFFFFFFFFFFFFFFFFFFFFFFFFFFFFFF AND DUP2 PUSH1 0x20 ADD MLOAD PUSH20 0xFFFFFFFFFFFFFFFFFFFFFFFFFFFFFFFFFFFFFFFF AND EQ PUSH2 0x533 JUMPI PUSH1 0x40 MLOAD PUSH32 0x8C379A000000000000000000000000000000000000000000000000000000000 DUP2 MSTORE PUSH1 0x4 ADD PUSH2 0x52A SWAP1 PUSH2 0xD06 JUMP JUMPDEST PUSH1 0x40 MLOAD DUP1 SWAP2 SUB SWAP1 REVERT JUMPDEST PUSH1 0x40 MLOAD DUP1 PUSH1 0x40 ADD PUSH1 0x40 MSTORE DUP1 DUP4 DUP2 MSTORE PUSH1 0x20 ADD CALLER PUSH20 0xFFFFFFFFFFFFFFFFFFFFFFFFFFFFFFFFFFFFFFFF AND DUP2 MSTORE POP PUSH0 DUP1 DUP7 PUSH20 0xFFFFFFFFFFFFFFFFFFFFFFFFFFFFFFFFFFFFFFFF AND PUSH20 0xFFFFFFFFFFFFFFFFFFFFFFFFFFFFFFFFFFFFFFFF AND DUP2 MSTORE PUSH1 0x20 ADD SWAP1 DUP2 MSTORE PUSH1 0x20 ADD PUSH0 KECCAK256 PUSH0 DUP6 DUP2 MSTORE PUSH1 0x20 ADD SWAP1 DUP2 MSTORE PUSH1 0x20 ADD PUSH0 KECCAK256 PUSH0 DUP3 ADD MLOAD DUP2 PUSH0 ADD SSTORE PUSH1 0x20 DUP3 ADD MLOAD DUP2 PUSH1 0x1 ADD PUSH0 PUSH2 0x100 EXP DUP2 SLOAD DUP2 PUSH20 0xFFFFFFFFFFFFFFFFFFFFFFFFFFFFFFFFFFFFFFFF MUL NOT AND SWAP1 DUP4 PUSH20 0xFFFFFFFFFFFFFFFFFFFFFFFFFFFFFFFFFFFFFFFF AND MUL OR SWAP1 SSTORE POP SWAP1 POP POP POP POP POP POP JUMP JUMPDEST PUSH0 DUP4 SWAP1 POP CALLER PUSH20 0xFFFFFFFFFFFFFFFFFFFFFFFFFFFFFFFFFFFFFFFF AND DUP2 PUSH20 0xFFFFFFFFFFFFFFFFFFFFFFFFFFFFFFFFFFFFFFFF AND PUSH4 0x6352211E DUP6 PUSH1 0x40 MLOAD DUP3 PUSH4 0xFFFFFFFF AND PUSH1 0xE0 SHL DUP2 MSTORE PUSH1 0x4 ADD PUSH2 0x654 SWAP2 SWAP1 PUSH2 0xD24 JUMP JUMPDEST PUSH1 0x20 PUSH1 0x40 MLOAD DUP1 DUP4 SUB DUP2 DUP7 GAS STATICCALL ISZERO DUP1 ISZERO PUSH2 0x66F JUMPI RETURNDATASIZE PUSH0 DUP1 RETURNDATACOPY RETURNDATASIZE PUSH0 REVERT JUMPDEST POP POP POP POP PUSH1 0x40 MLOAD RETURNDATASIZE PUSH1 0x1F NOT PUSH1 0x1F DUP3 ADD AND DUP3 ADD DUP1 PUSH1 0x40 MSTORE POP DUP2 ADD SWAP1 PUSH2 0x693 SWAP2 SWAP1 PUSH2 0xD51 JUMP JUMPDEST PUSH20 0xFFFFFFFFFFFFFFFFFFFFFFFFFFFFFFFFFFFFFFFF AND EQ PUSH2 0x6E9 JUMPI PUSH1 0x40 MLOAD PUSH32 0x8C379A000000000000000000000000000000000000000000000000000000000 DUP2 MSTORE PUSH1 0x4 ADD PUSH2 0x6E0 SWAP1 PUSH2 0xD06 JUMP JUMPDEST PUSH1 0x40 MLOAD DUP1 SWAP2 SUB SWAP1 REVERT JUMPDEST ADDRESS PUSH20 0xFFFFFFFFFFFFFFFFFFFFFFFFFFFFFFFFFFFFFFFF AND DUP2 PUSH20 0xFFFFFFFFFFFFFFFFFFFFFFFFFFFFFFFFFFFFFFFF AND PUSH4 0x81812FC DUP6 PUSH1 0x40 MLOAD DUP3 PUSH4 0xFFFFFFFF AND PUSH1 0xE0 SHL DUP2 MSTORE PUSH1 0x4 ADD PUSH2 0x739 SWAP2 SWAP1 PUSH2 0xD24 JUMP JUMPDEST PUSH1 0x20 PUSH1 0x40 MLOAD DUP1 DUP4 SUB DUP2 DUP7 GAS STATICCALL ISZERO DUP1 ISZERO PUSH2 0x754 JUMPI RETURNDATASIZE PUSH0 DUP1 RETURNDATACOPY RETURNDATASIZE PUSH0 REVERT JUMPDEST POP POP POP POP PUSH1 0x40 MLOAD RETURNDATASIZE PUSH1 0x1F NOT PUSH1 0x1F DUP3 ADD AND DUP3 ADD DUP1 PUSH1 0x40 MSTORE POP DUP2 ADD SWAP1 PUSH2 0x778 SWAP2 SWAP1 PUSH2 0xD51 JUMP JUMPDEST PUSH20 0xFFFFFFFFFFFFFFFFFFFFFFFFFFFFFFFFFFFFFFFF AND EQ PUSH2 0x7CE JUMPI PUSH1 0x40 MLOAD PUSH32 0x8C379A000000000000000000000000000000000000000000000000000000000 DUP2 MSTORE PUSH1 0x4 ADD PUSH2 0x7C5 SWAP1 PUSH2 0xDC6 JUMP JUMPDEST PUSH1 0x40 MLOAD DUP1 SWAP2 SUB SWAP1 REVERT JUMPDEST PUSH1 0x40 MLOAD DUP1 PUSH1 0x40 ADD PUSH1 0x40 MSTORE DUP1 DUP4 DUP2 MSTORE PUSH1 0x20 ADD CALLER PUSH20 0xFFFFFFFFFFFFFFFFFFFFFFFFFFFFFFFFFFFFFFFF AND DUP2 MSTORE POP PUSH0 DUP1 DUP7 PUSH20 0xFFFFFFFFFFFFFFFFFFFFFFFFFFFFFFFFFFFFFFFF AND PUSH20 0xFFFFFFFFFFFFFFFFFFFFFFFFFFFFFFFFFFFFFFFF AND DUP2 MSTORE PUSH1 0x20 ADD SWAP1 DUP2 MSTORE PUSH1 0x20 ADD PUSH0 KECCAK256 PUSH0 DUP6 DUP2 MSTORE PUSH1 0x20 ADD SWAP1 DUP2 MSTORE PUSH1 0x20 ADD PUSH0 KECCAK256 PUSH0 DUP3 ADD MLOAD DUP2 PUSH0 ADD SSTORE PUSH1 0x20 DUP3 ADD MLOAD DUP2 PUSH1 0x1 ADD PUSH0 PUSH2 0x100 EXP DUP2 SLOAD DUP2 PUSH20 0xFFFFFFFFFFFFFFFFFFFFFFFFFFFFFFFFFFFFFFFF MUL NOT AND SWAP1 DUP4 PUSH20 0xFFFFFFFFFFFFFFFFFFFFFFFFFFFFFFFFFFFFFFFF AND MUL OR SWAP1 SSTORE POP SWAP1 POP POP POP POP POP POP JUMP JUMPDEST PUSH0 DUP1 PUSH0 DUP5 PUSH20 0xFFFFFFFFFFFFFFFFFFFFFFFFFFFFFFFFFFFFFFFF AND PUSH20 0xFFFFFFFFFFFFFFFFFFFFFFFFFFFFFFFFFFFFFFFF AND DUP2 MSTORE PUSH1 0x20 ADD SWAP1 DUP2 MSTORE PUSH1 0x20 ADD PUSH0 KECCAK256 PUSH0 DUP4 DUP2 MSTORE PUSH1 0x20 ADD SWAP1 DUP2 MSTORE PUSH1 0x20 ADD PUSH0 KECCAK256 PUSH1 0x40 MLOAD DUP1 PUSH1 0x40 ADD PUSH1 0x40 MSTORE SWAP1 DUP2 PUSH0 DUP3 ADD SLOAD DUP2 MSTORE PUSH1 0x20 ADD PUSH1 0x1 DUP3 ADD PUSH0 SWAP1 SLOAD SWAP1 PUSH2 0x100 EXP SWAP1 DIV PUSH20 0xFFFFFFFFFFFFFFFFFFFFFFFFFFFFFFFFFFFFFFFF AND PUSH20 0xFFFFFFFFFFFFFFFFFFFFFFFFFFFFFFFFFFFFFFFF AND PUSH20 0xFFFFFFFFFFFFFFFFFFFFFFFFFFFFFFFFFFFFFFFF AND DUP2 MSTORE POP POP SWAP1 POP CALLER PUSH20 0xFFFFFFFFFFFFFFFFFFFFFFFFFFFFFFFFFFFFFFFF AND DUP2 PUSH1 0x20 ADD MLOAD PUSH20 0xFFFFFFFFFFFFFFFFFFFFFFFFFFFFFFFFFFFFFFFF AND EQ PUSH2 0x9C4 JUMPI PUSH1 0x40 MLOAD PUSH32 0x8C379A000000000000000000000000000000000000000000000000000000000 DUP2 MSTORE PUSH1 0x4 ADD PUSH2 0x9BB SWAP1 PUSH2 0xD06 JUMP JUMPDEST PUSH1 0x40 MLOAD DUP1 SWAP2 SUB SWAP1 REVERT JUMPDEST PUSH0 DUP1 DUP5 PUSH20 0xFFFFFFFFFFFFFFFFFFFFFFFFFFFFFFFFFFFFFFFF AND PUSH20 0xFFFFFFFFFFFFFFFFFFFFFFFFFFFFFFFFFFFFFFFF AND DUP2 MSTORE PUSH1 0x20 ADD SWAP1 DUP2 MSTORE PUSH1 0x20 ADD PUSH0 KECCAK256 PUSH0 DUP4 DUP2 MSTORE PUSH1 0x20 ADD SWAP1 DUP2 MSTORE PUSH1 0x20 ADD PUSH0 KECCAK256 PUSH0 DUP1 DUP3 ADD PUSH0 SWAP1 SSTORE PUSH1 0x1 DUP3 ADD PUSH0 PUSH2 0x100 EXP DUP2 SLOAD SWAP1 PUSH20 0xFFFFFFFFFFFFFFFFFFFFFFFFFFFFFFFFFFFFFFFF MUL NOT AND SWAP1 SSTORE POP POP POP POP POP JUMP JUMPDEST PUSH0 DUP1 REVERT JUMPDEST PUSH0 PUSH20 0xFFFFFFFFFFFFFFFFFFFFFFFFFFFFFFFFFFFFFFFF DUP3 AND SWAP1 POP SWAP2 SWAP1 POP JUMP JUMPDEST PUSH0 PUSH2 0xA70 DUP3 PUSH2 0xA47 JUMP JUMPDEST SWAP1 POP SWAP2 SWAP1 POP JUMP JUMPDEST PUSH2 0xA80 DUP2 PUSH2 0xA66 JUMP JUMPDEST DUP2 EQ PUSH2 0xA8A JUMPI PUSH0 DUP1 REVERT JUMPDEST POP JUMP JUMPDEST PUSH0 DUP2 CALLDATALOAD SWAP1 POP PUSH2 0xA9B DUP2 PUSH2 0xA77 JUMP JUMPDEST SWAP3 SWAP2 POP POP JUMP JUMPDEST PUSH0 DUP2 SWAP1 POP SWAP2 SWAP1 POP JUMP JUMPDEST PUSH2 0xAB3 DUP2 PUSH2 0xAA1 JUMP JUMPDEST DUP2 EQ PUSH2 0xABD JUMPI PUSH0 DUP1 REVERT JUMPDEST POP JUMP JUMPDEST PUSH0 DUP2 CALLDATALOAD SWAP1 POP PUSH2 0xACE DUP2 PUSH2 0xAAA JUMP JUMPDEST SWAP3 SWAP2 POP POP JUMP JUMPDEST PUSH0 DUP1 PUSH1 0x40 DUP4 DUP6 SUB SLT ISZERO PUSH2 0xAEA JUMPI PUSH2 0xAE9 PUSH2 0xA43 JUMP JUMPDEST JUMPDEST PUSH0 PUSH2 0xAF7 DUP6 DUP3 DUP7 ADD PUSH2 0xA8D JUMP JUMPDEST SWAP3 POP POP PUSH1 0x20 PUSH2 0xB08 DUP6 DUP3 DUP7 ADD PUSH2 0xAC0 JUMP JUMPDEST SWAP2 POP POP SWAP3 POP SWAP3 SWAP1 POP JUMP JUMPDEST PUSH2 0xB1B DUP2 PUSH2 0xAA1 JUMP JUMPDEST DUP3 MSTORE POP POP JUMP JUMPDEST PUSH2 0xB2A DUP2 PUSH2 0xA66 JUMP JUMPDEST DUP3 MSTORE POP POP JUMP JUMPDEST PUSH0 PUSH1 0x40 DUP3 ADD SWAP1 POP PUSH2 0xB43 PUSH0 DUP4 ADD DUP6 PUSH2 0xB12 JUMP JUMPDEST PUSH2 0xB50 PUSH1 0x20 DUP4 ADD DUP5 PUSH2 0xB21 JUMP JUMPDEST SWAP4 SWAP3 POP POP POP JUMP JUMPDEST PUSH0 DUP1 PUSH0 PUSH1 0x60 DUP5 DUP7 SUB SLT ISZERO PUSH2 0xB6E JUMPI PUSH2 0xB6D PUSH2 0xA43 JUMP JUMPDEST JUMPDEST PUSH0 PUSH2 0xB7B DUP7 DUP3 DUP8 ADD PUSH2 0xA8D JUMP JUMPDEST SWAP4 POP POP PUSH1 0x20 PUSH2 0xB8C DUP7 DUP3 DUP8 ADD PUSH2 0xAC0 JUMP JUMPDEST SWAP3 POP POP PUSH1 0x40 PUSH2 0xB9D DUP7 DUP3 DUP8 ADD PUSH2 0xAC0 JUMP JUMPDEST SWAP2 POP POP SWAP3 POP SWAP3 POP SWAP3 JUMP JUMPDEST PUSH0 DUP3 DUP3 MSTORE PUSH1 0x20 DUP3 ADD SWAP1 POP SWAP3 SWAP2 POP POP JUMP JUMPDEST PUSH32 0x6E667420686173206E6F7420666F722073616C65000000000000000000000000 PUSH0 DUP3 ADD MSTORE POP JUMP JUMPDEST PUSH0 PUSH2 0xBEB PUSH1 0x14 DUP4 PUSH2 0xBA7 JUMP JUMPDEST SWAP2 POP PUSH2 0xBF6 DUP3 PUSH2 0xBB7 JUMP JUMPDEST PUSH1 0x20 DUP3 ADD SWAP1 POP SWAP2 SWAP1 POP JUMP JUMPDEST PUSH0 PUSH1 0x20 DUP3 ADD SWAP1 POP DUP2 DUP2 SUB PUSH0 DUP4 ADD MSTORE PUSH2 0xC18 DUP2 PUSH2 0xBDF JUMP JUMPDEST SWAP1 POP SWAP2 SWAP1 POP JUMP JUMPDEST PUSH32 0x7072696365206973206E6F7420657175616C0000000000000000000000000000 PUSH0 DUP3 ADD MSTORE POP JUMP JUMPDEST PUSH0 PUSH2 0xC53 PUSH1 0x12 DUP4 PUSH2 0xBA7 JUMP JUMPDEST SWAP2 POP PUSH2 0xC5E DUP3 PUSH2 0xC1F JUMP JUMPDEST PUSH1 0x20 DUP3 ADD SWAP1 POP SWAP2 SWAP1 POP JUMP JUMPDEST PUSH0 PUSH1 0x20 DUP3 ADD SWAP1 POP DUP2 DUP2 SUB PUSH0 DUP4 ADD MSTORE PUSH2 0xC80 DUP2 PUSH2 0xC47 JUMP JUMPDEST SWAP1 POP SWAP2 SWAP1 POP JUMP JUMPDEST PUSH0 PUSH1 0x60 DUP3 ADD SWAP1 POP PUSH2 0xC9A PUSH0 DUP4 ADD DUP7 PUSH2 0xB21 JUMP JUMPDEST PUSH2 0xCA7 PUSH1 0x20 DUP4 ADD DUP6 PUSH2 0xB21 JUMP JUMPDEST PUSH2 0xCB4 PUSH1 0x40 DUP4 ADD DUP5 PUSH2 0xB12 JUMP JUMPDEST SWAP5 SWAP4 POP POP POP POP JUMP JUMPDEST PUSH32 0x6E6F74206F776E65720000000000000000000000000000000000000000000000 PUSH0 DUP3 ADD MSTORE POP JUMP JUMPDEST PUSH0 PUSH2 0xCF0 PUSH1 0x9 DUP4 PUSH2 0xBA7 JUMP JUMPDEST SWAP2 POP PUSH2 0xCFB DUP3 PUSH2 0xCBC JUMP JUMPDEST PUSH1 0x20 DUP3 ADD SWAP1 POP SWAP2 SWAP1 POP JUMP JUMPDEST PUSH0 PUSH1 0x20 DUP3 ADD SWAP1 POP DUP2 DUP2 SUB PUSH0 DUP4 ADD MSTORE PUSH2 0xD1D DUP2 PUSH2 0xCE4 JUMP JUMPDEST SWAP1 POP SWAP2 SWAP1 POP JUMP JUMPDEST PUSH0 PUSH1 0x20 DUP3 ADD SWAP1 POP PUSH2 0xD37 PUSH0 DUP4 ADD DUP5 PUSH2 0xB12 JUMP JUMPDEST SWAP3 SWAP2 POP POP JUMP JUMPDEST PUSH0 DUP2 MLOAD SWAP1 POP PUSH2 0xD4B DUP2 PUSH2 0xA77 JUMP JUMPDEST SWAP3 SWAP2 POP POP JUMP JUMPDEST PUSH0 PUSH1 0x20 DUP3 DUP5 SUB SLT ISZERO PUSH2 0xD66 JUMPI PUSH2 0xD65 PUSH2 0xA43 JUMP JUMPDEST JUMPDEST PUSH0 PUSH2 0xD73 DUP5 DUP3 DUP6 ADD PUSH2 0xD3D JUMP JUMPDEST SWAP2 POP POP SWAP3 SWAP2 POP POP JUMP JUMPDEST PUSH32 0x6E6F7420617070726F7665640000000000000000000000000000000000000000 PUSH0 DUP3 ADD MSTORE POP JUMP JUMPDEST PUSH0 PUSH2 0xDB0 PUSH1 0xC DUP4 PUSH2 0xBA7 JUMP JUMPDEST SWAP2 POP PUSH2 0xDBB DUP3 PUSH2 0xD7C JUMP JUMPDEST PUSH1 0x20 DUP3 ADD SWAP1 POP SWAP2 SWAP1 POP JUMP JUMPDEST PUSH0 PUSH1 0x20 DUP3 ADD SWAP1 POP DUP2 DUP2 SUB PUSH0 DUP4 ADD MSTORE PUSH2 0xDDD DUP2 PUSH2 0xDA4 JUMP JUMPDEST SWAP1 POP SWAP2 SWAP1 POP JUMP INVALID LOG2 PUSH5 0x6970667358 0x22 SLT KECCAK256 0x2C 0xEA 0xF6 OR 0xDA DUP13 JUMP 0xD7 BLOCKHASH BLOBHASH MLOAD 0x2A 0xC4 STOP PUSH15 0x5DE4820A9C29997DBDB19CA5EA3153 PUSH14 0xDD64736F6C634300081A00330000 "
				},
				"gasEstimates": {
					"creation": {
						"codeDepositCost": "722000",
						"executionCost": "751",
						"totalCost": "722751"
					},
					"external": {
						"list(address,uint256,uint256)": "infinite",
						"orders(address,uint256)": "infinite",
						"purchase(address,uint256)": "infinite",
						"revoke(address,uint256)": "34661",
						"update(address,uint256,uint256)": "infinite"
					}
				},
				"methodIdentifiers": {
					"list(address,uint256,uint256)": "dda342bb",
					"orders(address,uint256)": "793b8c6d",
					"purchase(address,uint256)": "8de93222",
					"revoke(address,uint256)": "eac449d9",
					"update(address,uint256,uint256)": "d09b6d43"
				}
			},
			"storageLayout": {
				"storage": [
					{
						"astId": 162,
						"contract": "contracts/test2.sol/NFT_swap.sol:NFT_swap",
						"label": "orders",
						"offset": 0,
						"slot": "0",
						"type": "t_mapping(t_address,t_mapping(t_uint256,t_struct(Order)155_storage))"
					}
				],
				"types": {
					"t_address": {
						"encoding": "inplace",
						"label": "address",
						"numberOfBytes": "20"
					},
					"t_mapping(t_address,t_mapping(t_uint256,t_struct(Order)155_storage))": {
						"encoding": "mapping",
						"key": "t_address",
						"label": "mapping(address => mapping(uint256 => struct NFT_swap.Order))",
						"numberOfBytes": "32",
						"value": "t_mapping(t_uint256,t_struct(Order)155_storage)"
					},
					"t_mapping(t_uint256,t_struct(Order)155_storage)": {
						"encoding": "mapping",
						"key": "t_uint256",
						"label": "mapping(uint256 => struct NFT_swap.Order)",
						"numberOfBytes": "32",
						"value": "t_struct(Order)155_storage"
					},
					"t_struct(Order)155_storage": {
						"encoding": "inplace",
						"label": "struct NFT_swap.Order",
						"members": [
							{
								"astId": 152,
								"contract": "contracts/test2.sol/NFT_swap.sol:NFT_swap",
								"label": "price",
								"offset": 0,
								"slot": "0",
								"type": "t_uint256"
							},
							{
								"astId": 154,
								"contract": "contracts/test2.sol/NFT_swap.sol:NFT_swap",
								"label": "owner",
								"offset": 0,
								"slot": "1",
								"type": "t_address"
							}
						],
						"numberOfBytes": "64"
					},
					"t_uint256": {
						"encoding": "inplace",
						"label": "uint256",
						"numberOfBytes": "32"
					}
				}
			},
			"userdoc": {
				"kind": "user",
				"methods": {},
				"version": 1
			}
		}
	}
}