{
	"contracts/test4/WETH_LP.sol": {
		"WETH_LP": {
			"abi": [
				{
					"inputs": [
						{
							"internalType": "address",
							"name": "_weth",
							"type": "address"
						},
						{
							"internalType": "address",
							"name": "_token",
							"type": "address"
						},
						{
							"internalType": "uint16",
							"name": "_serviceChange",
							"type": "uint16"
						}
					],
					"stateMutability": "nonpayable",
					"type": "constructor"
				},
				{
					"inputs": [
						{
							"internalType": "uint256",
							"name": "_wethAmount",
							"type": "uint256"
						},
						{
							"internalType": "uint256",
							"name": "_tokenAmount",
							"type": "uint256"
						}
					],
					"name": "addLiquidity",
					"outputs": [],
					"stateMutability": "payable",
					"type": "function"
				},
				{
					"inputs": [
						{
							"internalType": "address",
							"name": "",
							"type": "address"
						}
					],
					"name": "liquidity",
					"outputs": [
						{
							"internalType": "uint256",
							"name": "",
							"type": "uint256"
						}
					],
					"stateMutability": "view",
					"type": "function"
				},
				{
					"inputs": [
						{
							"internalType": "uint256",
							"name": "_amount",
							"type": "uint256"
						}
					],
					"name": "removeLiquidity",
					"outputs": [],
					"stateMutability": "nonpayable",
					"type": "function"
				},
				{
					"inputs": [],
					"name": "serviceChange",
					"outputs": [
						{
							"internalType": "uint16",
							"name": "",
							"type": "uint16"
						}
					],
					"stateMutability": "view",
					"type": "function"
				},
				{
					"inputs": [
						{
							"internalType": "uint256",
							"name": "_tokenAmount",
							"type": "uint256"
						}
					],
					"name": "swapTokenForWETH",
					"outputs": [],
					"stateMutability": "nonpayable",
					"type": "function"
				},
				{
					"inputs": [
						{
							"internalType": "uint256",
							"name": "_wethAmount",
							"type": "uint256"
						}
					],
					"name": "swapWETHForToken",
					"outputs": [],
					"stateMutability": "nonpayable",
					"type": "function"
				},
				{
					"inputs": [],
					"name": "token",
					"outputs": [
						{
							"internalType": "address",
							"name": "",
							"type": "address"
						}
					],
					"stateMutability": "view",
					"type": "function"
				},
				{
					"inputs": [],
					"name": "totalLiquidity",
					"outputs": [
						{
							"internalType": "uint256",
							"name": "",
							"type": "uint256"
						}
					],
					"stateMutability": "view",
					"type": "function"
				},
				{
					"inputs": [],
					"name": "weth",
					"outputs": [
						{
							"internalType": "address",
							"name": "",
							"type": "address"
						}
					],
					"stateMutability": "view",
					"type": "function"
				}
			],
			"devdoc": {
				"kind": "dev",
				"methods": {},
				"version": 1
			},
			"evm": {
				"assembly": "    /* \"contracts/test4/WETH_LP.sol\":213:3168  contract WETH_LP {... */\n  mstore(0x40, 0x80)\n    /* \"contracts/test4/WETH_LP.sol\":451:610  constructor(address _weth, address _token, uint16 _serviceChange) {... */\n  callvalue\n  dup1\n  iszero\n  tag_1\n  jumpi\n  0x00\n  dup1\n  revert\ntag_1:\n  pop\n  mload(0x40)\n  sub(codesize, bytecodeSize)\n  dup1\n  bytecodeSize\n  dup4\n  codecopy\n  dup2\n  dup2\n  add\n  0x40\n  mstore\n  dup2\n  add\n  swap1\n  tag_2\n  swap2\n  swap1\n  tag_3\n  jump\t// in\ntag_2:\n    /* \"contracts/test4/WETH_LP.sol\":534:539  _weth */\n  dup3\n    /* \"contracts/test4/WETH_LP.sol\":527:531  weth */\n  0x00\n  dup1\n    /* \"contracts/test4/WETH_LP.sol\":527:539  weth = _weth */\n  0x0100\n  exp\n  dup2\n  sload\n  dup2\n  0xffffffffffffffffffffffffffffffffffffffff\n  mul\n  not\n  and\n  swap1\n  dup4\n  0xffffffffffffffffffffffffffffffffffffffff\n  and\n  mul\n  or\n  swap1\n  sstore\n  pop\n    /* \"contracts/test4/WETH_LP.sol\":557:563  _token */\n  dup2\n    /* \"contracts/test4/WETH_LP.sol\":549:554  token */\n  0x01\n  0x00\n    /* \"contracts/test4/WETH_LP.sol\":549:563  token = _token */\n  0x0100\n  exp\n  dup2\n  sload\n  dup2\n  0xffffffffffffffffffffffffffffffffffffffff\n  mul\n  not\n  and\n  swap1\n  dup4\n  0xffffffffffffffffffffffffffffffffffffffff\n  and\n  mul\n  or\n  swap1\n  sstore\n  pop\n    /* \"contracts/test4/WETH_LP.sol\":589:603  _serviceChange */\n  dup1\n    /* \"contracts/test4/WETH_LP.sol\":573:586  serviceChange */\n  0x01\n  0x14\n    /* \"contracts/test4/WETH_LP.sol\":573:603  serviceChange = _serviceChange */\n  0x0100\n  exp\n  dup2\n  sload\n  dup2\n  0xffff\n  mul\n  not\n  and\n  swap1\n  dup4\n  0xffff\n  and\n  mul\n  or\n  swap1\n  sstore\n  pop\n    /* \"contracts/test4/WETH_LP.sol\":451:610  constructor(address _weth, address _token, uint16 _serviceChange) {... */\n  pop\n  pop\n  pop\n    /* \"contracts/test4/WETH_LP.sol\":213:3168  contract WETH_LP {... */\n  jump(tag_6)\n    /* \"#utility.yul\":88:205   */\ntag_8:\n    /* \"#utility.yul\":197:198   */\n  0x00\n    /* \"#utility.yul\":194:195   */\n  dup1\n    /* \"#utility.yul\":187:199   */\n  revert\n    /* \"#utility.yul\":334:460   */\ntag_10:\n    /* \"#utility.yul\":371:378   */\n  0x00\n    /* \"#utility.yul\":411:453   */\n  0xffffffffffffffffffffffffffffffffffffffff\n    /* \"#utility.yul\":404:409   */\n  dup3\n    /* \"#utility.yul\":400:454   */\n  and\n    /* \"#utility.yul\":389:454   */\n  swap1\n  pop\n    /* \"#utility.yul\":334:460   */\n  swap2\n  swap1\n  pop\n  jump\t// out\n    /* \"#utility.yul\":466:562   */\ntag_11:\n    /* \"#utility.yul\":503:510   */\n  0x00\n    /* \"#utility.yul\":532:556   */\n  tag_23\n    /* \"#utility.yul\":550:555   */\n  dup3\n    /* \"#utility.yul\":532:556   */\n  tag_10\n  jump\t// in\ntag_23:\n    /* \"#utility.yul\":521:556   */\n  swap1\n  pop\n    /* \"#utility.yul\":466:562   */\n  swap2\n  swap1\n  pop\n  jump\t// out\n    /* \"#utility.yul\":568:690   */\ntag_12:\n    /* \"#utility.yul\":641:665   */\n  tag_25\n    /* \"#utility.yul\":659:664   */\n  dup2\n    /* \"#utility.yul\":641:665   */\n  tag_11\n  jump\t// in\ntag_25:\n    /* \"#utility.yul\":634:639   */\n  dup2\n    /* \"#utility.yul\":631:666   */\n  eq\n    /* \"#utility.yul\":621:684   */\n  tag_26\n  jumpi\n    /* \"#utility.yul\":680:681   */\n  0x00\n    /* \"#utility.yul\":677:678   */\n  dup1\n    /* \"#utility.yul\":670:682   */\n  revert\n    /* \"#utility.yul\":621:684   */\ntag_26:\n    /* \"#utility.yul\":568:690   */\n  pop\n  jump\t// out\n    /* \"#utility.yul\":696:839   */\ntag_13:\n    /* \"#utility.yul\":753:758   */\n  0x00\n    /* \"#utility.yul\":784:790   */\n  dup2\n    /* \"#utility.yul\":778:791   */\n  mload\n    /* \"#utility.yul\":769:791   */\n  swap1\n  pop\n    /* \"#utility.yul\":800:833   */\n  tag_28\n    /* \"#utility.yul\":827:832   */\n  dup2\n    /* \"#utility.yul\":800:833   */\n  tag_12\n  jump\t// in\ntag_28:\n    /* \"#utility.yul\":696:839   */\n  swap3\n  swap2\n  pop\n  pop\n  jump\t// out\n    /* \"#utility.yul\":845:934   */\ntag_14:\n    /* \"#utility.yul\":881:888   */\n  0x00\n    /* \"#utility.yul\":921:927   */\n  0xffff\n    /* \"#utility.yul\":914:919   */\n  dup3\n    /* \"#utility.yul\":910:928   */\n  and\n    /* \"#utility.yul\":899:928   */\n  swap1\n  pop\n    /* \"#utility.yul\":845:934   */\n  swap2\n  swap1\n  pop\n  jump\t// out\n    /* \"#utility.yul\":940:1060   */\ntag_15:\n    /* \"#utility.yul\":1012:1035   */\n  tag_31\n    /* \"#utility.yul\":1029:1034   */\n  dup2\n    /* \"#utility.yul\":1012:1035   */\n  tag_14\n  jump\t// in\ntag_31:\n    /* \"#utility.yul\":1005:1010   */\n  dup2\n    /* \"#utility.yul\":1002:1036   */\n  eq\n    /* \"#utility.yul\":992:1054   */\n  tag_32\n  jumpi\n    /* \"#utility.yul\":1050:1051   */\n  0x00\n    /* \"#utility.yul\":1047:1048   */\n  dup1\n    /* \"#utility.yul\":1040:1052   */\n  revert\n    /* \"#utility.yul\":992:1054   */\ntag_32:\n    /* \"#utility.yul\":940:1060   */\n  pop\n  jump\t// out\n    /* \"#utility.yul\":1066:1207   */\ntag_16:\n    /* \"#utility.yul\":1122:1127   */\n  0x00\n    /* \"#utility.yul\":1153:1159   */\n  dup2\n    /* \"#utility.yul\":1147:1160   */\n  mload\n    /* \"#utility.yul\":1138:1160   */\n  swap1\n  pop\n    /* \"#utility.yul\":1169:1201   */\n  tag_34\n    /* \"#utility.yul\":1195:1200   */\n  dup2\n    /* \"#utility.yul\":1169:1201   */\n  tag_15\n  jump\t// in\ntag_34:\n    /* \"#utility.yul\":1066:1207   */\n  swap3\n  swap2\n  pop\n  pop\n  jump\t// out\n    /* \"#utility.yul\":1213:1874   */\ntag_3:\n    /* \"#utility.yul\":1300:1306   */\n  0x00\n    /* \"#utility.yul\":1308:1314   */\n  dup1\n    /* \"#utility.yul\":1316:1322   */\n  0x00\n    /* \"#utility.yul\":1365:1367   */\n  0x60\n    /* \"#utility.yul\":1353:1362   */\n  dup5\n    /* \"#utility.yul\":1344:1351   */\n  dup7\n    /* \"#utility.yul\":1340:1363   */\n  sub\n    /* \"#utility.yul\":1336:1368   */\n  slt\n    /* \"#utility.yul\":1333:1452   */\n  iszero\n  tag_36\n  jumpi\n    /* \"#utility.yul\":1371:1450   */\n  tag_37\n  tag_8\n  jump\t// in\ntag_37:\n    /* \"#utility.yul\":1333:1452   */\ntag_36:\n    /* \"#utility.yul\":1491:1492   */\n  0x00\n    /* \"#utility.yul\":1516:1580   */\n  tag_38\n    /* \"#utility.yul\":1572:1579   */\n  dup7\n    /* \"#utility.yul\":1563:1569   */\n  dup3\n    /* \"#utility.yul\":1552:1561   */\n  dup8\n    /* \"#utility.yul\":1548:1570   */\n  add\n    /* \"#utility.yul\":1516:1580   */\n  tag_13\n  jump\t// in\ntag_38:\n    /* \"#utility.yul\":1506:1580   */\n  swap4\n  pop\n    /* \"#utility.yul\":1462:1590   */\n  pop\n    /* \"#utility.yul\":1629:1631   */\n  0x20\n    /* \"#utility.yul\":1655:1719   */\n  tag_39\n    /* \"#utility.yul\":1711:1718   */\n  dup7\n    /* \"#utility.yul\":1702:1708   */\n  dup3\n    /* \"#utility.yul\":1691:1700   */\n  dup8\n    /* \"#utility.yul\":1687:1709   */\n  add\n    /* \"#utility.yul\":1655:1719   */\n  tag_13\n  jump\t// in\ntag_39:\n    /* \"#utility.yul\":1645:1719   */\n  swap3\n  pop\n    /* \"#utility.yul\":1600:1729   */\n  pop\n    /* \"#utility.yul\":1768:1770   */\n  0x40\n    /* \"#utility.yul\":1794:1857   */\n  tag_40\n    /* \"#utility.yul\":1849:1856   */\n  dup7\n    /* \"#utility.yul\":1840:1846   */\n  dup3\n    /* \"#utility.yul\":1829:1838   */\n  dup8\n    /* \"#utility.yul\":1825:1847   */\n  add\n    /* \"#utility.yul\":1794:1857   */\n  tag_16\n  jump\t// in\ntag_40:\n    /* \"#utility.yul\":1784:1857   */\n  swap2\n  pop\n    /* \"#utility.yul\":1739:1867   */\n  pop\n    /* \"#utility.yul\":1213:1874   */\n  swap3\n  pop\n  swap3\n  pop\n  swap3\n  jump\t// out\n    /* \"contracts/test4/WETH_LP.sol\":213:3168  contract WETH_LP {... */\ntag_6:\n  dataSize(sub_0)\n  dup1\n  dataOffset(sub_0)\n  0x00\n  codecopy\n  0x00\n  return\nstop\n\nsub_0: assembly {\n        /* \"contracts/test4/WETH_LP.sol\":213:3168  contract WETH_LP {... */\n      mstore(0x40, 0x80)\n      jumpi(tag_1, lt(calldatasize, 0x04))\n      shr(0xe0, calldataload(0x00))\n      dup1\n      0x9cd441da\n      gt\n      tag_11\n      jumpi\n      dup1\n      0x9cd441da\n      eq\n      tag_6\n      jumpi\n      dup1\n      0xb8c876b1\n      eq\n      tag_7\n      jumpi\n      dup1\n      0xcaffdf44\n      eq\n      tag_8\n      jumpi\n      dup1\n      0xfb840c82\n      eq\n      tag_9\n      jumpi\n      dup1\n      0xfc0c546a\n      eq\n      tag_10\n      jumpi\n      jump(tag_1)\n    tag_11:\n      dup1\n      0x15770f92\n      eq\n      tag_2\n      jumpi\n      dup1\n      0x15d3eadd\n      eq\n      tag_3\n      jumpi\n      dup1\n      0x3fc8cef3\n      eq\n      tag_4\n      jumpi\n      dup1\n      0x9c8f9f23\n      eq\n      tag_5\n      jumpi\n    tag_1:\n      0x00\n      dup1\n      revert\n        /* \"contracts/test4/WETH_LP.sol\":371:397  uint public totalLiquidity */\n    tag_2:\n      callvalue\n      dup1\n      iszero\n      tag_12\n      jumpi\n      0x00\n      dup1\n      revert\n    tag_12:\n      pop\n      tag_13\n      tag_14\n      jump\t// in\n    tag_13:\n      mload(0x40)\n      tag_15\n      swap2\n      swap1\n      tag_16\n      jump\t// in\n    tag_15:\n      mload(0x40)\n      dup1\n      swap2\n      sub\n      swap1\n      return\n        /* \"contracts/test4/WETH_LP.sol\":1851:2328  function swapWETHForToken(uint _wethAmount) external {... */\n    tag_3:\n      callvalue\n      dup1\n      iszero\n      tag_17\n      jumpi\n      0x00\n      dup1\n      revert\n    tag_17:\n      pop\n      tag_18\n      0x04\n      dup1\n      calldatasize\n      sub\n      dup2\n      add\n      swap1\n      tag_19\n      swap2\n      swap1\n      tag_20\n      jump\t// in\n    tag_19:\n      tag_21\n      jump\t// in\n    tag_18:\n      stop\n        /* \"contracts/test4/WETH_LP.sol\":236:255  address public weth */\n    tag_4:\n      callvalue\n      dup1\n      iszero\n      tag_22\n      jumpi\n      0x00\n      dup1\n      revert\n    tag_22:\n      pop\n      tag_23\n      tag_24\n      jump\t// in\n    tag_23:\n      mload(0x40)\n      tag_25\n      swap2\n      swap1\n      tag_26\n      jump\t// in\n    tag_25:\n      mload(0x40)\n      dup1\n      swap2\n      sub\n      swap1\n      return\n        /* \"contracts/test4/WETH_LP.sol\":1338:1845  function removeLiquidity(uint _amount) external {... */\n    tag_5:\n      callvalue\n      dup1\n      iszero\n      tag_27\n      jumpi\n      0x00\n      dup1\n      revert\n    tag_27:\n      pop\n      tag_28\n      0x04\n      dup1\n      calldatasize\n      sub\n      dup2\n      add\n      swap1\n      tag_29\n      swap2\n      swap1\n      tag_20\n      jump\t// in\n    tag_29:\n      tag_30\n      jump\t// in\n    tag_28:\n      stop\n        /* \"contracts/test4/WETH_LP.sol\":636:1332  function addLiquidity(uint _wethAmount, uint _tokenAmount) external payable {... */\n    tag_6:\n      tag_31\n      0x04\n      dup1\n      calldatasize\n      sub\n      dup2\n      add\n      swap1\n      tag_32\n      swap2\n      swap1\n      tag_33\n      jump\t// in\n    tag_32:\n      tag_34\n      jump\t// in\n    tag_31:\n      stop\n        /* \"contracts/test4/WETH_LP.sol\":403:444  mapping(address => uint) public liquidity */\n    tag_7:\n      callvalue\n      dup1\n      iszero\n      tag_35\n      jumpi\n      0x00\n      dup1\n      revert\n    tag_35:\n      pop\n      tag_36\n      0x04\n      dup1\n      calldatasize\n      sub\n      dup2\n      add\n      swap1\n      tag_37\n      swap2\n      swap1\n      tag_38\n      jump\t// in\n    tag_37:\n      tag_39\n      jump\t// in\n    tag_36:\n      mload(0x40)\n      tag_40\n      swap2\n      swap1\n      tag_16\n      jump\t// in\n    tag_40:\n      mload(0x40)\n      dup1\n      swap2\n      sub\n      swap1\n      return\n        /* \"contracts/test4/WETH_LP.sol\":2334:2813  function swapTokenForWETH(uint _tokenAmount) external {... */\n    tag_8:\n      callvalue\n      dup1\n      iszero\n      tag_41\n      jumpi\n      0x00\n      dup1\n      revert\n    tag_41:\n      pop\n      tag_42\n      0x04\n      dup1\n      calldatasize\n      sub\n      dup2\n      add\n      swap1\n      tag_43\n      swap2\n      swap1\n      tag_20\n      jump\t// in\n    tag_43:\n      tag_44\n      jump\t// in\n    tag_42:\n      stop\n        /* \"contracts/test4/WETH_LP.sol\":337:364  uint16 public serviceChange */\n    tag_9:\n      callvalue\n      dup1\n      iszero\n      tag_45\n      jumpi\n      0x00\n      dup1\n      revert\n    tag_45:\n      pop\n      tag_46\n      tag_47\n      jump\t// in\n    tag_46:\n      mload(0x40)\n      tag_48\n      swap2\n      swap1\n      tag_49\n      jump\t// in\n    tag_48:\n      mload(0x40)\n      dup1\n      swap2\n      sub\n      swap1\n      return\n        /* \"contracts/test4/WETH_LP.sol\":261:281  address public token */\n    tag_10:\n      callvalue\n      dup1\n      iszero\n      tag_50\n      jumpi\n      0x00\n      dup1\n      revert\n    tag_50:\n      pop\n      tag_51\n      tag_52\n      jump\t// in\n    tag_51:\n      mload(0x40)\n      tag_53\n      swap2\n      swap1\n      tag_26\n      jump\t// in\n    tag_53:\n      mload(0x40)\n      dup1\n      swap2\n      sub\n      swap1\n      return\n        /* \"contracts/test4/WETH_LP.sol\":371:397  uint public totalLiquidity */\n    tag_14:\n      sload(0x02)\n      dup2\n      jump\t// out\n        /* \"contracts/test4/WETH_LP.sol\":1851:2328  function swapWETHForToken(uint _wethAmount) external {... */\n    tag_21:\n        /* \"contracts/test4/WETH_LP.sol\":1936:1937  0 */\n      0x00\n        /* \"contracts/test4/WETH_LP.sol\":1922:1933  _wethAmount */\n      dup2\n        /* \"contracts/test4/WETH_LP.sol\":1922:1937  _wethAmount > 0 */\n      gt\n        /* \"contracts/test4/WETH_LP.sol\":1914:1957  require(_wethAmount > 0, \"Invalid amounts\") */\n      tag_55\n      jumpi\n      mload(0x40)\n      0x08c379a000000000000000000000000000000000000000000000000000000000\n      dup2\n      mstore\n      0x04\n      add\n      tag_56\n      swap1\n      tag_57\n      jump\t// in\n    tag_56:\n      mload(0x40)\n      dup1\n      swap2\n      sub\n      swap1\n      revert\n    tag_55:\n        /* \"contracts/test4/WETH_LP.sol\":1976:1992  uint wethReserve */\n      0x00\n        /* \"contracts/test4/WETH_LP.sol\":2001:2005  weth */\n      dup1\n      0x00\n      swap1\n      sload\n      swap1\n      0x0100\n      exp\n      swap1\n      div\n      0xffffffffffffffffffffffffffffffffffffffff\n      and\n        /* \"contracts/test4/WETH_LP.sol\":1995:2016  IWETH(weth).balanceOf */\n      0xffffffffffffffffffffffffffffffffffffffff\n      and\n      0x70a08231\n        /* \"contracts/test4/WETH_LP.sol\":2025:2029  this */\n      address\n        /* \"contracts/test4/WETH_LP.sol\":1995:2031  IWETH(weth).balanceOf(address(this)) */\n      mload(0x40)\n      dup3\n      0xffffffff\n      and\n      0xe0\n      shl\n      dup2\n      mstore\n      0x04\n      add\n      tag_58\n      swap2\n      swap1\n      tag_26\n      jump\t// in\n    tag_58:\n      0x20\n      mload(0x40)\n      dup1\n      dup4\n      sub\n      dup2\n      dup7\n      gas\n      staticcall\n      iszero\n      dup1\n      iszero\n      tag_60\n      jumpi\n      returndatasize\n      0x00\n      dup1\n      returndatacopy\n      revert(0x00, returndatasize)\n    tag_60:\n      pop\n      pop\n      pop\n      pop\n      mload(0x40)\n      returndatasize\n      not(0x1f)\n      0x1f\n      dup3\n      add\n      and\n      dup3\n      add\n      dup1\n      0x40\n      mstore\n      pop\n      dup2\n      add\n      swap1\n      tag_61\n      swap2\n      swap1\n      tag_62\n      jump\t// in\n    tag_61:\n        /* \"contracts/test4/WETH_LP.sol\":1976:2031  uint wethReserve = IWETH(weth).balanceOf(address(this)) */\n      swap1\n      pop\n        /* \"contracts/test4/WETH_LP.sol\":2041:2058  uint tokenReserve */\n      0x00\n        /* \"contracts/test4/WETH_LP.sol\":2068:2073  token */\n      0x01\n      0x00\n      swap1\n      sload\n      swap1\n      0x0100\n      exp\n      swap1\n      div\n      0xffffffffffffffffffffffffffffffffffffffff\n      and\n        /* \"contracts/test4/WETH_LP.sol\":2061:2084  IERC20(token).balanceOf */\n      0xffffffffffffffffffffffffffffffffffffffff\n      and\n      0x70a08231\n        /* \"contracts/test4/WETH_LP.sol\":2093:2097  this */\n      address\n        /* \"contracts/test4/WETH_LP.sol\":2061:2099  IERC20(token).balanceOf(address(this)) */\n      mload(0x40)\n      dup3\n      0xffffffff\n      and\n      0xe0\n      shl\n      dup2\n      mstore\n      0x04\n      add\n      tag_63\n      swap2\n      swap1\n      tag_26\n      jump\t// in\n    tag_63:\n      0x20\n      mload(0x40)\n      dup1\n      dup4\n      sub\n      dup2\n      dup7\n      gas\n      staticcall\n      iszero\n      dup1\n      iszero\n      tag_65\n      jumpi\n      returndatasize\n      0x00\n      dup1\n      returndatacopy\n      revert(0x00, returndatasize)\n    tag_65:\n      pop\n      pop\n      pop\n      pop\n      mload(0x40)\n      returndatasize\n      not(0x1f)\n      0x1f\n      dup3\n      add\n      and\n      dup3\n      add\n      dup1\n      0x40\n      mstore\n      pop\n      dup2\n      add\n      swap1\n      tag_66\n      swap2\n      swap1\n      tag_62\n      jump\t// in\n    tag_66:\n        /* \"contracts/test4/WETH_LP.sol\":2041:2099  uint tokenReserve = IERC20(token).balanceOf(address(this)) */\n      swap1\n      pop\n        /* \"contracts/test4/WETH_LP.sol\":2118:2134  uint tokenAmount */\n      0x00\n        /* \"contracts/test4/WETH_LP.sol\":2137:2189  getAmountOut(_wethAmount, wethReserve, tokenReserve) */\n      tag_67\n        /* \"contracts/test4/WETH_LP.sol\":2150:2161  _wethAmount */\n      dup5\n        /* \"contracts/test4/WETH_LP.sol\":2163:2174  wethReserve */\n      dup5\n        /* \"contracts/test4/WETH_LP.sol\":2176:2188  tokenReserve */\n      dup5\n        /* \"contracts/test4/WETH_LP.sol\":2137:2149  getAmountOut */\n      tag_68\n        /* \"contracts/test4/WETH_LP.sol\":2137:2189  getAmountOut(_wethAmount, wethReserve, tokenReserve) */\n      jump\t// in\n    tag_67:\n        /* \"contracts/test4/WETH_LP.sol\":2118:2189  uint tokenAmount = getAmountOut(_wethAmount, wethReserve, tokenReserve) */\n      swap1\n      pop\n        /* \"contracts/test4/WETH_LP.sol\":2206:2210  weth */\n      0x00\n      dup1\n      sload\n      swap1\n      0x0100\n      exp\n      swap1\n      div\n      0xffffffffffffffffffffffffffffffffffffffff\n      and\n        /* \"contracts/test4/WETH_LP.sol\":2200:2224  IWETH(weth).transferFrom */\n      0xffffffffffffffffffffffffffffffffffffffff\n      and\n      0x23b872dd\n        /* \"contracts/test4/WETH_LP.sol\":2225:2235  msg.sender */\n      caller\n        /* \"contracts/test4/WETH_LP.sol\":2245:2249  this */\n      address\n        /* \"contracts/test4/WETH_LP.sol\":2252:2263  _wethAmount */\n      dup8\n        /* \"contracts/test4/WETH_LP.sol\":2200:2264  IWETH(weth).transferFrom(msg.sender, address(this), _wethAmount) */\n      mload(0x40)\n      dup5\n      0xffffffff\n      and\n      0xe0\n      shl\n      dup2\n      mstore\n      0x04\n      add\n      tag_69\n      swap4\n      swap3\n      swap2\n      swap1\n      tag_70\n      jump\t// in\n    tag_69:\n      0x20\n      mload(0x40)\n      dup1\n      dup4\n      sub\n      dup2\n      0x00\n      dup8\n      gas\n      call\n      iszero\n      dup1\n      iszero\n      tag_72\n      jumpi\n      returndatasize\n      0x00\n      dup1\n      returndatacopy\n      revert(0x00, returndatasize)\n    tag_72:\n      pop\n      pop\n      pop\n      pop\n      mload(0x40)\n      returndatasize\n      not(0x1f)\n      0x1f\n      dup3\n      add\n      and\n      dup3\n      add\n      dup1\n      0x40\n      mstore\n      pop\n      dup2\n      add\n      swap1\n      tag_73\n      swap2\n      swap1\n      tag_74\n      jump\t// in\n    tag_73:\n      pop\n        /* \"contracts/test4/WETH_LP.sol\":2281:2286  token */\n      0x01\n      0x00\n      swap1\n      sload\n      swap1\n      0x0100\n      exp\n      swap1\n      div\n      0xffffffffffffffffffffffffffffffffffffffff\n      and\n        /* \"contracts/test4/WETH_LP.sol\":2274:2296  IERC20(token).transfer */\n      0xffffffffffffffffffffffffffffffffffffffff\n      and\n      0xa9059cbb\n        /* \"contracts/test4/WETH_LP.sol\":2297:2307  msg.sender */\n      caller\n        /* \"contracts/test4/WETH_LP.sol\":2309:2320  tokenAmount */\n      dup4\n        /* \"contracts/test4/WETH_LP.sol\":2274:2321  IERC20(token).transfer(msg.sender, tokenAmount) */\n      mload(0x40)\n      dup4\n      0xffffffff\n      and\n      0xe0\n      shl\n      dup2\n      mstore\n      0x04\n      add\n      tag_75\n      swap3\n      swap2\n      swap1\n      tag_76\n      jump\t// in\n    tag_75:\n      0x20\n      mload(0x40)\n      dup1\n      dup4\n      sub\n      dup2\n      0x00\n      dup8\n      gas\n      call\n      iszero\n      dup1\n      iszero\n      tag_78\n      jumpi\n      returndatasize\n      0x00\n      dup1\n      returndatacopy\n      revert(0x00, returndatasize)\n    tag_78:\n      pop\n      pop\n      pop\n      pop\n      mload(0x40)\n      returndatasize\n      not(0x1f)\n      0x1f\n      dup3\n      add\n      and\n      dup3\n      add\n      dup1\n      0x40\n      mstore\n      pop\n      dup2\n      add\n      swap1\n      tag_79\n      swap2\n      swap1\n      tag_74\n      jump\t// in\n    tag_79:\n      pop\n        /* \"contracts/test4/WETH_LP.sol\":1904:2328  {... */\n      pop\n      pop\n      pop\n        /* \"contracts/test4/WETH_LP.sol\":1851:2328  function swapWETHForToken(uint _wethAmount) external {... */\n      pop\n      jump\t// out\n        /* \"contracts/test4/WETH_LP.sol\":236:255  address public weth */\n    tag_24:\n      0x00\n      dup1\n      sload\n      swap1\n      0x0100\n      exp\n      swap1\n      div\n      0xffffffffffffffffffffffffffffffffffffffff\n      and\n      dup2\n      jump\t// out\n        /* \"contracts/test4/WETH_LP.sol\":1338:1845  function removeLiquidity(uint _amount) external {... */\n    tag_30:\n        /* \"contracts/test4/WETH_LP.sol\":1429:1436  _amount */\n      dup1\n        /* \"contracts/test4/WETH_LP.sol\":1404:1413  liquidity */\n      0x03\n        /* \"contracts/test4/WETH_LP.sol\":1404:1425  liquidity[msg.sender] */\n      0x00\n        /* \"contracts/test4/WETH_LP.sol\":1414:1424  msg.sender */\n      caller\n        /* \"contracts/test4/WETH_LP.sol\":1404:1425  liquidity[msg.sender] */\n      0xffffffffffffffffffffffffffffffffffffffff\n      and\n      0xffffffffffffffffffffffffffffffffffffffff\n      and\n      dup2\n      mstore\n      0x20\n      add\n      swap1\n      dup2\n      mstore\n      0x20\n      add\n      0x00\n      keccak256\n      sload\n        /* \"contracts/test4/WETH_LP.sol\":1404:1436  liquidity[msg.sender] >= _amount */\n      lt\n      iszero\n        /* \"contracts/test4/WETH_LP.sol\":1396:1463  require(liquidity[msg.sender] >= _amount, \"user has not enough lp\") */\n      tag_81\n      jumpi\n      mload(0x40)\n      0x08c379a000000000000000000000000000000000000000000000000000000000\n      dup2\n      mstore\n      0x04\n      add\n      tag_82\n      swap1\n      tag_83\n      jump\t// in\n    tag_82:\n      mload(0x40)\n      dup1\n      swap2\n      sub\n      swap1\n      revert\n    tag_81:\n        /* \"contracts/test4/WETH_LP.sol\":1474:1489  uint wethAmount */\n      0x00\n        /* \"contracts/test4/WETH_LP.sol\":1541:1555  totalLiquidity */\n      sload(0x02)\n        /* \"contracts/test4/WETH_LP.sol\":1508:1512  weth */\n      0x00\n      dup1\n      sload\n      swap1\n      0x0100\n      exp\n      swap1\n      div\n      0xffffffffffffffffffffffffffffffffffffffff\n      and\n        /* \"contracts/test4/WETH_LP.sol\":1502:1523  IWETH(weth).balanceOf */\n      0xffffffffffffffffffffffffffffffffffffffff\n      and\n      0x70a08231\n        /* \"contracts/test4/WETH_LP.sol\":1532:1536  this */\n      address\n        /* \"contracts/test4/WETH_LP.sol\":1502:1538  IWETH(weth).balanceOf(address(this)) */\n      mload(0x40)\n      dup3\n      0xffffffff\n      and\n      0xe0\n      shl\n      dup2\n      mstore\n      0x04\n      add\n      tag_84\n      swap2\n      swap1\n      tag_26\n      jump\t// in\n    tag_84:\n      0x20\n      mload(0x40)\n      dup1\n      dup4\n      sub\n      dup2\n      dup7\n      gas\n      staticcall\n      iszero\n      dup1\n      iszero\n      tag_86\n      jumpi\n      returndatasize\n      0x00\n      dup1\n      returndatacopy\n      revert(0x00, returndatasize)\n    tag_86:\n      pop\n      pop\n      pop\n      pop\n      mload(0x40)\n      returndatasize\n      not(0x1f)\n      0x1f\n      dup3\n      add\n      and\n      dup3\n      add\n      dup1\n      0x40\n      mstore\n      pop\n      dup2\n      add\n      swap1\n      tag_87\n      swap2\n      swap1\n      tag_62\n      jump\t// in\n    tag_87:\n        /* \"contracts/test4/WETH_LP.sol\":1492:1499  _amount */\n      dup4\n        /* \"contracts/test4/WETH_LP.sol\":1492:1538  _amount * IWETH(weth).balanceOf(address(this)) */\n      tag_88\n      swap2\n      swap1\n      tag_89\n      jump\t// in\n    tag_88:\n        /* \"contracts/test4/WETH_LP.sol\":1492:1555  _amount * IWETH(weth).balanceOf(address(this)) / totalLiquidity */\n      tag_90\n      swap2\n      swap1\n      tag_91\n      jump\t// in\n    tag_90:\n        /* \"contracts/test4/WETH_LP.sol\":1474:1555  uint wethAmount = _amount * IWETH(weth).balanceOf(address(this)) / totalLiquidity */\n      swap1\n      pop\n        /* \"contracts/test4/WETH_LP.sol\":1565:1581  uint tokenAmount */\n      0x00\n        /* \"contracts/test4/WETH_LP.sol\":1635:1649  totalLiquidity */\n      sload(0x02)\n        /* \"contracts/test4/WETH_LP.sol\":1601:1606  token */\n      0x01\n      0x00\n      swap1\n      sload\n      swap1\n      0x0100\n      exp\n      swap1\n      div\n      0xffffffffffffffffffffffffffffffffffffffff\n      and\n        /* \"contracts/test4/WETH_LP.sol\":1594:1617  IERC20(token).balanceOf */\n      0xffffffffffffffffffffffffffffffffffffffff\n      and\n      0x70a08231\n        /* \"contracts/test4/WETH_LP.sol\":1626:1630  this */\n      address\n        /* \"contracts/test4/WETH_LP.sol\":1594:1632  IERC20(token).balanceOf(address(this)) */\n      mload(0x40)\n      dup3\n      0xffffffff\n      and\n      0xe0\n      shl\n      dup2\n      mstore\n      0x04\n      add\n      tag_92\n      swap2\n      swap1\n      tag_26\n      jump\t// in\n    tag_92:\n      0x20\n      mload(0x40)\n      dup1\n      dup4\n      sub\n      dup2\n      dup7\n      gas\n      staticcall\n      iszero\n      dup1\n      iszero\n      tag_94\n      jumpi\n      returndatasize\n      0x00\n      dup1\n      returndatacopy\n      revert(0x00, returndatasize)\n    tag_94:\n      pop\n      pop\n      pop\n      pop\n      mload(0x40)\n      returndatasize\n      not(0x1f)\n      0x1f\n      dup3\n      add\n      and\n      dup3\n      add\n      dup1\n      0x40\n      mstore\n      pop\n      dup2\n      add\n      swap1\n      tag_95\n      swap2\n      swap1\n      tag_62\n      jump\t// in\n    tag_95:\n        /* \"contracts/test4/WETH_LP.sol\":1584:1591  _amount */\n      dup5\n        /* \"contracts/test4/WETH_LP.sol\":1584:1632  _amount * IERC20(token).balanceOf(address(this)) */\n      tag_96\n      swap2\n      swap1\n      tag_89\n      jump\t// in\n    tag_96:\n        /* \"contracts/test4/WETH_LP.sol\":1584:1649  _amount * IERC20(token).balanceOf(address(this)) / totalLiquidity */\n      tag_97\n      swap2\n      swap1\n      tag_91\n      jump\t// in\n    tag_97:\n        /* \"contracts/test4/WETH_LP.sol\":1565:1649  uint tokenAmount = _amount * IERC20(token).balanceOf(address(this)) / totalLiquidity */\n      swap1\n      pop\n        /* \"contracts/test4/WETH_LP.sol\":1684:1691  _amount */\n      dup3\n        /* \"contracts/test4/WETH_LP.sol\":1659:1668  liquidity */\n      0x03\n        /* \"contracts/test4/WETH_LP.sol\":1659:1680  liquidity[msg.sender] */\n      0x00\n        /* \"contracts/test4/WETH_LP.sol\":1669:1679  msg.sender */\n      caller\n        /* \"contracts/test4/WETH_LP.sol\":1659:1680  liquidity[msg.sender] */\n      0xffffffffffffffffffffffffffffffffffffffff\n      and\n      0xffffffffffffffffffffffffffffffffffffffff\n      and\n      dup2\n      mstore\n      0x20\n      add\n      swap1\n      dup2\n      mstore\n      0x20\n      add\n      0x00\n      keccak256\n      0x00\n        /* \"contracts/test4/WETH_LP.sol\":1659:1691  liquidity[msg.sender] -= _amount */\n      dup3\n      dup3\n      sload\n      tag_98\n      swap2\n      swap1\n      tag_99\n      jump\t// in\n    tag_98:\n      swap3\n      pop\n      pop\n      dup2\n      swap1\n      sstore\n      pop\n        /* \"contracts/test4/WETH_LP.sol\":1719:1726  _amount */\n      dup3\n        /* \"contracts/test4/WETH_LP.sol\":1701:1715  totalLiquidity */\n      0x02\n      0x00\n        /* \"contracts/test4/WETH_LP.sol\":1701:1726  totalLiquidity -= _amount */\n      dup3\n      dup3\n      sload\n      tag_100\n      swap2\n      swap1\n      tag_99\n      jump\t// in\n    tag_100:\n      swap3\n      pop\n      pop\n      dup2\n      swap1\n      sstore\n      pop\n        /* \"contracts/test4/WETH_LP.sol\":1743:1747  weth */\n      0x00\n      dup1\n      sload\n      swap1\n      0x0100\n      exp\n      swap1\n      div\n      0xffffffffffffffffffffffffffffffffffffffff\n      and\n        /* \"contracts/test4/WETH_LP.sol\":1737:1757  IWETH(weth).transfer */\n      0xffffffffffffffffffffffffffffffffffffffff\n      and\n      0xa9059cbb\n        /* \"contracts/test4/WETH_LP.sol\":1758:1768  msg.sender */\n      caller\n        /* \"contracts/test4/WETH_LP.sol\":1770:1780  wethAmount */\n      dup5\n        /* \"contracts/test4/WETH_LP.sol\":1737:1781  IWETH(weth).transfer(msg.sender, wethAmount) */\n      mload(0x40)\n      dup4\n      0xffffffff\n      and\n      0xe0\n      shl\n      dup2\n      mstore\n      0x04\n      add\n      tag_101\n      swap3\n      swap2\n      swap1\n      tag_76\n      jump\t// in\n    tag_101:\n      0x20\n      mload(0x40)\n      dup1\n      dup4\n      sub\n      dup2\n      0x00\n      dup8\n      gas\n      call\n      iszero\n      dup1\n      iszero\n      tag_103\n      jumpi\n      returndatasize\n      0x00\n      dup1\n      returndatacopy\n      revert(0x00, returndatasize)\n    tag_103:\n      pop\n      pop\n      pop\n      pop\n      mload(0x40)\n      returndatasize\n      not(0x1f)\n      0x1f\n      dup3\n      add\n      and\n      dup3\n      add\n      dup1\n      0x40\n      mstore\n      pop\n      dup2\n      add\n      swap1\n      tag_104\n      swap2\n      swap1\n      tag_74\n      jump\t// in\n    tag_104:\n      pop\n        /* \"contracts/test4/WETH_LP.sol\":1798:1803  token */\n      0x01\n      0x00\n      swap1\n      sload\n      swap1\n      0x0100\n      exp\n      swap1\n      div\n      0xffffffffffffffffffffffffffffffffffffffff\n      and\n        /* \"contracts/test4/WETH_LP.sol\":1791:1813  IERC20(token).transfer */\n      0xffffffffffffffffffffffffffffffffffffffff\n      and\n      0xa9059cbb\n        /* \"contracts/test4/WETH_LP.sol\":1814:1824  msg.sender */\n      caller\n        /* \"contracts/test4/WETH_LP.sol\":1826:1837  tokenAmount */\n      dup4\n        /* \"contracts/test4/WETH_LP.sol\":1791:1838  IERC20(token).transfer(msg.sender, tokenAmount) */\n      mload(0x40)\n      dup4\n      0xffffffff\n      and\n      0xe0\n      shl\n      dup2\n      mstore\n      0x04\n      add\n      tag_105\n      swap3\n      swap2\n      swap1\n      tag_76\n      jump\t// in\n    tag_105:\n      0x20\n      mload(0x40)\n      dup1\n      dup4\n      sub\n      dup2\n      0x00\n      dup8\n      gas\n      call\n      iszero\n      dup1\n      iszero\n      tag_107\n      jumpi\n      returndatasize\n      0x00\n      dup1\n      returndatacopy\n      revert(0x00, returndatasize)\n    tag_107:\n      pop\n      pop\n      pop\n      pop\n      mload(0x40)\n      returndatasize\n      not(0x1f)\n      0x1f\n      dup3\n      add\n      and\n      dup3\n      add\n      dup1\n      0x40\n      mstore\n      pop\n      dup2\n      add\n      swap1\n      tag_108\n      swap2\n      swap1\n      tag_74\n      jump\t// in\n    tag_108:\n      pop\n        /* \"contracts/test4/WETH_LP.sol\":1386:1845  {... */\n      pop\n      pop\n        /* \"contracts/test4/WETH_LP.sol\":1338:1845  function removeLiquidity(uint _amount) external {... */\n      pop\n      jump\t// out\n        /* \"contracts/test4/WETH_LP.sol\":636:1332  function addLiquidity(uint _wethAmount, uint _tokenAmount) external payable {... */\n    tag_34:\n        /* \"contracts/test4/WETH_LP.sol\":722:738  uint wethBalance */\n      0x00\n        /* \"contracts/test4/WETH_LP.sol\":747:751  weth */\n      dup1\n      0x00\n      swap1\n      sload\n      swap1\n      0x0100\n      exp\n      swap1\n      div\n      0xffffffffffffffffffffffffffffffffffffffff\n      and\n        /* \"contracts/test4/WETH_LP.sol\":741:762  IWETH(weth).balanceOf */\n      0xffffffffffffffffffffffffffffffffffffffff\n      and\n      0x70a08231\n        /* \"contracts/test4/WETH_LP.sol\":771:775  this */\n      address\n        /* \"contracts/test4/WETH_LP.sol\":741:777  IWETH(weth).balanceOf(address(this)) */\n      mload(0x40)\n      dup3\n      0xffffffff\n      and\n      0xe0\n      shl\n      dup2\n      mstore\n      0x04\n      add\n      tag_110\n      swap2\n      swap1\n      tag_26\n      jump\t// in\n    tag_110:\n      0x20\n      mload(0x40)\n      dup1\n      dup4\n      sub\n      dup2\n      dup7\n      gas\n      staticcall\n      iszero\n      dup1\n      iszero\n      tag_112\n      jumpi\n      returndatasize\n      0x00\n      dup1\n      returndatacopy\n      revert(0x00, returndatasize)\n    tag_112:\n      pop\n      pop\n      pop\n      pop\n      mload(0x40)\n      returndatasize\n      not(0x1f)\n      0x1f\n      dup3\n      add\n      and\n      dup3\n      add\n      dup1\n      0x40\n      mstore\n      pop\n      dup2\n      add\n      swap1\n      tag_113\n      swap2\n      swap1\n      tag_62\n      jump\t// in\n    tag_113:\n        /* \"contracts/test4/WETH_LP.sol\":722:777  uint wethBalance = IWETH(weth).balanceOf(address(this)) */\n      swap1\n      pop\n        /* \"contracts/test4/WETH_LP.sol\":787:804  uint tokenBalance */\n      0x00\n        /* \"contracts/test4/WETH_LP.sol\":814:819  token */\n      0x01\n      0x00\n      swap1\n      sload\n      swap1\n      0x0100\n      exp\n      swap1\n      div\n      0xffffffffffffffffffffffffffffffffffffffff\n      and\n        /* \"contracts/test4/WETH_LP.sol\":807:830  IERC20(token).balanceOf */\n      0xffffffffffffffffffffffffffffffffffffffff\n      and\n      0x70a08231\n        /* \"contracts/test4/WETH_LP.sol\":839:843  this */\n      address\n        /* \"contracts/test4/WETH_LP.sol\":807:845  IERC20(token).balanceOf(address(this)) */\n      mload(0x40)\n      dup3\n      0xffffffff\n      and\n      0xe0\n      shl\n      dup2\n      mstore\n      0x04\n      add\n      tag_114\n      swap2\n      swap1\n      tag_26\n      jump\t// in\n    tag_114:\n      0x20\n      mload(0x40)\n      dup1\n      dup4\n      sub\n      dup2\n      dup7\n      gas\n      staticcall\n      iszero\n      dup1\n      iszero\n      tag_116\n      jumpi\n      returndatasize\n      0x00\n      dup1\n      returndatacopy\n      revert(0x00, returndatasize)\n    tag_116:\n      pop\n      pop\n      pop\n      pop\n      mload(0x40)\n      returndatasize\n      not(0x1f)\n      0x1f\n      dup3\n      add\n      and\n      dup3\n      add\n      dup1\n      0x40\n      mstore\n      pop\n      dup2\n      add\n      swap1\n      tag_117\n      swap2\n      swap1\n      tag_62\n      jump\t// in\n    tag_117:\n        /* \"contracts/test4/WETH_LP.sol\":787:845  uint tokenBalance = IERC20(token).balanceOf(address(this)) */\n      swap1\n      pop\n        /* \"contracts/test4/WETH_LP.sol\":855:874  uint minTokenAmount */\n      0x00\n        /* \"contracts/test4/WETH_LP.sol\":939:951  tokenBalance */\n      dup2\n        /* \"contracts/test4/WETH_LP.sol\":923:934  wethBalance */\n      dup4\n        /* \"contracts/test4/WETH_LP.sol\":908:920  tokenBalance */\n      dup4\n        /* \"contracts/test4/WETH_LP.sol\":893:904  wethBalance */\n      dup6\n        /* \"contracts/test4/WETH_LP.sol\":879:890  _wethAmount */\n      dup9\n        /* \"contracts/test4/WETH_LP.sol\":879:904  _wethAmount + wethBalance */\n      tag_118\n      swap2\n      swap1\n      tag_119\n      jump\t// in\n    tag_118:\n        /* \"contracts/test4/WETH_LP.sol\":878:920  (_wethAmount + wethBalance) * tokenBalance */\n      tag_120\n      swap2\n      swap1\n      tag_89\n      jump\t// in\n    tag_120:\n        /* \"contracts/test4/WETH_LP.sol\":878:934  (_wethAmount + wethBalance) * tokenBalance / wethBalance */\n      tag_121\n      swap2\n      swap1\n      tag_91\n      jump\t// in\n    tag_121:\n        /* \"contracts/test4/WETH_LP.sol\":877:951  ((_wethAmount + wethBalance) * tokenBalance / wethBalance ) - tokenBalance */\n      tag_122\n      swap2\n      swap1\n      tag_99\n      jump\t// in\n    tag_122:\n        /* \"contracts/test4/WETH_LP.sol\":855:951  uint minTokenAmount = ((_wethAmount + wethBalance) * tokenBalance / wethBalance ) - tokenBalance */\n      swap1\n      pop\n        /* \"contracts/test4/WETH_LP.sol\":983:984  0 */\n      0x00\n        /* \"contracts/test4/WETH_LP.sol\":969:980  _wethAmount */\n      dup6\n        /* \"contracts/test4/WETH_LP.sol\":969:984  _wethAmount > 0 */\n      gt\n        /* \"contracts/test4/WETH_LP.sol\":969:1018  _wethAmount > 0 && _tokenAmount >= minTokenAmount */\n      dup1\n      iszero\n      tag_123\n      jumpi\n      pop\n        /* \"contracts/test4/WETH_LP.sol\":1004:1018  minTokenAmount */\n      dup1\n        /* \"contracts/test4/WETH_LP.sol\":988:1000  _tokenAmount */\n      dup5\n        /* \"contracts/test4/WETH_LP.sol\":988:1018  _tokenAmount >= minTokenAmount */\n      lt\n      iszero\n        /* \"contracts/test4/WETH_LP.sol\":969:1018  _wethAmount > 0 && _tokenAmount >= minTokenAmount */\n    tag_123:\n        /* \"contracts/test4/WETH_LP.sol\":961:1038  require(_wethAmount > 0 && _tokenAmount >= minTokenAmount, \"Invalid amounts\") */\n      tag_124\n      jumpi\n      mload(0x40)\n      0x08c379a000000000000000000000000000000000000000000000000000000000\n      dup2\n      mstore\n      0x04\n      add\n      tag_125\n      swap1\n      tag_57\n      jump\t// in\n    tag_125:\n      mload(0x40)\n      dup1\n      swap2\n      sub\n      swap1\n      revert\n    tag_124:\n        /* \"contracts/test4/WETH_LP.sol\":1055:1059  weth */\n      0x00\n      dup1\n      sload\n      swap1\n      0x0100\n      exp\n      swap1\n      div\n      0xffffffffffffffffffffffffffffffffffffffff\n      and\n        /* \"contracts/test4/WETH_LP.sol\":1049:1073  IWETH(weth).transferFrom */\n      0xffffffffffffffffffffffffffffffffffffffff\n      and\n      0x23b872dd\n        /* \"contracts/test4/WETH_LP.sol\":1074:1084  msg.sender */\n      caller\n        /* \"contracts/test4/WETH_LP.sol\":1094:1098  this */\n      address\n        /* \"contracts/test4/WETH_LP.sol\":1101:1112  _wethAmount */\n      dup9\n        /* \"contracts/test4/WETH_LP.sol\":1049:1113  IWETH(weth).transferFrom(msg.sender, address(this), _wethAmount) */\n      mload(0x40)\n      dup5\n      0xffffffff\n      and\n      0xe0\n      shl\n      dup2\n      mstore\n      0x04\n      add\n      tag_126\n      swap4\n      swap3\n      swap2\n      swap1\n      tag_70\n      jump\t// in\n    tag_126:\n      0x20\n      mload(0x40)\n      dup1\n      dup4\n      sub\n      dup2\n      0x00\n      dup8\n      gas\n      call\n      iszero\n      dup1\n      iszero\n      tag_128\n      jumpi\n      returndatasize\n      0x00\n      dup1\n      returndatacopy\n      revert(0x00, returndatasize)\n    tag_128:\n      pop\n      pop\n      pop\n      pop\n      mload(0x40)\n      returndatasize\n      not(0x1f)\n      0x1f\n      dup3\n      add\n      and\n      dup3\n      add\n      dup1\n      0x40\n      mstore\n      pop\n      dup2\n      add\n      swap1\n      tag_129\n      swap2\n      swap1\n      tag_74\n      jump\t// in\n    tag_129:\n      pop\n        /* \"contracts/test4/WETH_LP.sol\":1130:1135  token */\n      0x01\n      0x00\n      swap1\n      sload\n      swap1\n      0x0100\n      exp\n      swap1\n      div\n      0xffffffffffffffffffffffffffffffffffffffff\n      and\n        /* \"contracts/test4/WETH_LP.sol\":1123:1149  IERC20(token).transferFrom */\n      0xffffffffffffffffffffffffffffffffffffffff\n      and\n      0x23b872dd\n        /* \"contracts/test4/WETH_LP.sol\":1150:1160  msg.sender */\n      caller\n        /* \"contracts/test4/WETH_LP.sol\":1170:1174  this */\n      address\n        /* \"contracts/test4/WETH_LP.sol\":1177:1189  _tokenAmount */\n      dup8\n        /* \"contracts/test4/WETH_LP.sol\":1123:1190  IERC20(token).transferFrom(msg.sender, address(this), _tokenAmount) */\n      mload(0x40)\n      dup5\n      0xffffffff\n      and\n      0xe0\n      shl\n      dup2\n      mstore\n      0x04\n      add\n      tag_130\n      swap4\n      swap3\n      swap2\n      swap1\n      tag_70\n      jump\t// in\n    tag_130:\n      0x20\n      mload(0x40)\n      dup1\n      dup4\n      sub\n      dup2\n      0x00\n      dup8\n      gas\n      call\n      iszero\n      dup1\n      iszero\n      tag_132\n      jumpi\n      returndatasize\n      0x00\n      dup1\n      returndatacopy\n      revert(0x00, returndatasize)\n    tag_132:\n      pop\n      pop\n      pop\n      pop\n      mload(0x40)\n      returndatasize\n      not(0x1f)\n      0x1f\n      dup3\n      add\n      and\n      dup3\n      add\n      dup1\n      0x40\n      mstore\n      pop\n      dup2\n      add\n      swap1\n      tag_133\n      swap2\n      swap1\n      tag_74\n      jump\t// in\n    tag_133:\n      pop\n        /* \"contracts/test4/WETH_LP.sol\":1201:1214  uint lpMinted */\n      0x00\n        /* \"contracts/test4/WETH_LP.sol\":1217:1228  _wethAmount */\n      dup6\n        /* \"contracts/test4/WETH_LP.sol\":1201:1228  uint lpMinted = _wethAmount */\n      swap1\n      pop\n        /* \"contracts/test4/WETH_LP.sol\":1281:1289  lpMinted */\n      dup1\n        /* \"contracts/test4/WETH_LP.sol\":1256:1265  liquidity */\n      0x03\n        /* \"contracts/test4/WETH_LP.sol\":1256:1277  liquidity[msg.sender] */\n      0x00\n        /* \"contracts/test4/WETH_LP.sol\":1266:1276  msg.sender */\n      caller\n        /* \"contracts/test4/WETH_LP.sol\":1256:1277  liquidity[msg.sender] */\n      0xffffffffffffffffffffffffffffffffffffffff\n      and\n      0xffffffffffffffffffffffffffffffffffffffff\n      and\n      dup2\n      mstore\n      0x20\n      add\n      swap1\n      dup2\n      mstore\n      0x20\n      add\n      0x00\n      keccak256\n      0x00\n        /* \"contracts/test4/WETH_LP.sol\":1256:1289  liquidity[msg.sender] += lpMinted */\n      dup3\n      dup3\n      sload\n      tag_134\n      swap2\n      swap1\n      tag_119\n      jump\t// in\n    tag_134:\n      swap3\n      pop\n      pop\n      dup2\n      swap1\n      sstore\n      pop\n        /* \"contracts/test4/WETH_LP.sol\":1317:1325  lpMinted */\n      dup1\n        /* \"contracts/test4/WETH_LP.sol\":1299:1313  totalLiquidity */\n      0x02\n      0x00\n        /* \"contracts/test4/WETH_LP.sol\":1299:1325  totalLiquidity += lpMinted */\n      dup3\n      dup3\n      sload\n      tag_135\n      swap2\n      swap1\n      tag_119\n      jump\t// in\n    tag_135:\n      swap3\n      pop\n      pop\n      dup2\n      swap1\n      sstore\n      pop\n        /* \"contracts/test4/WETH_LP.sol\":712:1332  {... */\n      pop\n      pop\n      pop\n      pop\n        /* \"contracts/test4/WETH_LP.sol\":636:1332  function addLiquidity(uint _wethAmount, uint _tokenAmount) external payable {... */\n      pop\n      pop\n      jump\t// out\n        /* \"contracts/test4/WETH_LP.sol\":403:444  mapping(address => uint) public liquidity */\n    tag_39:\n      mstore(0x20, 0x03)\n      dup1\n      0x00\n      mstore\n      keccak256(0x00, 0x40)\n      0x00\n      swap2\n      pop\n      swap1\n      pop\n      sload\n      dup2\n      jump\t// out\n        /* \"contracts/test4/WETH_LP.sol\":2334:2813  function swapTokenForWETH(uint _tokenAmount) external {... */\n    tag_44:\n        /* \"contracts/test4/WETH_LP.sol\":2421:2422  0 */\n      0x00\n        /* \"contracts/test4/WETH_LP.sol\":2406:2418  _tokenAmount */\n      dup2\n        /* \"contracts/test4/WETH_LP.sol\":2406:2422  _tokenAmount > 0 */\n      gt\n        /* \"contracts/test4/WETH_LP.sol\":2398:2442  require(_tokenAmount > 0, \"Invalid amounts\") */\n      tag_137\n      jumpi\n      mload(0x40)\n      0x08c379a000000000000000000000000000000000000000000000000000000000\n      dup2\n      mstore\n      0x04\n      add\n      tag_138\n      swap1\n      tag_57\n      jump\t// in\n    tag_138:\n      mload(0x40)\n      dup1\n      swap2\n      sub\n      swap1\n      revert\n    tag_137:\n        /* \"contracts/test4/WETH_LP.sol\":2461:2477  uint wethReserve */\n      0x00\n        /* \"contracts/test4/WETH_LP.sol\":2486:2490  weth */\n      dup1\n      0x00\n      swap1\n      sload\n      swap1\n      0x0100\n      exp\n      swap1\n      div\n      0xffffffffffffffffffffffffffffffffffffffff\n      and\n        /* \"contracts/test4/WETH_LP.sol\":2480:2501  IWETH(weth).balanceOf */\n      0xffffffffffffffffffffffffffffffffffffffff\n      and\n      0x70a08231\n        /* \"contracts/test4/WETH_LP.sol\":2510:2514  this */\n      address\n        /* \"contracts/test4/WETH_LP.sol\":2480:2516  IWETH(weth).balanceOf(address(this)) */\n      mload(0x40)\n      dup3\n      0xffffffff\n      and\n      0xe0\n      shl\n      dup2\n      mstore\n      0x04\n      add\n      tag_139\n      swap2\n      swap1\n      tag_26\n      jump\t// in\n    tag_139:\n      0x20\n      mload(0x40)\n      dup1\n      dup4\n      sub\n      dup2\n      dup7\n      gas\n      staticcall\n      iszero\n      dup1\n      iszero\n      tag_141\n      jumpi\n      returndatasize\n      0x00\n      dup1\n      returndatacopy\n      revert(0x00, returndatasize)\n    tag_141:\n      pop\n      pop\n      pop\n      pop\n      mload(0x40)\n      returndatasize\n      not(0x1f)\n      0x1f\n      dup3\n      add\n      and\n      dup3\n      add\n      dup1\n      0x40\n      mstore\n      pop\n      dup2\n      add\n      swap1\n      tag_142\n      swap2\n      swap1\n      tag_62\n      jump\t// in\n    tag_142:\n        /* \"contracts/test4/WETH_LP.sol\":2461:2516  uint wethReserve = IWETH(weth).balanceOf(address(this)) */\n      swap1\n      pop\n        /* \"contracts/test4/WETH_LP.sol\":2526:2543  uint tokenReserve */\n      0x00\n        /* \"contracts/test4/WETH_LP.sol\":2553:2558  token */\n      0x01\n      0x00\n      swap1\n      sload\n      swap1\n      0x0100\n      exp\n      swap1\n      div\n      0xffffffffffffffffffffffffffffffffffffffff\n      and\n        /* \"contracts/test4/WETH_LP.sol\":2546:2569  IERC20(token).balanceOf */\n      0xffffffffffffffffffffffffffffffffffffffff\n      and\n      0x70a08231\n        /* \"contracts/test4/WETH_LP.sol\":2578:2582  this */\n      address\n        /* \"contracts/test4/WETH_LP.sol\":2546:2584  IERC20(token).balanceOf(address(this)) */\n      mload(0x40)\n      dup3\n      0xffffffff\n      and\n      0xe0\n      shl\n      dup2\n      mstore\n      0x04\n      add\n      tag_143\n      swap2\n      swap1\n      tag_26\n      jump\t// in\n    tag_143:\n      0x20\n      mload(0x40)\n      dup1\n      dup4\n      sub\n      dup2\n      dup7\n      gas\n      staticcall\n      iszero\n      dup1\n      iszero\n      tag_145\n      jumpi\n      returndatasize\n      0x00\n      dup1\n      returndatacopy\n      revert(0x00, returndatasize)\n    tag_145:\n      pop\n      pop\n      pop\n      pop\n      mload(0x40)\n      returndatasize\n      not(0x1f)\n      0x1f\n      dup3\n      add\n      and\n      dup3\n      add\n      dup1\n      0x40\n      mstore\n      pop\n      dup2\n      add\n      swap1\n      tag_146\n      swap2\n      swap1\n      tag_62\n      jump\t// in\n    tag_146:\n        /* \"contracts/test4/WETH_LP.sol\":2526:2584  uint tokenReserve = IERC20(token).balanceOf(address(this)) */\n      swap1\n      pop\n        /* \"contracts/test4/WETH_LP.sol\":2603:2618  uint wethAmount */\n      0x00\n        /* \"contracts/test4/WETH_LP.sol\":2621:2674  getAmountOut(_tokenAmount, tokenReserve, wethReserve) */\n      tag_147\n        /* \"contracts/test4/WETH_LP.sol\":2634:2646  _tokenAmount */\n      dup5\n        /* \"contracts/test4/WETH_LP.sol\":2648:2660  tokenReserve */\n      dup4\n        /* \"contracts/test4/WETH_LP.sol\":2662:2673  wethReserve */\n      dup6\n        /* \"contracts/test4/WETH_LP.sol\":2621:2633  getAmountOut */\n      tag_68\n        /* \"contracts/test4/WETH_LP.sol\":2621:2674  getAmountOut(_tokenAmount, tokenReserve, wethReserve) */\n      jump\t// in\n    tag_147:\n        /* \"contracts/test4/WETH_LP.sol\":2603:2674  uint wethAmount = getAmountOut(_tokenAmount, tokenReserve, wethReserve) */\n      swap1\n      pop\n        /* \"contracts/test4/WETH_LP.sol\":2692:2697  token */\n      0x01\n      0x00\n      swap1\n      sload\n      swap1\n      0x0100\n      exp\n      swap1\n      div\n      0xffffffffffffffffffffffffffffffffffffffff\n      and\n        /* \"contracts/test4/WETH_LP.sol\":2685:2711  IERC20(token).transferFrom */\n      0xffffffffffffffffffffffffffffffffffffffff\n      and\n      0x23b872dd\n        /* \"contracts/test4/WETH_LP.sol\":2712:2722  msg.sender */\n      caller\n        /* \"contracts/test4/WETH_LP.sol\":2732:2736  this */\n      address\n        /* \"contracts/test4/WETH_LP.sol\":2739:2751  _tokenAmount */\n      dup8\n        /* \"contracts/test4/WETH_LP.sol\":2685:2752  IERC20(token).transferFrom(msg.sender, address(this), _tokenAmount) */\n      mload(0x40)\n      dup5\n      0xffffffff\n      and\n      0xe0\n      shl\n      dup2\n      mstore\n      0x04\n      add\n      tag_148\n      swap4\n      swap3\n      swap2\n      swap1\n      tag_70\n      jump\t// in\n    tag_148:\n      0x20\n      mload(0x40)\n      dup1\n      dup4\n      sub\n      dup2\n      0x00\n      dup8\n      gas\n      call\n      iszero\n      dup1\n      iszero\n      tag_150\n      jumpi\n      returndatasize\n      0x00\n      dup1\n      returndatacopy\n      revert(0x00, returndatasize)\n    tag_150:\n      pop\n      pop\n      pop\n      pop\n      mload(0x40)\n      returndatasize\n      not(0x1f)\n      0x1f\n      dup3\n      add\n      and\n      dup3\n      add\n      dup1\n      0x40\n      mstore\n      pop\n      dup2\n      add\n      swap1\n      tag_151\n      swap2\n      swap1\n      tag_74\n      jump\t// in\n    tag_151:\n      pop\n        /* \"contracts/test4/WETH_LP.sol\":2768:2772  weth */\n      0x00\n      dup1\n      sload\n      swap1\n      0x0100\n      exp\n      swap1\n      div\n      0xffffffffffffffffffffffffffffffffffffffff\n      and\n        /* \"contracts/test4/WETH_LP.sol\":2762:2782  IWETH(weth).transfer */\n      0xffffffffffffffffffffffffffffffffffffffff\n      and\n      0xa9059cbb\n        /* \"contracts/test4/WETH_LP.sol\":2783:2793  msg.sender */\n      caller\n        /* \"contracts/test4/WETH_LP.sol\":2795:2805  wethAmount */\n      dup4\n        /* \"contracts/test4/WETH_LP.sol\":2762:2806  IWETH(weth).transfer(msg.sender, wethAmount) */\n      mload(0x40)\n      dup4\n      0xffffffff\n      and\n      0xe0\n      shl\n      dup2\n      mstore\n      0x04\n      add\n      tag_152\n      swap3\n      swap2\n      swap1\n      tag_76\n      jump\t// in\n    tag_152:\n      0x20\n      mload(0x40)\n      dup1\n      dup4\n      sub\n      dup2\n      0x00\n      dup8\n      gas\n      call\n      iszero\n      dup1\n      iszero\n      tag_154\n      jumpi\n      returndatasize\n      0x00\n      dup1\n      returndatacopy\n      revert(0x00, returndatasize)\n    tag_154:\n      pop\n      pop\n      pop\n      pop\n      mload(0x40)\n      returndatasize\n      not(0x1f)\n      0x1f\n      dup3\n      add\n      and\n      dup3\n      add\n      dup1\n      0x40\n      mstore\n      pop\n      dup2\n      add\n      swap1\n      tag_155\n      swap2\n      swap1\n      tag_74\n      jump\t// in\n    tag_155:\n      pop\n        /* \"contracts/test4/WETH_LP.sol\":2388:2813  {... */\n      pop\n      pop\n      pop\n        /* \"contracts/test4/WETH_LP.sol\":2334:2813  function swapTokenForWETH(uint _tokenAmount) external {... */\n      pop\n      jump\t// out\n        /* \"contracts/test4/WETH_LP.sol\":337:364  uint16 public serviceChange */\n    tag_47:\n      0x01\n      0x14\n      swap1\n      sload\n      swap1\n      0x0100\n      exp\n      swap1\n      div\n      0xffff\n      and\n      dup2\n      jump\t// out\n        /* \"contracts/test4/WETH_LP.sol\":261:281  address public token */\n    tag_52:\n      0x01\n      0x00\n      swap1\n      sload\n      swap1\n      0x0100\n      exp\n      swap1\n      div\n      0xffffffffffffffffffffffffffffffffffffffff\n      and\n      dup2\n      jump\t// out\n        /* \"contracts/test4/WETH_LP.sol\":2819:3166  function getAmountOut(uint _inputAmount,uint _inputReserve,uint _outputReserve) internal view returns (uint){... */\n    tag_68:\n        /* \"contracts/test4/WETH_LP.sol\":2922:2926  uint */\n      0x00\n        /* \"contracts/test4/WETH_LP.sol\":2961:2962  0 */\n      dup1\n        /* \"contracts/test4/WETH_LP.sol\":2945:2958  _inputReserve */\n      dup4\n        /* \"contracts/test4/WETH_LP.sol\":2945:2962  _inputReserve > 0 */\n      gt\n        /* \"contracts/test4/WETH_LP.sol\":2945:2984  _inputReserve > 0 && _outputReserve > 0 */\n      dup1\n      iszero\n      tag_157\n      jumpi\n      pop\n        /* \"contracts/test4/WETH_LP.sol\":2983:2984  0 */\n      0x00\n        /* \"contracts/test4/WETH_LP.sol\":2966:2980  _outputReserve */\n      dup3\n        /* \"contracts/test4/WETH_LP.sol\":2966:2984  _outputReserve > 0 */\n      gt\n        /* \"contracts/test4/WETH_LP.sol\":2945:2984  _inputReserve > 0 && _outputReserve > 0 */\n    tag_157:\n        /* \"contracts/test4/WETH_LP.sol\":2937:3005  require(_inputReserve > 0 && _outputReserve > 0, \"Invalid reserves\") */\n      tag_158\n      jumpi\n      mload(0x40)\n      0x08c379a000000000000000000000000000000000000000000000000000000000\n      dup2\n      mstore\n      0x04\n      add\n      tag_159\n      swap1\n      tag_160\n      jump\t// in\n    tag_159:\n      mload(0x40)\n      dup1\n      swap2\n      sub\n      swap1\n      revert\n    tag_158:\n        /* \"contracts/test4/WETH_LP.sol\":3016:3032  uint actualInput */\n      0x00\n        /* \"contracts/test4/WETH_LP.sol\":3058:3071  serviceChange */\n      0x01\n      0x14\n      swap1\n      sload\n      swap1\n      0x0100\n      exp\n      swap1\n      div\n      0xffff\n      and\n        /* \"contracts/test4/WETH_LP.sol\":3051:3055  1000 */\n      0x03e8\n        /* \"contracts/test4/WETH_LP.sol\":3051:3071  1000 - serviceChange */\n      tag_161\n      swap2\n      swap1\n      tag_162\n      jump\t// in\n    tag_161:\n        /* \"contracts/test4/WETH_LP.sol\":3035:3072  _inputAmount * (1000 - serviceChange) */\n      0xffff\n      and\n        /* \"contracts/test4/WETH_LP.sol\":3035:3047  _inputAmount */\n      dup6\n        /* \"contracts/test4/WETH_LP.sol\":3035:3072  _inputAmount * (1000 - serviceChange) */\n      tag_163\n      swap2\n      swap1\n      tag_89\n      jump\t// in\n    tag_163:\n        /* \"contracts/test4/WETH_LP.sol\":3016:3072  uint actualInput = _inputAmount * (1000 - serviceChange) */\n      swap1\n      pop\n        /* \"contracts/test4/WETH_LP.sol\":3147:3158  actualInput */\n      dup1\n        /* \"contracts/test4/WETH_LP.sol\":3140:3144  1000 */\n      0x03e8\n        /* \"contracts/test4/WETH_LP.sol\":3124:3137  _inputReserve */\n      dup6\n        /* \"contracts/test4/WETH_LP.sol\":3124:3144  _inputReserve * 1000 */\n      tag_164\n      swap2\n      swap1\n      tag_89\n      jump\t// in\n    tag_164:\n        /* \"contracts/test4/WETH_LP.sol\":3124:3158  _inputReserve * 1000 + actualInput */\n      tag_165\n      swap2\n      swap1\n      tag_119\n      jump\t// in\n    tag_165:\n        /* \"contracts/test4/WETH_LP.sol\":3105:3119  _outputReserve */\n      dup4\n        /* \"contracts/test4/WETH_LP.sol\":3091:3102  actualInput */\n      dup3\n        /* \"contracts/test4/WETH_LP.sol\":3091:3119  actualInput * _outputReserve */\n      tag_166\n      swap2\n      swap1\n      tag_89\n      jump\t// in\n    tag_166:\n        /* \"contracts/test4/WETH_LP.sol\":3090:3159  (actualInput * _outputReserve) / (_inputReserve * 1000 + actualInput) */\n      tag_167\n      swap2\n      swap1\n      tag_91\n      jump\t// in\n    tag_167:\n        /* \"contracts/test4/WETH_LP.sol\":3083:3159  return (actualInput * _outputReserve) / (_inputReserve * 1000 + actualInput) */\n      swap2\n      pop\n      pop\n        /* \"contracts/test4/WETH_LP.sol\":2819:3166  function getAmountOut(uint _inputAmount,uint _inputReserve,uint _outputReserve) internal view returns (uint){... */\n      swap4\n      swap3\n      pop\n      pop\n      pop\n      jump\t// out\n        /* \"#utility.yul\":7:84   */\n    tag_168:\n        /* \"#utility.yul\":44:51   */\n      0x00\n        /* \"#utility.yul\":73:78   */\n      dup2\n        /* \"#utility.yul\":62:78   */\n      swap1\n      pop\n        /* \"#utility.yul\":7:84   */\n      swap2\n      swap1\n      pop\n      jump\t// out\n        /* \"#utility.yul\":90:208   */\n    tag_169:\n        /* \"#utility.yul\":177:201   */\n      tag_198\n        /* \"#utility.yul\":195:200   */\n      dup2\n        /* \"#utility.yul\":177:201   */\n      tag_168\n      jump\t// in\n    tag_198:\n        /* \"#utility.yul\":172:175   */\n      dup3\n        /* \"#utility.yul\":165:202   */\n      mstore\n        /* \"#utility.yul\":90:208   */\n      pop\n      pop\n      jump\t// out\n        /* \"#utility.yul\":214:436   */\n    tag_16:\n        /* \"#utility.yul\":307:311   */\n      0x00\n        /* \"#utility.yul\":345:347   */\n      0x20\n        /* \"#utility.yul\":334:343   */\n      dup3\n        /* \"#utility.yul\":330:348   */\n      add\n        /* \"#utility.yul\":322:348   */\n      swap1\n      pop\n        /* \"#utility.yul\":358:429   */\n      tag_200\n        /* \"#utility.yul\":426:427   */\n      0x00\n        /* \"#utility.yul\":415:424   */\n      dup4\n        /* \"#utility.yul\":411:428   */\n      add\n        /* \"#utility.yul\":402:408   */\n      dup5\n        /* \"#utility.yul\":358:429   */\n      tag_169\n      jump\t// in\n    tag_200:\n        /* \"#utility.yul\":214:436   */\n      swap3\n      swap2\n      pop\n      pop\n      jump\t// out\n        /* \"#utility.yul\":523:640   */\n    tag_171:\n        /* \"#utility.yul\":632:633   */\n      0x00\n        /* \"#utility.yul\":629:630   */\n      dup1\n        /* \"#utility.yul\":622:634   */\n      revert\n        /* \"#utility.yul\":769:891   */\n    tag_173:\n        /* \"#utility.yul\":842:866   */\n      tag_205\n        /* \"#utility.yul\":860:865   */\n      dup2\n        /* \"#utility.yul\":842:866   */\n      tag_168\n      jump\t// in\n    tag_205:\n        /* \"#utility.yul\":835:840   */\n      dup2\n        /* \"#utility.yul\":832:867   */\n      eq\n        /* \"#utility.yul\":822:885   */\n      tag_206\n      jumpi\n        /* \"#utility.yul\":881:882   */\n      0x00\n        /* \"#utility.yul\":878:879   */\n      dup1\n        /* \"#utility.yul\":871:883   */\n      revert\n        /* \"#utility.yul\":822:885   */\n    tag_206:\n        /* \"#utility.yul\":769:891   */\n      pop\n      jump\t// out\n        /* \"#utility.yul\":897:1036   */\n    tag_174:\n        /* \"#utility.yul\":943:948   */\n      0x00\n        /* \"#utility.yul\":981:987   */\n      dup2\n        /* \"#utility.yul\":968:988   */\n      calldataload\n        /* \"#utility.yul\":959:988   */\n      swap1\n      pop\n        /* \"#utility.yul\":997:1030   */\n      tag_208\n        /* \"#utility.yul\":1024:1029   */\n      dup2\n        /* \"#utility.yul\":997:1030   */\n      tag_173\n      jump\t// in\n    tag_208:\n        /* \"#utility.yul\":897:1036   */\n      swap3\n      swap2\n      pop\n      pop\n      jump\t// out\n        /* \"#utility.yul\":1042:1371   */\n    tag_20:\n        /* \"#utility.yul\":1101:1107   */\n      0x00\n        /* \"#utility.yul\":1150:1152   */\n      0x20\n        /* \"#utility.yul\":1138:1147   */\n      dup3\n        /* \"#utility.yul\":1129:1136   */\n      dup5\n        /* \"#utility.yul\":1125:1148   */\n      sub\n        /* \"#utility.yul\":1121:1153   */\n      slt\n        /* \"#utility.yul\":1118:1237   */\n      iszero\n      tag_210\n      jumpi\n        /* \"#utility.yul\":1156:1235   */\n      tag_211\n      tag_171\n      jump\t// in\n    tag_211:\n        /* \"#utility.yul\":1118:1237   */\n    tag_210:\n        /* \"#utility.yul\":1276:1277   */\n      0x00\n        /* \"#utility.yul\":1301:1354   */\n      tag_212\n        /* \"#utility.yul\":1346:1353   */\n      dup5\n        /* \"#utility.yul\":1337:1343   */\n      dup3\n        /* \"#utility.yul\":1326:1335   */\n      dup6\n        /* \"#utility.yul\":1322:1344   */\n      add\n        /* \"#utility.yul\":1301:1354   */\n      tag_174\n      jump\t// in\n    tag_212:\n        /* \"#utility.yul\":1291:1354   */\n      swap2\n      pop\n        /* \"#utility.yul\":1247:1364   */\n      pop\n        /* \"#utility.yul\":1042:1371   */\n      swap3\n      swap2\n      pop\n      pop\n      jump\t// out\n        /* \"#utility.yul\":1377:1503   */\n    tag_175:\n        /* \"#utility.yul\":1414:1421   */\n      0x00\n        /* \"#utility.yul\":1454:1496   */\n      0xffffffffffffffffffffffffffffffffffffffff\n        /* \"#utility.yul\":1447:1452   */\n      dup3\n        /* \"#utility.yul\":1443:1497   */\n      and\n        /* \"#utility.yul\":1432:1497   */\n      swap1\n      pop\n        /* \"#utility.yul\":1377:1503   */\n      swap2\n      swap1\n      pop\n      jump\t// out\n        /* \"#utility.yul\":1509:1605   */\n    tag_176:\n        /* \"#utility.yul\":1546:1553   */\n      0x00\n        /* \"#utility.yul\":1575:1599   */\n      tag_215\n        /* \"#utility.yul\":1593:1598   */\n      dup3\n        /* \"#utility.yul\":1575:1599   */\n      tag_175\n      jump\t// in\n    tag_215:\n        /* \"#utility.yul\":1564:1599   */\n      swap1\n      pop\n        /* \"#utility.yul\":1509:1605   */\n      swap2\n      swap1\n      pop\n      jump\t// out\n        /* \"#utility.yul\":1611:1729   */\n    tag_177:\n        /* \"#utility.yul\":1698:1722   */\n      tag_217\n        /* \"#utility.yul\":1716:1721   */\n      dup2\n        /* \"#utility.yul\":1698:1722   */\n      tag_176\n      jump\t// in\n    tag_217:\n        /* \"#utility.yul\":1693:1696   */\n      dup3\n        /* \"#utility.yul\":1686:1723   */\n      mstore\n        /* \"#utility.yul\":1611:1729   */\n      pop\n      pop\n      jump\t// out\n        /* \"#utility.yul\":1735:1957   */\n    tag_26:\n        /* \"#utility.yul\":1828:1832   */\n      0x00\n        /* \"#utility.yul\":1866:1868   */\n      0x20\n        /* \"#utility.yul\":1855:1864   */\n      dup3\n        /* \"#utility.yul\":1851:1869   */\n      add\n        /* \"#utility.yul\":1843:1869   */\n      swap1\n      pop\n        /* \"#utility.yul\":1879:1950   */\n      tag_219\n        /* \"#utility.yul\":1947:1948   */\n      0x00\n        /* \"#utility.yul\":1936:1945   */\n      dup4\n        /* \"#utility.yul\":1932:1949   */\n      add\n        /* \"#utility.yul\":1923:1929   */\n      dup5\n        /* \"#utility.yul\":1879:1950   */\n      tag_177\n      jump\t// in\n    tag_219:\n        /* \"#utility.yul\":1735:1957   */\n      swap3\n      swap2\n      pop\n      pop\n      jump\t// out\n        /* \"#utility.yul\":1963:2437   */\n    tag_33:\n        /* \"#utility.yul\":2031:2037   */\n      0x00\n        /* \"#utility.yul\":2039:2045   */\n      dup1\n        /* \"#utility.yul\":2088:2090   */\n      0x40\n        /* \"#utility.yul\":2076:2085   */\n      dup4\n        /* \"#utility.yul\":2067:2074   */\n      dup6\n        /* \"#utility.yul\":2063:2086   */\n      sub\n        /* \"#utility.yul\":2059:2091   */\n      slt\n        /* \"#utility.yul\":2056:2175   */\n      iszero\n      tag_221\n      jumpi\n        /* \"#utility.yul\":2094:2173   */\n      tag_222\n      tag_171\n      jump\t// in\n    tag_222:\n        /* \"#utility.yul\":2056:2175   */\n    tag_221:\n        /* \"#utility.yul\":2214:2215   */\n      0x00\n        /* \"#utility.yul\":2239:2292   */\n      tag_223\n        /* \"#utility.yul\":2284:2291   */\n      dup6\n        /* \"#utility.yul\":2275:2281   */\n      dup3\n        /* \"#utility.yul\":2264:2273   */\n      dup7\n        /* \"#utility.yul\":2260:2282   */\n      add\n        /* \"#utility.yul\":2239:2292   */\n      tag_174\n      jump\t// in\n    tag_223:\n        /* \"#utility.yul\":2229:2292   */\n      swap3\n      pop\n        /* \"#utility.yul\":2185:2302   */\n      pop\n        /* \"#utility.yul\":2341:2343   */\n      0x20\n        /* \"#utility.yul\":2367:2420   */\n      tag_224\n        /* \"#utility.yul\":2412:2419   */\n      dup6\n        /* \"#utility.yul\":2403:2409   */\n      dup3\n        /* \"#utility.yul\":2392:2401   */\n      dup7\n        /* \"#utility.yul\":2388:2410   */\n      add\n        /* \"#utility.yul\":2367:2420   */\n      tag_174\n      jump\t// in\n    tag_224:\n        /* \"#utility.yul\":2357:2420   */\n      swap2\n      pop\n        /* \"#utility.yul\":2312:2430   */\n      pop\n        /* \"#utility.yul\":1963:2437   */\n      swap3\n      pop\n      swap3\n      swap1\n      pop\n      jump\t// out\n        /* \"#utility.yul\":2443:2565   */\n    tag_178:\n        /* \"#utility.yul\":2516:2540   */\n      tag_226\n        /* \"#utility.yul\":2534:2539   */\n      dup2\n        /* \"#utility.yul\":2516:2540   */\n      tag_176\n      jump\t// in\n    tag_226:\n        /* \"#utility.yul\":2509:2514   */\n      dup2\n        /* \"#utility.yul\":2506:2541   */\n      eq\n        /* \"#utility.yul\":2496:2559   */\n      tag_227\n      jumpi\n        /* \"#utility.yul\":2555:2556   */\n      0x00\n        /* \"#utility.yul\":2552:2553   */\n      dup1\n        /* \"#utility.yul\":2545:2557   */\n      revert\n        /* \"#utility.yul\":2496:2559   */\n    tag_227:\n        /* \"#utility.yul\":2443:2565   */\n      pop\n      jump\t// out\n        /* \"#utility.yul\":2571:2710   */\n    tag_179:\n        /* \"#utility.yul\":2617:2622   */\n      0x00\n        /* \"#utility.yul\":2655:2661   */\n      dup2\n        /* \"#utility.yul\":2642:2662   */\n      calldataload\n        /* \"#utility.yul\":2633:2662   */\n      swap1\n      pop\n        /* \"#utility.yul\":2671:2704   */\n      tag_229\n        /* \"#utility.yul\":2698:2703   */\n      dup2\n        /* \"#utility.yul\":2671:2704   */\n      tag_178\n      jump\t// in\n    tag_229:\n        /* \"#utility.yul\":2571:2710   */\n      swap3\n      swap2\n      pop\n      pop\n      jump\t// out\n        /* \"#utility.yul\":2716:3045   */\n    tag_38:\n        /* \"#utility.yul\":2775:2781   */\n      0x00\n        /* \"#utility.yul\":2824:2826   */\n      0x20\n        /* \"#utility.yul\":2812:2821   */\n      dup3\n        /* \"#utility.yul\":2803:2810   */\n      dup5\n        /* \"#utility.yul\":2799:2822   */\n      sub\n        /* \"#utility.yul\":2795:2827   */\n      slt\n        /* \"#utility.yul\":2792:2911   */\n      iszero\n      tag_231\n      jumpi\n        /* \"#utility.yul\":2830:2909   */\n      tag_232\n      tag_171\n      jump\t// in\n    tag_232:\n        /* \"#utility.yul\":2792:2911   */\n    tag_231:\n        /* \"#utility.yul\":2950:2951   */\n      0x00\n        /* \"#utility.yul\":2975:3028   */\n      tag_233\n        /* \"#utility.yul\":3020:3027   */\n      dup5\n        /* \"#utility.yul\":3011:3017   */\n      dup3\n        /* \"#utility.yul\":3000:3009   */\n      dup6\n        /* \"#utility.yul\":2996:3018   */\n      add\n        /* \"#utility.yul\":2975:3028   */\n      tag_179\n      jump\t// in\n    tag_233:\n        /* \"#utility.yul\":2965:3028   */\n      swap2\n      pop\n        /* \"#utility.yul\":2921:3038   */\n      pop\n        /* \"#utility.yul\":2716:3045   */\n      swap3\n      swap2\n      pop\n      pop\n      jump\t// out\n        /* \"#utility.yul\":3051:3140   */\n    tag_180:\n        /* \"#utility.yul\":3087:3094   */\n      0x00\n        /* \"#utility.yul\":3127:3133   */\n      0xffff\n        /* \"#utility.yul\":3120:3125   */\n      dup3\n        /* \"#utility.yul\":3116:3134   */\n      and\n        /* \"#utility.yul\":3105:3134   */\n      swap1\n      pop\n        /* \"#utility.yul\":3051:3140   */\n      swap2\n      swap1\n      pop\n      jump\t// out\n        /* \"#utility.yul\":3146:3261   */\n    tag_181:\n        /* \"#utility.yul\":3231:3254   */\n      tag_236\n        /* \"#utility.yul\":3248:3253   */\n      dup2\n        /* \"#utility.yul\":3231:3254   */\n      tag_180\n      jump\t// in\n    tag_236:\n        /* \"#utility.yul\":3226:3229   */\n      dup3\n        /* \"#utility.yul\":3219:3255   */\n      mstore\n        /* \"#utility.yul\":3146:3261   */\n      pop\n      pop\n      jump\t// out\n        /* \"#utility.yul\":3267:3485   */\n    tag_49:\n        /* \"#utility.yul\":3358:3362   */\n      0x00\n        /* \"#utility.yul\":3396:3398   */\n      0x20\n        /* \"#utility.yul\":3385:3394   */\n      dup3\n        /* \"#utility.yul\":3381:3399   */\n      add\n        /* \"#utility.yul\":3373:3399   */\n      swap1\n      pop\n        /* \"#utility.yul\":3409:3478   */\n      tag_238\n        /* \"#utility.yul\":3475:3476   */\n      0x00\n        /* \"#utility.yul\":3464:3473   */\n      dup4\n        /* \"#utility.yul\":3460:3477   */\n      add\n        /* \"#utility.yul\":3451:3457   */\n      dup5\n        /* \"#utility.yul\":3409:3478   */\n      tag_181\n      jump\t// in\n    tag_238:\n        /* \"#utility.yul\":3267:3485   */\n      swap3\n      swap2\n      pop\n      pop\n      jump\t// out\n        /* \"#utility.yul\":3491:3660   */\n    tag_182:\n        /* \"#utility.yul\":3575:3586   */\n      0x00\n        /* \"#utility.yul\":3609:3615   */\n      dup3\n        /* \"#utility.yul\":3604:3607   */\n      dup3\n        /* \"#utility.yul\":3597:3616   */\n      mstore\n        /* \"#utility.yul\":3649:3653   */\n      0x20\n        /* \"#utility.yul\":3644:3647   */\n      dup3\n        /* \"#utility.yul\":3640:3654   */\n      add\n        /* \"#utility.yul\":3625:3654   */\n      swap1\n      pop\n        /* \"#utility.yul\":3491:3660   */\n      swap3\n      swap2\n      pop\n      pop\n      jump\t// out\n        /* \"#utility.yul\":3666:3831   */\n    tag_183:\n        /* \"#utility.yul\":3806:3823   */\n      0x496e76616c696420616d6f756e74730000000000000000000000000000000000\n        /* \"#utility.yul\":3802:3803   */\n      0x00\n        /* \"#utility.yul\":3794:3800   */\n      dup3\n        /* \"#utility.yul\":3790:3804   */\n      add\n        /* \"#utility.yul\":3783:3824   */\n      mstore\n        /* \"#utility.yul\":3666:3831   */\n      pop\n      jump\t// out\n        /* \"#utility.yul\":3837:4203   */\n    tag_184:\n        /* \"#utility.yul\":3979:3982   */\n      0x00\n        /* \"#utility.yul\":4000:4067   */\n      tag_242\n        /* \"#utility.yul\":4064:4066   */\n      0x0f\n        /* \"#utility.yul\":4059:4062   */\n      dup4\n        /* \"#utility.yul\":4000:4067   */\n      tag_182\n      jump\t// in\n    tag_242:\n        /* \"#utility.yul\":3993:4067   */\n      swap2\n      pop\n        /* \"#utility.yul\":4076:4169   */\n      tag_243\n        /* \"#utility.yul\":4165:4168   */\n      dup3\n        /* \"#utility.yul\":4076:4169   */\n      tag_183\n      jump\t// in\n    tag_243:\n        /* \"#utility.yul\":4194:4196   */\n      0x20\n        /* \"#utility.yul\":4189:4192   */\n      dup3\n        /* \"#utility.yul\":4185:4197   */\n      add\n        /* \"#utility.yul\":4178:4197   */\n      swap1\n      pop\n        /* \"#utility.yul\":3837:4203   */\n      swap2\n      swap1\n      pop\n      jump\t// out\n        /* \"#utility.yul\":4209:4628   */\n    tag_57:\n        /* \"#utility.yul\":4375:4379   */\n      0x00\n        /* \"#utility.yul\":4413:4415   */\n      0x20\n        /* \"#utility.yul\":4402:4411   */\n      dup3\n        /* \"#utility.yul\":4398:4416   */\n      add\n        /* \"#utility.yul\":4390:4416   */\n      swap1\n      pop\n        /* \"#utility.yul\":4462:4471   */\n      dup2\n        /* \"#utility.yul\":4456:4460   */\n      dup2\n        /* \"#utility.yul\":4452:4472   */\n      sub\n        /* \"#utility.yul\":4448:4449   */\n      0x00\n        /* \"#utility.yul\":4437:4446   */\n      dup4\n        /* \"#utility.yul\":4433:4450   */\n      add\n        /* \"#utility.yul\":4426:4473   */\n      mstore\n        /* \"#utility.yul\":4490:4621   */\n      tag_245\n        /* \"#utility.yul\":4616:4620   */\n      dup2\n        /* \"#utility.yul\":4490:4621   */\n      tag_184\n      jump\t// in\n    tag_245:\n        /* \"#utility.yul\":4482:4621   */\n      swap1\n      pop\n        /* \"#utility.yul\":4209:4628   */\n      swap2\n      swap1\n      pop\n      jump\t// out\n        /* \"#utility.yul\":4634:4777   */\n    tag_185:\n        /* \"#utility.yul\":4691:4696   */\n      0x00\n        /* \"#utility.yul\":4722:4728   */\n      dup2\n        /* \"#utility.yul\":4716:4729   */\n      mload\n        /* \"#utility.yul\":4707:4729   */\n      swap1\n      pop\n        /* \"#utility.yul\":4738:4771   */\n      tag_247\n        /* \"#utility.yul\":4765:4770   */\n      dup2\n        /* \"#utility.yul\":4738:4771   */\n      tag_173\n      jump\t// in\n    tag_247:\n        /* \"#utility.yul\":4634:4777   */\n      swap3\n      swap2\n      pop\n      pop\n      jump\t// out\n        /* \"#utility.yul\":4783:5134   */\n    tag_62:\n        /* \"#utility.yul\":4853:4859   */\n      0x00\n        /* \"#utility.yul\":4902:4904   */\n      0x20\n        /* \"#utility.yul\":4890:4899   */\n      dup3\n        /* \"#utility.yul\":4881:4888   */\n      dup5\n        /* \"#utility.yul\":4877:4900   */\n      sub\n        /* \"#utility.yul\":4873:4905   */\n      slt\n        /* \"#utility.yul\":4870:4989   */\n      iszero\n      tag_249\n      jumpi\n        /* \"#utility.yul\":4908:4987   */\n      tag_250\n      tag_171\n      jump\t// in\n    tag_250:\n        /* \"#utility.yul\":4870:4989   */\n    tag_249:\n        /* \"#utility.yul\":5028:5029   */\n      0x00\n        /* \"#utility.yul\":5053:5117   */\n      tag_251\n        /* \"#utility.yul\":5109:5116   */\n      dup5\n        /* \"#utility.yul\":5100:5106   */\n      dup3\n        /* \"#utility.yul\":5089:5098   */\n      dup6\n        /* \"#utility.yul\":5085:5107   */\n      add\n        /* \"#utility.yul\":5053:5117   */\n      tag_185\n      jump\t// in\n    tag_251:\n        /* \"#utility.yul\":5043:5117   */\n      swap2\n      pop\n        /* \"#utility.yul\":4999:5127   */\n      pop\n        /* \"#utility.yul\":4783:5134   */\n      swap3\n      swap2\n      pop\n      pop\n      jump\t// out\n        /* \"#utility.yul\":5140:5582   */\n    tag_70:\n        /* \"#utility.yul\":5289:5293   */\n      0x00\n        /* \"#utility.yul\":5327:5329   */\n      0x60\n        /* \"#utility.yul\":5316:5325   */\n      dup3\n        /* \"#utility.yul\":5312:5330   */\n      add\n        /* \"#utility.yul\":5304:5330   */\n      swap1\n      pop\n        /* \"#utility.yul\":5340:5411   */\n      tag_253\n        /* \"#utility.yul\":5408:5409   */\n      0x00\n        /* \"#utility.yul\":5397:5406   */\n      dup4\n        /* \"#utility.yul\":5393:5410   */\n      add\n        /* \"#utility.yul\":5384:5390   */\n      dup7\n        /* \"#utility.yul\":5340:5411   */\n      tag_177\n      jump\t// in\n    tag_253:\n        /* \"#utility.yul\":5421:5493   */\n      tag_254\n        /* \"#utility.yul\":5489:5491   */\n      0x20\n        /* \"#utility.yul\":5478:5487   */\n      dup4\n        /* \"#utility.yul\":5474:5492   */\n      add\n        /* \"#utility.yul\":5465:5471   */\n      dup6\n        /* \"#utility.yul\":5421:5493   */\n      tag_177\n      jump\t// in\n    tag_254:\n        /* \"#utility.yul\":5503:5575   */\n      tag_255\n        /* \"#utility.yul\":5571:5573   */\n      0x40\n        /* \"#utility.yul\":5560:5569   */\n      dup4\n        /* \"#utility.yul\":5556:5574   */\n      add\n        /* \"#utility.yul\":5547:5553   */\n      dup5\n        /* \"#utility.yul\":5503:5575   */\n      tag_169\n      jump\t// in\n    tag_255:\n        /* \"#utility.yul\":5140:5582   */\n      swap5\n      swap4\n      pop\n      pop\n      pop\n      pop\n      jump\t// out\n        /* \"#utility.yul\":5588:5678   */\n    tag_186:\n        /* \"#utility.yul\":5622:5629   */\n      0x00\n        /* \"#utility.yul\":5665:5670   */\n      dup2\n        /* \"#utility.yul\":5658:5671   */\n      iszero\n        /* \"#utility.yul\":5651:5672   */\n      iszero\n        /* \"#utility.yul\":5640:5672   */\n      swap1\n      pop\n        /* \"#utility.yul\":5588:5678   */\n      swap2\n      swap1\n      pop\n      jump\t// out\n        /* \"#utility.yul\":5684:5800   */\n    tag_187:\n        /* \"#utility.yul\":5754:5775   */\n      tag_258\n        /* \"#utility.yul\":5769:5774   */\n      dup2\n        /* \"#utility.yul\":5754:5775   */\n      tag_186\n      jump\t// in\n    tag_258:\n        /* \"#utility.yul\":5747:5752   */\n      dup2\n        /* \"#utility.yul\":5744:5776   */\n      eq\n        /* \"#utility.yul\":5734:5794   */\n      tag_259\n      jumpi\n        /* \"#utility.yul\":5790:5791   */\n      0x00\n        /* \"#utility.yul\":5787:5788   */\n      dup1\n        /* \"#utility.yul\":5780:5792   */\n      revert\n        /* \"#utility.yul\":5734:5794   */\n    tag_259:\n        /* \"#utility.yul\":5684:5800   */\n      pop\n      jump\t// out\n        /* \"#utility.yul\":5806:5943   */\n    tag_188:\n        /* \"#utility.yul\":5860:5865   */\n      0x00\n        /* \"#utility.yul\":5891:5897   */\n      dup2\n        /* \"#utility.yul\":5885:5898   */\n      mload\n        /* \"#utility.yul\":5876:5898   */\n      swap1\n      pop\n        /* \"#utility.yul\":5907:5937   */\n      tag_261\n        /* \"#utility.yul\":5931:5936   */\n      dup2\n        /* \"#utility.yul\":5907:5937   */\n      tag_187\n      jump\t// in\n    tag_261:\n        /* \"#utility.yul\":5806:5943   */\n      swap3\n      swap2\n      pop\n      pop\n      jump\t// out\n        /* \"#utility.yul\":5949:6294   */\n    tag_74:\n        /* \"#utility.yul\":6016:6022   */\n      0x00\n        /* \"#utility.yul\":6065:6067   */\n      0x20\n        /* \"#utility.yul\":6053:6062   */\n      dup3\n        /* \"#utility.yul\":6044:6051   */\n      dup5\n        /* \"#utility.yul\":6040:6063   */\n      sub\n        /* \"#utility.yul\":6036:6068   */\n      slt\n        /* \"#utility.yul\":6033:6152   */\n      iszero\n      tag_263\n      jumpi\n        /* \"#utility.yul\":6071:6150   */\n      tag_264\n      tag_171\n      jump\t// in\n    tag_264:\n        /* \"#utility.yul\":6033:6152   */\n    tag_263:\n        /* \"#utility.yul\":6191:6192   */\n      0x00\n        /* \"#utility.yul\":6216:6277   */\n      tag_265\n        /* \"#utility.yul\":6269:6276   */\n      dup5\n        /* \"#utility.yul\":6260:6266   */\n      dup3\n        /* \"#utility.yul\":6249:6258   */\n      dup6\n        /* \"#utility.yul\":6245:6267   */\n      add\n        /* \"#utility.yul\":6216:6277   */\n      tag_188\n      jump\t// in\n    tag_265:\n        /* \"#utility.yul\":6206:6277   */\n      swap2\n      pop\n        /* \"#utility.yul\":6162:6287   */\n      pop\n        /* \"#utility.yul\":5949:6294   */\n      swap3\n      swap2\n      pop\n      pop\n      jump\t// out\n        /* \"#utility.yul\":6300:6632   */\n    tag_76:\n        /* \"#utility.yul\":6421:6425   */\n      0x00\n        /* \"#utility.yul\":6459:6461   */\n      0x40\n        /* \"#utility.yul\":6448:6457   */\n      dup3\n        /* \"#utility.yul\":6444:6462   */\n      add\n        /* \"#utility.yul\":6436:6462   */\n      swap1\n      pop\n        /* \"#utility.yul\":6472:6543   */\n      tag_267\n        /* \"#utility.yul\":6540:6541   */\n      0x00\n        /* \"#utility.yul\":6529:6538   */\n      dup4\n        /* \"#utility.yul\":6525:6542   */\n      add\n        /* \"#utility.yul\":6516:6522   */\n      dup6\n        /* \"#utility.yul\":6472:6543   */\n      tag_177\n      jump\t// in\n    tag_267:\n        /* \"#utility.yul\":6553:6625   */\n      tag_268\n        /* \"#utility.yul\":6621:6623   */\n      0x20\n        /* \"#utility.yul\":6610:6619   */\n      dup4\n        /* \"#utility.yul\":6606:6624   */\n      add\n        /* \"#utility.yul\":6597:6603   */\n      dup5\n        /* \"#utility.yul\":6553:6625   */\n      tag_169\n      jump\t// in\n    tag_268:\n        /* \"#utility.yul\":6300:6632   */\n      swap4\n      swap3\n      pop\n      pop\n      pop\n      jump\t// out\n        /* \"#utility.yul\":6638:6810   */\n    tag_189:\n        /* \"#utility.yul\":6778:6802   */\n      0x7573657220686173206e6f7420656e6f756768206c7000000000000000000000\n        /* \"#utility.yul\":6774:6775   */\n      0x00\n        /* \"#utility.yul\":6766:6772   */\n      dup3\n        /* \"#utility.yul\":6762:6776   */\n      add\n        /* \"#utility.yul\":6755:6803   */\n      mstore\n        /* \"#utility.yul\":6638:6810   */\n      pop\n      jump\t// out\n        /* \"#utility.yul\":6816:7182   */\n    tag_190:\n        /* \"#utility.yul\":6958:6961   */\n      0x00\n        /* \"#utility.yul\":6979:7046   */\n      tag_271\n        /* \"#utility.yul\":7043:7045   */\n      0x16\n        /* \"#utility.yul\":7038:7041   */\n      dup4\n        /* \"#utility.yul\":6979:7046   */\n      tag_182\n      jump\t// in\n    tag_271:\n        /* \"#utility.yul\":6972:7046   */\n      swap2\n      pop\n        /* \"#utility.yul\":7055:7148   */\n      tag_272\n        /* \"#utility.yul\":7144:7147   */\n      dup3\n        /* \"#utility.yul\":7055:7148   */\n      tag_189\n      jump\t// in\n    tag_272:\n        /* \"#utility.yul\":7173:7175   */\n      0x20\n        /* \"#utility.yul\":7168:7171   */\n      dup3\n        /* \"#utility.yul\":7164:7176   */\n      add\n        /* \"#utility.yul\":7157:7176   */\n      swap1\n      pop\n        /* \"#utility.yul\":6816:7182   */\n      swap2\n      swap1\n      pop\n      jump\t// out\n        /* \"#utility.yul\":7188:7607   */\n    tag_83:\n        /* \"#utility.yul\":7354:7358   */\n      0x00\n        /* \"#utility.yul\":7392:7394   */\n      0x20\n        /* \"#utility.yul\":7381:7390   */\n      dup3\n        /* \"#utility.yul\":7377:7395   */\n      add\n        /* \"#utility.yul\":7369:7395   */\n      swap1\n      pop\n        /* \"#utility.yul\":7441:7450   */\n      dup2\n        /* \"#utility.yul\":7435:7439   */\n      dup2\n        /* \"#utility.yul\":7431:7451   */\n      sub\n        /* \"#utility.yul\":7427:7428   */\n      0x00\n        /* \"#utility.yul\":7416:7425   */\n      dup4\n        /* \"#utility.yul\":7412:7429   */\n      add\n        /* \"#utility.yul\":7405:7452   */\n      mstore\n        /* \"#utility.yul\":7469:7600   */\n      tag_274\n        /* \"#utility.yul\":7595:7599   */\n      dup2\n        /* \"#utility.yul\":7469:7600   */\n      tag_190\n      jump\t// in\n    tag_274:\n        /* \"#utility.yul\":7461:7600   */\n      swap1\n      pop\n        /* \"#utility.yul\":7188:7607   */\n      swap2\n      swap1\n      pop\n      jump\t// out\n        /* \"#utility.yul\":7613:7793   */\n    tag_191:\n        /* \"#utility.yul\":7661:7738   */\n      0x4e487b7100000000000000000000000000000000000000000000000000000000\n        /* \"#utility.yul\":7658:7659   */\n      0x00\n        /* \"#utility.yul\":7651:7739   */\n      mstore\n        /* \"#utility.yul\":7758:7762   */\n      0x11\n        /* \"#utility.yul\":7755:7756   */\n      0x04\n        /* \"#utility.yul\":7748:7763   */\n      mstore\n        /* \"#utility.yul\":7782:7786   */\n      0x24\n        /* \"#utility.yul\":7779:7780   */\n      0x00\n        /* \"#utility.yul\":7772:7787   */\n      revert\n        /* \"#utility.yul\":7799:8209   */\n    tag_89:\n        /* \"#utility.yul\":7839:7846   */\n      0x00\n        /* \"#utility.yul\":7862:7882   */\n      tag_277\n        /* \"#utility.yul\":7880:7881   */\n      dup3\n        /* \"#utility.yul\":7862:7882   */\n      tag_168\n      jump\t// in\n    tag_277:\n        /* \"#utility.yul\":7857:7882   */\n      swap2\n      pop\n        /* \"#utility.yul\":7896:7916   */\n      tag_278\n        /* \"#utility.yul\":7914:7915   */\n      dup4\n        /* \"#utility.yul\":7896:7916   */\n      tag_168\n      jump\t// in\n    tag_278:\n        /* \"#utility.yul\":7891:7916   */\n      swap3\n      pop\n        /* \"#utility.yul\":7951:7952   */\n      dup3\n        /* \"#utility.yul\":7948:7949   */\n      dup3\n        /* \"#utility.yul\":7944:7953   */\n      mul\n        /* \"#utility.yul\":7973:8003   */\n      tag_279\n        /* \"#utility.yul\":7991:8002   */\n      dup2\n        /* \"#utility.yul\":7973:8003   */\n      tag_168\n      jump\t// in\n    tag_279:\n        /* \"#utility.yul\":7962:8003   */\n      swap2\n      pop\n        /* \"#utility.yul\":8152:8153   */\n      dup3\n        /* \"#utility.yul\":8143:8150   */\n      dup3\n        /* \"#utility.yul\":8139:8154   */\n      div\n        /* \"#utility.yul\":8136:8137   */\n      dup5\n        /* \"#utility.yul\":8133:8155   */\n      eq\n        /* \"#utility.yul\":8113:8114   */\n      dup4\n        /* \"#utility.yul\":8106:8115   */\n      iszero\n        /* \"#utility.yul\":8086:8169   */\n      or\n        /* \"#utility.yul\":8063:8202   */\n      tag_280\n      jumpi\n        /* \"#utility.yul\":8182:8200   */\n      tag_281\n      tag_191\n      jump\t// in\n    tag_281:\n        /* \"#utility.yul\":8063:8202   */\n    tag_280:\n        /* \"#utility.yul\":7847:8209   */\n      pop\n        /* \"#utility.yul\":7799:8209   */\n      swap3\n      swap2\n      pop\n      pop\n      jump\t// out\n        /* \"#utility.yul\":8215:8395   */\n    tag_192:\n        /* \"#utility.yul\":8263:8340   */\n      0x4e487b7100000000000000000000000000000000000000000000000000000000\n        /* \"#utility.yul\":8260:8261   */\n      0x00\n        /* \"#utility.yul\":8253:8341   */\n      mstore\n        /* \"#utility.yul\":8360:8364   */\n      0x12\n        /* \"#utility.yul\":8357:8358   */\n      0x04\n        /* \"#utility.yul\":8350:8365   */\n      mstore\n        /* \"#utility.yul\":8384:8388   */\n      0x24\n        /* \"#utility.yul\":8381:8382   */\n      0x00\n        /* \"#utility.yul\":8374:8389   */\n      revert\n        /* \"#utility.yul\":8401:8586   */\n    tag_91:\n        /* \"#utility.yul\":8441:8442   */\n      0x00\n        /* \"#utility.yul\":8458:8478   */\n      tag_284\n        /* \"#utility.yul\":8476:8477   */\n      dup3\n        /* \"#utility.yul\":8458:8478   */\n      tag_168\n      jump\t// in\n    tag_284:\n        /* \"#utility.yul\":8453:8478   */\n      swap2\n      pop\n        /* \"#utility.yul\":8492:8512   */\n      tag_285\n        /* \"#utility.yul\":8510:8511   */\n      dup4\n        /* \"#utility.yul\":8492:8512   */\n      tag_168\n      jump\t// in\n    tag_285:\n        /* \"#utility.yul\":8487:8512   */\n      swap3\n      pop\n        /* \"#utility.yul\":8531:8532   */\n      dup3\n        /* \"#utility.yul\":8521:8556   */\n      tag_286\n      jumpi\n        /* \"#utility.yul\":8536:8554   */\n      tag_287\n      tag_192\n      jump\t// in\n    tag_287:\n        /* \"#utility.yul\":8521:8556   */\n    tag_286:\n        /* \"#utility.yul\":8578:8579   */\n      dup3\n        /* \"#utility.yul\":8575:8576   */\n      dup3\n        /* \"#utility.yul\":8571:8580   */\n      div\n        /* \"#utility.yul\":8566:8580   */\n      swap1\n      pop\n        /* \"#utility.yul\":8401:8586   */\n      swap3\n      swap2\n      pop\n      pop\n      jump\t// out\n        /* \"#utility.yul\":8592:8786   */\n    tag_99:\n        /* \"#utility.yul\":8632:8636   */\n      0x00\n        /* \"#utility.yul\":8652:8672   */\n      tag_289\n        /* \"#utility.yul\":8670:8671   */\n      dup3\n        /* \"#utility.yul\":8652:8672   */\n      tag_168\n      jump\t// in\n    tag_289:\n        /* \"#utility.yul\":8647:8672   */\n      swap2\n      pop\n        /* \"#utility.yul\":8686:8706   */\n      tag_290\n        /* \"#utility.yul\":8704:8705   */\n      dup4\n        /* \"#utility.yul\":8686:8706   */\n      tag_168\n      jump\t// in\n    tag_290:\n        /* \"#utility.yul\":8681:8706   */\n      swap3\n      pop\n        /* \"#utility.yul\":8730:8731   */\n      dup3\n        /* \"#utility.yul\":8727:8728   */\n      dup3\n        /* \"#utility.yul\":8723:8732   */\n      sub\n        /* \"#utility.yul\":8715:8732   */\n      swap1\n      pop\n        /* \"#utility.yul\":8754:8755   */\n      dup2\n        /* \"#utility.yul\":8748:8752   */\n      dup2\n        /* \"#utility.yul\":8745:8756   */\n      gt\n        /* \"#utility.yul\":8742:8779   */\n      iszero\n      tag_291\n      jumpi\n        /* \"#utility.yul\":8759:8777   */\n      tag_292\n      tag_191\n      jump\t// in\n    tag_292:\n        /* \"#utility.yul\":8742:8779   */\n    tag_291:\n        /* \"#utility.yul\":8592:8786   */\n      swap3\n      swap2\n      pop\n      pop\n      jump\t// out\n        /* \"#utility.yul\":8792:8983   */\n    tag_119:\n        /* \"#utility.yul\":8832:8835   */\n      0x00\n        /* \"#utility.yul\":8851:8871   */\n      tag_294\n        /* \"#utility.yul\":8869:8870   */\n      dup3\n        /* \"#utility.yul\":8851:8871   */\n      tag_168\n      jump\t// in\n    tag_294:\n        /* \"#utility.yul\":8846:8871   */\n      swap2\n      pop\n        /* \"#utility.yul\":8885:8905   */\n      tag_295\n        /* \"#utility.yul\":8903:8904   */\n      dup4\n        /* \"#utility.yul\":8885:8905   */\n      tag_168\n      jump\t// in\n    tag_295:\n        /* \"#utility.yul\":8880:8905   */\n      swap3\n      pop\n        /* \"#utility.yul\":8928:8929   */\n      dup3\n        /* \"#utility.yul\":8925:8926   */\n      dup3\n        /* \"#utility.yul\":8921:8930   */\n      add\n        /* \"#utility.yul\":8914:8930   */\n      swap1\n      pop\n        /* \"#utility.yul\":8949:8952   */\n      dup1\n        /* \"#utility.yul\":8946:8947   */\n      dup3\n        /* \"#utility.yul\":8943:8953   */\n      gt\n        /* \"#utility.yul\":8940:8976   */\n      iszero\n      tag_296\n      jumpi\n        /* \"#utility.yul\":8956:8974   */\n      tag_297\n      tag_191\n      jump\t// in\n    tag_297:\n        /* \"#utility.yul\":8940:8976   */\n    tag_296:\n        /* \"#utility.yul\":8792:8983   */\n      swap3\n      swap2\n      pop\n      pop\n      jump\t// out\n        /* \"#utility.yul\":8989:9155   */\n    tag_193:\n        /* \"#utility.yul\":9129:9147   */\n      0x496e76616c696420726573657276657300000000000000000000000000000000\n        /* \"#utility.yul\":9125:9126   */\n      0x00\n        /* \"#utility.yul\":9117:9123   */\n      dup3\n        /* \"#utility.yul\":9113:9127   */\n      add\n        /* \"#utility.yul\":9106:9148   */\n      mstore\n        /* \"#utility.yul\":8989:9155   */\n      pop\n      jump\t// out\n        /* \"#utility.yul\":9161:9527   */\n    tag_194:\n        /* \"#utility.yul\":9303:9306   */\n      0x00\n        /* \"#utility.yul\":9324:9391   */\n      tag_300\n        /* \"#utility.yul\":9388:9390   */\n      0x10\n        /* \"#utility.yul\":9383:9386   */\n      dup4\n        /* \"#utility.yul\":9324:9391   */\n      tag_182\n      jump\t// in\n    tag_300:\n        /* \"#utility.yul\":9317:9391   */\n      swap2\n      pop\n        /* \"#utility.yul\":9400:9493   */\n      tag_301\n        /* \"#utility.yul\":9489:9492   */\n      dup3\n        /* \"#utility.yul\":9400:9493   */\n      tag_193\n      jump\t// in\n    tag_301:\n        /* \"#utility.yul\":9518:9520   */\n      0x20\n        /* \"#utility.yul\":9513:9516   */\n      dup3\n        /* \"#utility.yul\":9509:9521   */\n      add\n        /* \"#utility.yul\":9502:9521   */\n      swap1\n      pop\n        /* \"#utility.yul\":9161:9527   */\n      swap2\n      swap1\n      pop\n      jump\t// out\n        /* \"#utility.yul\":9533:9952   */\n    tag_160:\n        /* \"#utility.yul\":9699:9703   */\n      0x00\n        /* \"#utility.yul\":9737:9739   */\n      0x20\n        /* \"#utility.yul\":9726:9735   */\n      dup3\n        /* \"#utility.yul\":9722:9740   */\n      add\n        /* \"#utility.yul\":9714:9740   */\n      swap1\n      pop\n        /* \"#utility.yul\":9786:9795   */\n      dup2\n        /* \"#utility.yul\":9780:9784   */\n      dup2\n        /* \"#utility.yul\":9776:9796   */\n      sub\n        /* \"#utility.yul\":9772:9773   */\n      0x00\n        /* \"#utility.yul\":9761:9770   */\n      dup4\n        /* \"#utility.yul\":9757:9774   */\n      add\n        /* \"#utility.yul\":9750:9797   */\n      mstore\n        /* \"#utility.yul\":9814:9945   */\n      tag_303\n        /* \"#utility.yul\":9940:9944   */\n      dup2\n        /* \"#utility.yul\":9814:9945   */\n      tag_194\n      jump\t// in\n    tag_303:\n        /* \"#utility.yul\":9806:9945   */\n      swap1\n      pop\n        /* \"#utility.yul\":9533:9952   */\n      swap2\n      swap1\n      pop\n      jump\t// out\n        /* \"#utility.yul\":9958:10154   */\n    tag_162:\n        /* \"#utility.yul\":9997:10001   */\n      0x00\n        /* \"#utility.yul\":10017:10036   */\n      tag_305\n        /* \"#utility.yul\":10034:10035   */\n      dup3\n        /* \"#utility.yul\":10017:10036   */\n      tag_180\n      jump\t// in\n    tag_305:\n        /* \"#utility.yul\":10012:10036   */\n      swap2\n      pop\n        /* \"#utility.yul\":10050:10069   */\n      tag_306\n        /* \"#utility.yul\":10067:10068   */\n      dup4\n        /* \"#utility.yul\":10050:10069   */\n      tag_180\n      jump\t// in\n    tag_306:\n        /* \"#utility.yul\":10045:10069   */\n      swap3\n      pop\n        /* \"#utility.yul\":10093:10094   */\n      dup3\n        /* \"#utility.yul\":10090:10091   */\n      dup3\n        /* \"#utility.yul\":10086:10095   */\n      sub\n        /* \"#utility.yul\":10078:10095   */\n      swap1\n      pop\n        /* \"#utility.yul\":10117:10123   */\n      0xffff\n        /* \"#utility.yul\":10111:10115   */\n      dup2\n        /* \"#utility.yul\":10108:10124   */\n      gt\n        /* \"#utility.yul\":10105:10147   */\n      iszero\n      tag_307\n      jumpi\n        /* \"#utility.yul\":10127:10145   */\n      tag_308\n      tag_191\n      jump\t// in\n    tag_308:\n        /* \"#utility.yul\":10105:10147   */\n    tag_307:\n        /* \"#utility.yul\":9958:10154   */\n      swap3\n      swap2\n      pop\n      pop\n      jump\t// out\n\n    auxdata: 0xa2646970667358221220b99c0a0401d3b68db56cb7169f7a754dce5d4b0f2d257507417a0f3f1a743ebd64736f6c634300081a0033\n}\n",
				"bytecode": {
					"linkReferences": {},
					"object": "608060405234801561000f575f80fd5b506040516117033803806117038339818101604052810190610031919061016a565b825f806101000a81548173ffffffffffffffffffffffffffffffffffffffff021916908373ffffffffffffffffffffffffffffffffffffffff1602179055508160015f6101000a81548173ffffffffffffffffffffffffffffffffffffffff021916908373ffffffffffffffffffffffffffffffffffffffff16021790555080600160146101000a81548161ffff021916908361ffff1602179055505050506101ba565b5f80fd5b5f73ffffffffffffffffffffffffffffffffffffffff82169050919050565b5f610102826100d9565b9050919050565b610112816100f8565b811461011c575f80fd5b50565b5f8151905061012d81610109565b92915050565b5f61ffff82169050919050565b61014981610133565b8114610153575f80fd5b50565b5f8151905061016481610140565b92915050565b5f805f60608486031215610181576101806100d5565b5b5f61018e8682870161011f565b935050602061019f8682870161011f565b92505060406101b086828701610156565b9150509250925092565b61153c806101c75f395ff3fe608060405260043610610085575f3560e01c80639cd441da116100585780639cd441da1461012d578063b8c876b114610149578063caffdf4414610185578063fb840c82146101ad578063fc0c546a146101d757610085565b806315770f921461008957806315d3eadd146100b35780633fc8cef3146100db5780639c8f9f2314610105575b5f80fd5b348015610094575f80fd5b5061009d610201565b6040516100aa9190610fcb565b60405180910390f35b3480156100be575f80fd5b506100d960048036038101906100d49190611012565b610207565b005b3480156100e6575f80fd5b506100ef6104ce565b6040516100fc919061107c565b60405180910390f35b348015610110575f80fd5b5061012b60048036038101906101269190611012565b6104f1565b005b61014760048036038101906101429190611095565b61087f565b005b348015610154575f80fd5b5061016f600480360381019061016a91906110fd565b610be7565b60405161017c9190610fcb565b60405180910390f35b348015610190575f80fd5b506101ab60048036038101906101a69190611012565b610bfc565b005b3480156101b8575f80fd5b506101c1610ec3565b6040516101ce9190611144565b60405180910390f35b3480156101e2575f80fd5b506101eb610ed7565b6040516101f8919061107c565b60405180910390f35b60025481565b5f8111610249576040517f08c379a0000000000000000000000000000000000000000000000000000000008152600401610240906111b7565b60405180910390fd5b5f805f9054906101000a900473ffffffffffffffffffffffffffffffffffffffff1673ffffffffffffffffffffffffffffffffffffffff166370a08231306040518263ffffffff1660e01b81526004016102a3919061107c565b602060405180830381865afa1580156102be573d5f803e3d5ffd5b505050506040513d601f19601f820116820180604052508101906102e291906111e9565b90505f60015f9054906101000a900473ffffffffffffffffffffffffffffffffffffffff1673ffffffffffffffffffffffffffffffffffffffff166370a08231306040518263ffffffff1660e01b815260040161033f919061107c565b602060405180830381865afa15801561035a573d5f803e3d5ffd5b505050506040513d601f19601f8201168201806040525081019061037e91906111e9565b90505f61038c848484610efc565b90505f8054906101000a900473ffffffffffffffffffffffffffffffffffffffff1673ffffffffffffffffffffffffffffffffffffffff166323b872dd3330876040518463ffffffff1660e01b81526004016103ea93929190611214565b6020604051808303815f875af1158015610406573d5f803e3d5ffd5b505050506040513d601f19601f8201168201806040525081019061042a919061127e565b5060015f9054906101000a900473ffffffffffffffffffffffffffffffffffffffff1673ffffffffffffffffffffffffffffffffffffffff1663a9059cbb33836040518363ffffffff1660e01b81526004016104879291906112a9565b6020604051808303815f875af11580156104a3573d5f803e3d5ffd5b505050506040513d601f19601f820116820180604052508101906104c7919061127e565b5050505050565b5f8054906101000a900473ffffffffffffffffffffffffffffffffffffffff1681565b8060035f3373ffffffffffffffffffffffffffffffffffffffff1673ffffffffffffffffffffffffffffffffffffffff1681526020019081526020015f20541015610571576040517f08c379a00000000000000000000000000000000000000000000000000000000081526004016105689061131a565b60405180910390fd5b5f6002545f8054906101000a900473ffffffffffffffffffffffffffffffffffffffff1673ffffffffffffffffffffffffffffffffffffffff166370a08231306040518263ffffffff1660e01b81526004016105cd919061107c565b602060405180830381865afa1580156105e8573d5f803e3d5ffd5b505050506040513d601f19601f8201168201806040525081019061060c91906111e9565b836106179190611365565b61062191906113d3565b90505f60025460015f9054906101000a900473ffffffffffffffffffffffffffffffffffffffff1673ffffffffffffffffffffffffffffffffffffffff166370a08231306040518263ffffffff1660e01b8152600401610681919061107c565b602060405180830381865afa15801561069c573d5f803e3d5ffd5b505050506040513d601f19601f820116820180604052508101906106c091906111e9565b846106cb9190611365565b6106d591906113d3565b90508260035f3373ffffffffffffffffffffffffffffffffffffffff1673ffffffffffffffffffffffffffffffffffffffff1681526020019081526020015f205f8282546107239190611403565b925050819055508260025f82825461073b9190611403565b925050819055505f8054906101000a900473ffffffffffffffffffffffffffffffffffffffff1673ffffffffffffffffffffffffffffffffffffffff1663a9059cbb33846040518363ffffffff1660e01b815260040161079c9291906112a9565b6020604051808303815f875af11580156107b8573d5f803e3d5ffd5b505050506040513d601f19601f820116820180604052508101906107dc919061127e565b5060015f9054906101000a900473ffffffffffffffffffffffffffffffffffffffff1673ffffffffffffffffffffffffffffffffffffffff1663a9059cbb33836040518363ffffffff1660e01b81526004016108399291906112a9565b6020604051808303815f875af1158015610855573d5f803e3d5ffd5b505050506040513d601f19601f82011682018060405250810190610879919061127e565b50505050565b5f805f9054906101000a900473ffffffffffffffffffffffffffffffffffffffff1673ffffffffffffffffffffffffffffffffffffffff166370a08231306040518263ffffffff1660e01b81526004016108d9919061107c565b602060405180830381865afa1580156108f4573d5f803e3d5ffd5b505050506040513d601f19601f8201168201806040525081019061091891906111e9565b90505f60015f9054906101000a900473ffffffffffffffffffffffffffffffffffffffff1673ffffffffffffffffffffffffffffffffffffffff166370a08231306040518263ffffffff1660e01b8152600401610975919061107c565b602060405180830381865afa158015610990573d5f803e3d5ffd5b505050506040513d601f19601f820116820180604052508101906109b491906111e9565b90505f81838385886109c69190611436565b6109d09190611365565b6109da91906113d3565b6109e49190611403565b90505f851180156109f55750808410155b610a34576040517f08c379a0000000000000000000000000000000000000000000000000000000008152600401610a2b906111b7565b60405180910390fd5b5f8054906101000a900473ffffffffffffffffffffffffffffffffffffffff1673ffffffffffffffffffffffffffffffffffffffff166323b872dd3330886040518463ffffffff1660e01b8152600401610a9093929190611214565b6020604051808303815f875af1158015610aac573d5f803e3d5ffd5b505050506040513d601f19601f82011682018060405250810190610ad0919061127e565b5060015f9054906101000a900473ffffffffffffffffffffffffffffffffffffffff1673ffffffffffffffffffffffffffffffffffffffff166323b872dd3330876040518463ffffffff1660e01b8152600401610b2f93929190611214565b6020604051808303815f875af1158015610b4b573d5f803e3d5ffd5b505050506040513d601f19601f82011682018060405250810190610b6f919061127e565b505f8590508060035f3373ffffffffffffffffffffffffffffffffffffffff1673ffffffffffffffffffffffffffffffffffffffff1681526020019081526020015f205f828254610bc09190611436565b925050819055508060025f828254610bd89190611436565b92505081905550505050505050565b6003602052805f5260405f205f915090505481565b5f8111610c3e576040517f08c379a0000000000000000000000000000000000000000000000000000000008152600401610c35906111b7565b60405180910390fd5b5f805f9054906101000a900473ffffffffffffffffffffffffffffffffffffffff1673ffffffffffffffffffffffffffffffffffffffff166370a08231306040518263ffffffff1660e01b8152600401610c98919061107c565b602060405180830381865afa158015610cb3573d5f803e3d5ffd5b505050506040513d601f19601f82011682018060405250810190610cd791906111e9565b90505f60015f9054906101000a900473ffffffffffffffffffffffffffffffffffffffff1673ffffffffffffffffffffffffffffffffffffffff166370a08231306040518263ffffffff1660e01b8152600401610d34919061107c565b602060405180830381865afa158015610d4f573d5f803e3d5ffd5b505050506040513d601f19601f82011682018060405250810190610d7391906111e9565b90505f610d81848385610efc565b905060015f9054906101000a900473ffffffffffffffffffffffffffffffffffffffff1673ffffffffffffffffffffffffffffffffffffffff166323b872dd3330876040518463ffffffff1660e01b8152600401610de193929190611214565b6020604051808303815f875af1158015610dfd573d5f803e3d5ffd5b505050506040513d601f19601f82011682018060405250810190610e21919061127e565b505f8054906101000a900473ffffffffffffffffffffffffffffffffffffffff1673ffffffffffffffffffffffffffffffffffffffff1663a9059cbb33836040518363ffffffff1660e01b8152600401610e7c9291906112a9565b6020604051808303815f875af1158015610e98573d5f803e3d5ffd5b505050506040513d601f19601f82011682018060405250810190610ebc919061127e565b5050505050565b600160149054906101000a900461ffff1681565b60015f9054906101000a900473ffffffffffffffffffffffffffffffffffffffff1681565b5f8083118015610f0b57505f82115b610f4a576040517f08c379a0000000000000000000000000000000000000000000000000000000008152600401610f41906114b3565b60405180910390fd5b5f600160149054906101000a900461ffff166103e8610f6991906114d1565b61ffff1685610f789190611365565b9050806103e885610f899190611365565b610f939190611436565b8382610f9f9190611365565b610fa991906113d3565b9150509392505050565b5f819050919050565b610fc581610fb3565b82525050565b5f602082019050610fde5f830184610fbc565b92915050565b5f80fd5b610ff181610fb3565b8114610ffb575f80fd5b50565b5f8135905061100c81610fe8565b92915050565b5f6020828403121561102757611026610fe4565b5b5f61103484828501610ffe565b91505092915050565b5f73ffffffffffffffffffffffffffffffffffffffff82169050919050565b5f6110668261103d565b9050919050565b6110768161105c565b82525050565b5f60208201905061108f5f83018461106d565b92915050565b5f80604083850312156110ab576110aa610fe4565b5b5f6110b885828601610ffe565b92505060206110c985828601610ffe565b9150509250929050565b6110dc8161105c565b81146110e6575f80fd5b50565b5f813590506110f7816110d3565b92915050565b5f6020828403121561111257611111610fe4565b5b5f61111f848285016110e9565b91505092915050565b5f61ffff82169050919050565b61113e81611128565b82525050565b5f6020820190506111575f830184611135565b92915050565b5f82825260208201905092915050565b7f496e76616c696420616d6f756e747300000000000000000000000000000000005f82015250565b5f6111a1600f8361115d565b91506111ac8261116d565b602082019050919050565b5f6020820190508181035f8301526111ce81611195565b9050919050565b5f815190506111e381610fe8565b92915050565b5f602082840312156111fe576111fd610fe4565b5b5f61120b848285016111d5565b91505092915050565b5f6060820190506112275f83018661106d565b611234602083018561106d565b6112416040830184610fbc565b949350505050565b5f8115159050919050565b61125d81611249565b8114611267575f80fd5b50565b5f8151905061127881611254565b92915050565b5f6020828403121561129357611292610fe4565b5b5f6112a08482850161126a565b91505092915050565b5f6040820190506112bc5f83018561106d565b6112c96020830184610fbc565b9392505050565b7f7573657220686173206e6f7420656e6f756768206c70000000000000000000005f82015250565b5f61130460168361115d565b915061130f826112d0565b602082019050919050565b5f6020820190508181035f830152611331816112f8565b9050919050565b7f4e487b71000000000000000000000000000000000000000000000000000000005f52601160045260245ffd5b5f61136f82610fb3565b915061137a83610fb3565b925082820261138881610fb3565b9150828204841483151761139f5761139e611338565b5b5092915050565b7f4e487b71000000000000000000000000000000000000000000000000000000005f52601260045260245ffd5b5f6113dd82610fb3565b91506113e883610fb3565b9250826113f8576113f76113a6565b5b828204905092915050565b5f61140d82610fb3565b915061141883610fb3565b92508282039050818111156114305761142f611338565b5b92915050565b5f61144082610fb3565b915061144b83610fb3565b925082820190508082111561146357611462611338565b5b92915050565b7f496e76616c6964207265736572766573000000000000000000000000000000005f82015250565b5f61149d60108361115d565b91506114a882611469565b602082019050919050565b5f6020820190508181035f8301526114ca81611491565b9050919050565b5f6114db82611128565b91506114e683611128565b9250828203905061ffff811115611500576114ff611338565b5b9291505056fea2646970667358221220b99c0a0401d3b68db56cb7169f7a754dce5d4b0f2d257507417a0f3f1a743ebd64736f6c634300081a0033",
					"opcodes": "PUSH1 0x80 PUSH1 0x40 MSTORE CALLVALUE DUP1 ISZERO PUSH2 0xF JUMPI PUSH0 DUP1 REVERT JUMPDEST POP PUSH1 0x40 MLOAD PUSH2 0x1703 CODESIZE SUB DUP1 PUSH2 0x1703 DUP4 CODECOPY DUP2 DUP2 ADD PUSH1 0x40 MSTORE DUP2 ADD SWAP1 PUSH2 0x31 SWAP2 SWAP1 PUSH2 0x16A JUMP JUMPDEST DUP3 PUSH0 DUP1 PUSH2 0x100 EXP DUP2 SLOAD DUP2 PUSH20 0xFFFFFFFFFFFFFFFFFFFFFFFFFFFFFFFFFFFFFFFF MUL NOT AND SWAP1 DUP4 PUSH20 0xFFFFFFFFFFFFFFFFFFFFFFFFFFFFFFFFFFFFFFFF AND MUL OR SWAP1 SSTORE POP DUP2 PUSH1 0x1 PUSH0 PUSH2 0x100 EXP DUP2 SLOAD DUP2 PUSH20 0xFFFFFFFFFFFFFFFFFFFFFFFFFFFFFFFFFFFFFFFF MUL NOT AND SWAP1 DUP4 PUSH20 0xFFFFFFFFFFFFFFFFFFFFFFFFFFFFFFFFFFFFFFFF AND MUL OR SWAP1 SSTORE POP DUP1 PUSH1 0x1 PUSH1 0x14 PUSH2 0x100 EXP DUP2 SLOAD DUP2 PUSH2 0xFFFF MUL NOT AND SWAP1 DUP4 PUSH2 0xFFFF AND MUL OR SWAP1 SSTORE POP POP POP POP PUSH2 0x1BA JUMP JUMPDEST PUSH0 DUP1 REVERT JUMPDEST PUSH0 PUSH20 0xFFFFFFFFFFFFFFFFFFFFFFFFFFFFFFFFFFFFFFFF DUP3 AND SWAP1 POP SWAP2 SWAP1 POP JUMP JUMPDEST PUSH0 PUSH2 0x102 DUP3 PUSH2 0xD9 JUMP JUMPDEST SWAP1 POP SWAP2 SWAP1 POP JUMP JUMPDEST PUSH2 0x112 DUP2 PUSH2 0xF8 JUMP JUMPDEST DUP2 EQ PUSH2 0x11C JUMPI PUSH0 DUP1 REVERT JUMPDEST POP JUMP JUMPDEST PUSH0 DUP2 MLOAD SWAP1 POP PUSH2 0x12D DUP2 PUSH2 0x109 JUMP JUMPDEST SWAP3 SWAP2 POP POP JUMP JUMPDEST PUSH0 PUSH2 0xFFFF DUP3 AND SWAP1 POP SWAP2 SWAP1 POP JUMP JUMPDEST PUSH2 0x149 DUP2 PUSH2 0x133 JUMP JUMPDEST DUP2 EQ PUSH2 0x153 JUMPI PUSH0 DUP1 REVERT JUMPDEST POP JUMP JUMPDEST PUSH0 DUP2 MLOAD SWAP1 POP PUSH2 0x164 DUP2 PUSH2 0x140 JUMP JUMPDEST SWAP3 SWAP2 POP POP JUMP JUMPDEST PUSH0 DUP1 PUSH0 PUSH1 0x60 DUP5 DUP7 SUB SLT ISZERO PUSH2 0x181 JUMPI PUSH2 0x180 PUSH2 0xD5 JUMP JUMPDEST JUMPDEST PUSH0 PUSH2 0x18E DUP7 DUP3 DUP8 ADD PUSH2 0x11F JUMP JUMPDEST SWAP4 POP POP PUSH1 0x20 PUSH2 0x19F DUP7 DUP3 DUP8 ADD PUSH2 0x11F JUMP JUMPDEST SWAP3 POP POP PUSH1 0x40 PUSH2 0x1B0 DUP7 DUP3 DUP8 ADD PUSH2 0x156 JUMP JUMPDEST SWAP2 POP POP SWAP3 POP SWAP3 POP SWAP3 JUMP JUMPDEST PUSH2 0x153C DUP1 PUSH2 0x1C7 PUSH0 CODECOPY PUSH0 RETURN INVALID PUSH1 0x80 PUSH1 0x40 MSTORE PUSH1 0x4 CALLDATASIZE LT PUSH2 0x85 JUMPI PUSH0 CALLDATALOAD PUSH1 0xE0 SHR DUP1 PUSH4 0x9CD441DA GT PUSH2 0x58 JUMPI DUP1 PUSH4 0x9CD441DA EQ PUSH2 0x12D JUMPI DUP1 PUSH4 0xB8C876B1 EQ PUSH2 0x149 JUMPI DUP1 PUSH4 0xCAFFDF44 EQ PUSH2 0x185 JUMPI DUP1 PUSH4 0xFB840C82 EQ PUSH2 0x1AD JUMPI DUP1 PUSH4 0xFC0C546A EQ PUSH2 0x1D7 JUMPI PUSH2 0x85 JUMP JUMPDEST DUP1 PUSH4 0x15770F92 EQ PUSH2 0x89 JUMPI DUP1 PUSH4 0x15D3EADD EQ PUSH2 0xB3 JUMPI DUP1 PUSH4 0x3FC8CEF3 EQ PUSH2 0xDB JUMPI DUP1 PUSH4 0x9C8F9F23 EQ PUSH2 0x105 JUMPI JUMPDEST PUSH0 DUP1 REVERT JUMPDEST CALLVALUE DUP1 ISZERO PUSH2 0x94 JUMPI PUSH0 DUP1 REVERT JUMPDEST POP PUSH2 0x9D PUSH2 0x201 JUMP JUMPDEST PUSH1 0x40 MLOAD PUSH2 0xAA SWAP2 SWAP1 PUSH2 0xFCB JUMP JUMPDEST PUSH1 0x40 MLOAD DUP1 SWAP2 SUB SWAP1 RETURN JUMPDEST CALLVALUE DUP1 ISZERO PUSH2 0xBE JUMPI PUSH0 DUP1 REVERT JUMPDEST POP PUSH2 0xD9 PUSH1 0x4 DUP1 CALLDATASIZE SUB DUP2 ADD SWAP1 PUSH2 0xD4 SWAP2 SWAP1 PUSH2 0x1012 JUMP JUMPDEST PUSH2 0x207 JUMP JUMPDEST STOP JUMPDEST CALLVALUE DUP1 ISZERO PUSH2 0xE6 JUMPI PUSH0 DUP1 REVERT JUMPDEST POP PUSH2 0xEF PUSH2 0x4CE JUMP JUMPDEST PUSH1 0x40 MLOAD PUSH2 0xFC SWAP2 SWAP1 PUSH2 0x107C JUMP JUMPDEST PUSH1 0x40 MLOAD DUP1 SWAP2 SUB SWAP1 RETURN JUMPDEST CALLVALUE DUP1 ISZERO PUSH2 0x110 JUMPI PUSH0 DUP1 REVERT JUMPDEST POP PUSH2 0x12B PUSH1 0x4 DUP1 CALLDATASIZE SUB DUP2 ADD SWAP1 PUSH2 0x126 SWAP2 SWAP1 PUSH2 0x1012 JUMP JUMPDEST PUSH2 0x4F1 JUMP JUMPDEST STOP JUMPDEST PUSH2 0x147 PUSH1 0x4 DUP1 CALLDATASIZE SUB DUP2 ADD SWAP1 PUSH2 0x142 SWAP2 SWAP1 PUSH2 0x1095 JUMP JUMPDEST PUSH2 0x87F JUMP JUMPDEST STOP JUMPDEST CALLVALUE DUP1 ISZERO PUSH2 0x154 JUMPI PUSH0 DUP1 REVERT JUMPDEST POP PUSH2 0x16F PUSH1 0x4 DUP1 CALLDATASIZE SUB DUP2 ADD SWAP1 PUSH2 0x16A SWAP2 SWAP1 PUSH2 0x10FD JUMP JUMPDEST PUSH2 0xBE7 JUMP JUMPDEST PUSH1 0x40 MLOAD PUSH2 0x17C SWAP2 SWAP1 PUSH2 0xFCB JUMP JUMPDEST PUSH1 0x40 MLOAD DUP1 SWAP2 SUB SWAP1 RETURN JUMPDEST CALLVALUE DUP1 ISZERO PUSH2 0x190 JUMPI PUSH0 DUP1 REVERT JUMPDEST POP PUSH2 0x1AB PUSH1 0x4 DUP1 CALLDATASIZE SUB DUP2 ADD SWAP1 PUSH2 0x1A6 SWAP2 SWAP1 PUSH2 0x1012 JUMP JUMPDEST PUSH2 0xBFC JUMP JUMPDEST STOP JUMPDEST CALLVALUE DUP1 ISZERO PUSH2 0x1B8 JUMPI PUSH0 DUP1 REVERT JUMPDEST POP PUSH2 0x1C1 PUSH2 0xEC3 JUMP JUMPDEST PUSH1 0x40 MLOAD PUSH2 0x1CE SWAP2 SWAP1 PUSH2 0x1144 JUMP JUMPDEST PUSH1 0x40 MLOAD DUP1 SWAP2 SUB SWAP1 RETURN JUMPDEST CALLVALUE DUP1 ISZERO PUSH2 0x1E2 JUMPI PUSH0 DUP1 REVERT JUMPDEST POP PUSH2 0x1EB PUSH2 0xED7 JUMP JUMPDEST PUSH1 0x40 MLOAD PUSH2 0x1F8 SWAP2 SWAP1 PUSH2 0x107C JUMP JUMPDEST PUSH1 0x40 MLOAD DUP1 SWAP2 SUB SWAP1 RETURN JUMPDEST PUSH1 0x2 SLOAD DUP2 JUMP JUMPDEST PUSH0 DUP2 GT PUSH2 0x249 JUMPI PUSH1 0x40 MLOAD PUSH32 0x8C379A000000000000000000000000000000000000000000000000000000000 DUP2 MSTORE PUSH1 0x4 ADD PUSH2 0x240 SWAP1 PUSH2 0x11B7 JUMP JUMPDEST PUSH1 0x40 MLOAD DUP1 SWAP2 SUB SWAP1 REVERT JUMPDEST PUSH0 DUP1 PUSH0 SWAP1 SLOAD SWAP1 PUSH2 0x100 EXP SWAP1 DIV PUSH20 0xFFFFFFFFFFFFFFFFFFFFFFFFFFFFFFFFFFFFFFFF AND PUSH20 0xFFFFFFFFFFFFFFFFFFFFFFFFFFFFFFFFFFFFFFFF AND PUSH4 0x70A08231 ADDRESS PUSH1 0x40 MLOAD DUP3 PUSH4 0xFFFFFFFF AND PUSH1 0xE0 SHL DUP2 MSTORE PUSH1 0x4 ADD PUSH2 0x2A3 SWAP2 SWAP1 PUSH2 0x107C JUMP JUMPDEST PUSH1 0x20 PUSH1 0x40 MLOAD DUP1 DUP4 SUB DUP2 DUP7 GAS STATICCALL ISZERO DUP1 ISZERO PUSH2 0x2BE JUMPI RETURNDATASIZE PUSH0 DUP1 RETURNDATACOPY RETURNDATASIZE PUSH0 REVERT JUMPDEST POP POP POP POP PUSH1 0x40 MLOAD RETURNDATASIZE PUSH1 0x1F NOT PUSH1 0x1F DUP3 ADD AND DUP3 ADD DUP1 PUSH1 0x40 MSTORE POP DUP2 ADD SWAP1 PUSH2 0x2E2 SWAP2 SWAP1 PUSH2 0x11E9 JUMP JUMPDEST SWAP1 POP PUSH0 PUSH1 0x1 PUSH0 SWAP1 SLOAD SWAP1 PUSH2 0x100 EXP SWAP1 DIV PUSH20 0xFFFFFFFFFFFFFFFFFFFFFFFFFFFFFFFFFFFFFFFF AND PUSH20 0xFFFFFFFFFFFFFFFFFFFFFFFFFFFFFFFFFFFFFFFF AND PUSH4 0x70A08231 ADDRESS PUSH1 0x40 MLOAD DUP3 PUSH4 0xFFFFFFFF AND PUSH1 0xE0 SHL DUP2 MSTORE PUSH1 0x4 ADD PUSH2 0x33F SWAP2 SWAP1 PUSH2 0x107C JUMP JUMPDEST PUSH1 0x20 PUSH1 0x40 MLOAD DUP1 DUP4 SUB DUP2 DUP7 GAS STATICCALL ISZERO DUP1 ISZERO PUSH2 0x35A JUMPI RETURNDATASIZE PUSH0 DUP1 RETURNDATACOPY RETURNDATASIZE PUSH0 REVERT JUMPDEST POP POP POP POP PUSH1 0x40 MLOAD RETURNDATASIZE PUSH1 0x1F NOT PUSH1 0x1F DUP3 ADD AND DUP3 ADD DUP1 PUSH1 0x40 MSTORE POP DUP2 ADD SWAP1 PUSH2 0x37E SWAP2 SWAP1 PUSH2 0x11E9 JUMP JUMPDEST SWAP1 POP PUSH0 PUSH2 0x38C DUP5 DUP5 DUP5 PUSH2 0xEFC JUMP JUMPDEST SWAP1 POP PUSH0 DUP1 SLOAD SWAP1 PUSH2 0x100 EXP SWAP1 DIV PUSH20 0xFFFFFFFFFFFFFFFFFFFFFFFFFFFFFFFFFFFFFFFF AND PUSH20 0xFFFFFFFFFFFFFFFFFFFFFFFFFFFFFFFFFFFFFFFF AND PUSH4 0x23B872DD CALLER ADDRESS DUP8 PUSH1 0x40 MLOAD DUP5 PUSH4 0xFFFFFFFF AND PUSH1 0xE0 SHL DUP2 MSTORE PUSH1 0x4 ADD PUSH2 0x3EA SWAP4 SWAP3 SWAP2 SWAP1 PUSH2 0x1214 JUMP JUMPDEST PUSH1 0x20 PUSH1 0x40 MLOAD DUP1 DUP4 SUB DUP2 PUSH0 DUP8 GAS CALL ISZERO DUP1 ISZERO PUSH2 0x406 JUMPI RETURNDATASIZE PUSH0 DUP1 RETURNDATACOPY RETURNDATASIZE PUSH0 REVERT JUMPDEST POP POP POP POP PUSH1 0x40 MLOAD RETURNDATASIZE PUSH1 0x1F NOT PUSH1 0x1F DUP3 ADD AND DUP3 ADD DUP1 PUSH1 0x40 MSTORE POP DUP2 ADD SWAP1 PUSH2 0x42A SWAP2 SWAP1 PUSH2 0x127E JUMP JUMPDEST POP PUSH1 0x1 PUSH0 SWAP1 SLOAD SWAP1 PUSH2 0x100 EXP SWAP1 DIV PUSH20 0xFFFFFFFFFFFFFFFFFFFFFFFFFFFFFFFFFFFFFFFF AND PUSH20 0xFFFFFFFFFFFFFFFFFFFFFFFFFFFFFFFFFFFFFFFF AND PUSH4 0xA9059CBB CALLER DUP4 PUSH1 0x40 MLOAD DUP4 PUSH4 0xFFFFFFFF AND PUSH1 0xE0 SHL DUP2 MSTORE PUSH1 0x4 ADD PUSH2 0x487 SWAP3 SWAP2 SWAP1 PUSH2 0x12A9 JUMP JUMPDEST PUSH1 0x20 PUSH1 0x40 MLOAD DUP1 DUP4 SUB DUP2 PUSH0 DUP8 GAS CALL ISZERO DUP1 ISZERO PUSH2 0x4A3 JUMPI RETURNDATASIZE PUSH0 DUP1 RETURNDATACOPY RETURNDATASIZE PUSH0 REVERT JUMPDEST POP POP POP POP PUSH1 0x40 MLOAD RETURNDATASIZE PUSH1 0x1F NOT PUSH1 0x1F DUP3 ADD AND DUP3 ADD DUP1 PUSH1 0x40 MSTORE POP DUP2 ADD SWAP1 PUSH2 0x4C7 SWAP2 SWAP1 PUSH2 0x127E JUMP JUMPDEST POP POP POP POP POP JUMP JUMPDEST PUSH0 DUP1 SLOAD SWAP1 PUSH2 0x100 EXP SWAP1 DIV PUSH20 0xFFFFFFFFFFFFFFFFFFFFFFFFFFFFFFFFFFFFFFFF AND DUP2 JUMP JUMPDEST DUP1 PUSH1 0x3 PUSH0 CALLER PUSH20 0xFFFFFFFFFFFFFFFFFFFFFFFFFFFFFFFFFFFFFFFF AND PUSH20 0xFFFFFFFFFFFFFFFFFFFFFFFFFFFFFFFFFFFFFFFF AND DUP2 MSTORE PUSH1 0x20 ADD SWAP1 DUP2 MSTORE PUSH1 0x20 ADD PUSH0 KECCAK256 SLOAD LT ISZERO PUSH2 0x571 JUMPI PUSH1 0x40 MLOAD PUSH32 0x8C379A000000000000000000000000000000000000000000000000000000000 DUP2 MSTORE PUSH1 0x4 ADD PUSH2 0x568 SWAP1 PUSH2 0x131A JUMP JUMPDEST PUSH1 0x40 MLOAD DUP1 SWAP2 SUB SWAP1 REVERT JUMPDEST PUSH0 PUSH1 0x2 SLOAD PUSH0 DUP1 SLOAD SWAP1 PUSH2 0x100 EXP SWAP1 DIV PUSH20 0xFFFFFFFFFFFFFFFFFFFFFFFFFFFFFFFFFFFFFFFF AND PUSH20 0xFFFFFFFFFFFFFFFFFFFFFFFFFFFFFFFFFFFFFFFF AND PUSH4 0x70A08231 ADDRESS PUSH1 0x40 MLOAD DUP3 PUSH4 0xFFFFFFFF AND PUSH1 0xE0 SHL DUP2 MSTORE PUSH1 0x4 ADD PUSH2 0x5CD SWAP2 SWAP1 PUSH2 0x107C JUMP JUMPDEST PUSH1 0x20 PUSH1 0x40 MLOAD DUP1 DUP4 SUB DUP2 DUP7 GAS STATICCALL ISZERO DUP1 ISZERO PUSH2 0x5E8 JUMPI RETURNDATASIZE PUSH0 DUP1 RETURNDATACOPY RETURNDATASIZE PUSH0 REVERT JUMPDEST POP POP POP POP PUSH1 0x40 MLOAD RETURNDATASIZE PUSH1 0x1F NOT PUSH1 0x1F DUP3 ADD AND DUP3 ADD DUP1 PUSH1 0x40 MSTORE POP DUP2 ADD SWAP1 PUSH2 0x60C SWAP2 SWAP1 PUSH2 0x11E9 JUMP JUMPDEST DUP4 PUSH2 0x617 SWAP2 SWAP1 PUSH2 0x1365 JUMP JUMPDEST PUSH2 0x621 SWAP2 SWAP1 PUSH2 0x13D3 JUMP JUMPDEST SWAP1 POP PUSH0 PUSH1 0x2 SLOAD PUSH1 0x1 PUSH0 SWAP1 SLOAD SWAP1 PUSH2 0x100 EXP SWAP1 DIV PUSH20 0xFFFFFFFFFFFFFFFFFFFFFFFFFFFFFFFFFFFFFFFF AND PUSH20 0xFFFFFFFFFFFFFFFFFFFFFFFFFFFFFFFFFFFFFFFF AND PUSH4 0x70A08231 ADDRESS PUSH1 0x40 MLOAD DUP3 PUSH4 0xFFFFFFFF AND PUSH1 0xE0 SHL DUP2 MSTORE PUSH1 0x4 ADD PUSH2 0x681 SWAP2 SWAP1 PUSH2 0x107C JUMP JUMPDEST PUSH1 0x20 PUSH1 0x40 MLOAD DUP1 DUP4 SUB DUP2 DUP7 GAS STATICCALL ISZERO DUP1 ISZERO PUSH2 0x69C JUMPI RETURNDATASIZE PUSH0 DUP1 RETURNDATACOPY RETURNDATASIZE PUSH0 REVERT JUMPDEST POP POP POP POP PUSH1 0x40 MLOAD RETURNDATASIZE PUSH1 0x1F NOT PUSH1 0x1F DUP3 ADD AND DUP3 ADD DUP1 PUSH1 0x40 MSTORE POP DUP2 ADD SWAP1 PUSH2 0x6C0 SWAP2 SWAP1 PUSH2 0x11E9 JUMP JUMPDEST DUP5 PUSH2 0x6CB SWAP2 SWAP1 PUSH2 0x1365 JUMP JUMPDEST PUSH2 0x6D5 SWAP2 SWAP1 PUSH2 0x13D3 JUMP JUMPDEST SWAP1 POP DUP3 PUSH1 0x3 PUSH0 CALLER PUSH20 0xFFFFFFFFFFFFFFFFFFFFFFFFFFFFFFFFFFFFFFFF AND PUSH20 0xFFFFFFFFFFFFFFFFFFFFFFFFFFFFFFFFFFFFFFFF AND DUP2 MSTORE PUSH1 0x20 ADD SWAP1 DUP2 MSTORE PUSH1 0x20 ADD PUSH0 KECCAK256 PUSH0 DUP3 DUP3 SLOAD PUSH2 0x723 SWAP2 SWAP1 PUSH2 0x1403 JUMP JUMPDEST SWAP3 POP POP DUP2 SWAP1 SSTORE POP DUP3 PUSH1 0x2 PUSH0 DUP3 DUP3 SLOAD PUSH2 0x73B SWAP2 SWAP1 PUSH2 0x1403 JUMP JUMPDEST SWAP3 POP POP DUP2 SWAP1 SSTORE POP PUSH0 DUP1 SLOAD SWAP1 PUSH2 0x100 EXP SWAP1 DIV PUSH20 0xFFFFFFFFFFFFFFFFFFFFFFFFFFFFFFFFFFFFFFFF AND PUSH20 0xFFFFFFFFFFFFFFFFFFFFFFFFFFFFFFFFFFFFFFFF AND PUSH4 0xA9059CBB CALLER DUP5 PUSH1 0x40 MLOAD DUP4 PUSH4 0xFFFFFFFF AND PUSH1 0xE0 SHL DUP2 MSTORE PUSH1 0x4 ADD PUSH2 0x79C SWAP3 SWAP2 SWAP1 PUSH2 0x12A9 JUMP JUMPDEST PUSH1 0x20 PUSH1 0x40 MLOAD DUP1 DUP4 SUB DUP2 PUSH0 DUP8 GAS CALL ISZERO DUP1 ISZERO PUSH2 0x7B8 JUMPI RETURNDATASIZE PUSH0 DUP1 RETURNDATACOPY RETURNDATASIZE PUSH0 REVERT JUMPDEST POP POP POP POP PUSH1 0x40 MLOAD RETURNDATASIZE PUSH1 0x1F NOT PUSH1 0x1F DUP3 ADD AND DUP3 ADD DUP1 PUSH1 0x40 MSTORE POP DUP2 ADD SWAP1 PUSH2 0x7DC SWAP2 SWAP1 PUSH2 0x127E JUMP JUMPDEST POP PUSH1 0x1 PUSH0 SWAP1 SLOAD SWAP1 PUSH2 0x100 EXP SWAP1 DIV PUSH20 0xFFFFFFFFFFFFFFFFFFFFFFFFFFFFFFFFFFFFFFFF AND PUSH20 0xFFFFFFFFFFFFFFFFFFFFFFFFFFFFFFFFFFFFFFFF AND PUSH4 0xA9059CBB CALLER DUP4 PUSH1 0x40 MLOAD DUP4 PUSH4 0xFFFFFFFF AND PUSH1 0xE0 SHL DUP2 MSTORE PUSH1 0x4 ADD PUSH2 0x839 SWAP3 SWAP2 SWAP1 PUSH2 0x12A9 JUMP JUMPDEST PUSH1 0x20 PUSH1 0x40 MLOAD DUP1 DUP4 SUB DUP2 PUSH0 DUP8 GAS CALL ISZERO DUP1 ISZERO PUSH2 0x855 JUMPI RETURNDATASIZE PUSH0 DUP1 RETURNDATACOPY RETURNDATASIZE PUSH0 REVERT JUMPDEST POP POP POP POP PUSH1 0x40 MLOAD RETURNDATASIZE PUSH1 0x1F NOT PUSH1 0x1F DUP3 ADD AND DUP3 ADD DUP1 PUSH1 0x40 MSTORE POP DUP2 ADD SWAP1 PUSH2 0x879 SWAP2 SWAP1 PUSH2 0x127E JUMP JUMPDEST POP POP POP POP JUMP JUMPDEST PUSH0 DUP1 PUSH0 SWAP1 SLOAD SWAP1 PUSH2 0x100 EXP SWAP1 DIV PUSH20 0xFFFFFFFFFFFFFFFFFFFFFFFFFFFFFFFFFFFFFFFF AND PUSH20 0xFFFFFFFFFFFFFFFFFFFFFFFFFFFFFFFFFFFFFFFF AND PUSH4 0x70A08231 ADDRESS PUSH1 0x40 MLOAD DUP3 PUSH4 0xFFFFFFFF AND PUSH1 0xE0 SHL DUP2 MSTORE PUSH1 0x4 ADD PUSH2 0x8D9 SWAP2 SWAP1 PUSH2 0x107C JUMP JUMPDEST PUSH1 0x20 PUSH1 0x40 MLOAD DUP1 DUP4 SUB DUP2 DUP7 GAS STATICCALL ISZERO DUP1 ISZERO PUSH2 0x8F4 JUMPI RETURNDATASIZE PUSH0 DUP1 RETURNDATACOPY RETURNDATASIZE PUSH0 REVERT JUMPDEST POP POP POP POP PUSH1 0x40 MLOAD RETURNDATASIZE PUSH1 0x1F NOT PUSH1 0x1F DUP3 ADD AND DUP3 ADD DUP1 PUSH1 0x40 MSTORE POP DUP2 ADD SWAP1 PUSH2 0x918 SWAP2 SWAP1 PUSH2 0x11E9 JUMP JUMPDEST SWAP1 POP PUSH0 PUSH1 0x1 PUSH0 SWAP1 SLOAD SWAP1 PUSH2 0x100 EXP SWAP1 DIV PUSH20 0xFFFFFFFFFFFFFFFFFFFFFFFFFFFFFFFFFFFFFFFF AND PUSH20 0xFFFFFFFFFFFFFFFFFFFFFFFFFFFFFFFFFFFFFFFF AND PUSH4 0x70A08231 ADDRESS PUSH1 0x40 MLOAD DUP3 PUSH4 0xFFFFFFFF AND PUSH1 0xE0 SHL DUP2 MSTORE PUSH1 0x4 ADD PUSH2 0x975 SWAP2 SWAP1 PUSH2 0x107C JUMP JUMPDEST PUSH1 0x20 PUSH1 0x40 MLOAD DUP1 DUP4 SUB DUP2 DUP7 GAS STATICCALL ISZERO DUP1 ISZERO PUSH2 0x990 JUMPI RETURNDATASIZE PUSH0 DUP1 RETURNDATACOPY RETURNDATASIZE PUSH0 REVERT JUMPDEST POP POP POP POP PUSH1 0x40 MLOAD RETURNDATASIZE PUSH1 0x1F NOT PUSH1 0x1F DUP3 ADD AND DUP3 ADD DUP1 PUSH1 0x40 MSTORE POP DUP2 ADD SWAP1 PUSH2 0x9B4 SWAP2 SWAP1 PUSH2 0x11E9 JUMP JUMPDEST SWAP1 POP PUSH0 DUP2 DUP4 DUP4 DUP6 DUP9 PUSH2 0x9C6 SWAP2 SWAP1 PUSH2 0x1436 JUMP JUMPDEST PUSH2 0x9D0 SWAP2 SWAP1 PUSH2 0x1365 JUMP JUMPDEST PUSH2 0x9DA SWAP2 SWAP1 PUSH2 0x13D3 JUMP JUMPDEST PUSH2 0x9E4 SWAP2 SWAP1 PUSH2 0x1403 JUMP JUMPDEST SWAP1 POP PUSH0 DUP6 GT DUP1 ISZERO PUSH2 0x9F5 JUMPI POP DUP1 DUP5 LT ISZERO JUMPDEST PUSH2 0xA34 JUMPI PUSH1 0x40 MLOAD PUSH32 0x8C379A000000000000000000000000000000000000000000000000000000000 DUP2 MSTORE PUSH1 0x4 ADD PUSH2 0xA2B SWAP1 PUSH2 0x11B7 JUMP JUMPDEST PUSH1 0x40 MLOAD DUP1 SWAP2 SUB SWAP1 REVERT JUMPDEST PUSH0 DUP1 SLOAD SWAP1 PUSH2 0x100 EXP SWAP1 DIV PUSH20 0xFFFFFFFFFFFFFFFFFFFFFFFFFFFFFFFFFFFFFFFF AND PUSH20 0xFFFFFFFFFFFFFFFFFFFFFFFFFFFFFFFFFFFFFFFF AND PUSH4 0x23B872DD CALLER ADDRESS DUP9 PUSH1 0x40 MLOAD DUP5 PUSH4 0xFFFFFFFF AND PUSH1 0xE0 SHL DUP2 MSTORE PUSH1 0x4 ADD PUSH2 0xA90 SWAP4 SWAP3 SWAP2 SWAP1 PUSH2 0x1214 JUMP JUMPDEST PUSH1 0x20 PUSH1 0x40 MLOAD DUP1 DUP4 SUB DUP2 PUSH0 DUP8 GAS CALL ISZERO DUP1 ISZERO PUSH2 0xAAC JUMPI RETURNDATASIZE PUSH0 DUP1 RETURNDATACOPY RETURNDATASIZE PUSH0 REVERT JUMPDEST POP POP POP POP PUSH1 0x40 MLOAD RETURNDATASIZE PUSH1 0x1F NOT PUSH1 0x1F DUP3 ADD AND DUP3 ADD DUP1 PUSH1 0x40 MSTORE POP DUP2 ADD SWAP1 PUSH2 0xAD0 SWAP2 SWAP1 PUSH2 0x127E JUMP JUMPDEST POP PUSH1 0x1 PUSH0 SWAP1 SLOAD SWAP1 PUSH2 0x100 EXP SWAP1 DIV PUSH20 0xFFFFFFFFFFFFFFFFFFFFFFFFFFFFFFFFFFFFFFFF AND PUSH20 0xFFFFFFFFFFFFFFFFFFFFFFFFFFFFFFFFFFFFFFFF AND PUSH4 0x23B872DD CALLER ADDRESS DUP8 PUSH1 0x40 MLOAD DUP5 PUSH4 0xFFFFFFFF AND PUSH1 0xE0 SHL DUP2 MSTORE PUSH1 0x4 ADD PUSH2 0xB2F SWAP4 SWAP3 SWAP2 SWAP1 PUSH2 0x1214 JUMP JUMPDEST PUSH1 0x20 PUSH1 0x40 MLOAD DUP1 DUP4 SUB DUP2 PUSH0 DUP8 GAS CALL ISZERO DUP1 ISZERO PUSH2 0xB4B JUMPI RETURNDATASIZE PUSH0 DUP1 RETURNDATACOPY RETURNDATASIZE PUSH0 REVERT JUMPDEST POP POP POP POP PUSH1 0x40 MLOAD RETURNDATASIZE PUSH1 0x1F NOT PUSH1 0x1F DUP3 ADD AND DUP3 ADD DUP1 PUSH1 0x40 MSTORE POP DUP2 ADD SWAP1 PUSH2 0xB6F SWAP2 SWAP1 PUSH2 0x127E JUMP JUMPDEST POP PUSH0 DUP6 SWAP1 POP DUP1 PUSH1 0x3 PUSH0 CALLER PUSH20 0xFFFFFFFFFFFFFFFFFFFFFFFFFFFFFFFFFFFFFFFF AND PUSH20 0xFFFFFFFFFFFFFFFFFFFFFFFFFFFFFFFFFFFFFFFF AND DUP2 MSTORE PUSH1 0x20 ADD SWAP1 DUP2 MSTORE PUSH1 0x20 ADD PUSH0 KECCAK256 PUSH0 DUP3 DUP3 SLOAD PUSH2 0xBC0 SWAP2 SWAP1 PUSH2 0x1436 JUMP JUMPDEST SWAP3 POP POP DUP2 SWAP1 SSTORE POP DUP1 PUSH1 0x2 PUSH0 DUP3 DUP3 SLOAD PUSH2 0xBD8 SWAP2 SWAP1 PUSH2 0x1436 JUMP JUMPDEST SWAP3 POP POP DUP2 SWAP1 SSTORE POP POP POP POP POP POP POP JUMP JUMPDEST PUSH1 0x3 PUSH1 0x20 MSTORE DUP1 PUSH0 MSTORE PUSH1 0x40 PUSH0 KECCAK256 PUSH0 SWAP2 POP SWAP1 POP SLOAD DUP2 JUMP JUMPDEST PUSH0 DUP2 GT PUSH2 0xC3E JUMPI PUSH1 0x40 MLOAD PUSH32 0x8C379A000000000000000000000000000000000000000000000000000000000 DUP2 MSTORE PUSH1 0x4 ADD PUSH2 0xC35 SWAP1 PUSH2 0x11B7 JUMP JUMPDEST PUSH1 0x40 MLOAD DUP1 SWAP2 SUB SWAP1 REVERT JUMPDEST PUSH0 DUP1 PUSH0 SWAP1 SLOAD SWAP1 PUSH2 0x100 EXP SWAP1 DIV PUSH20 0xFFFFFFFFFFFFFFFFFFFFFFFFFFFFFFFFFFFFFFFF AND PUSH20 0xFFFFFFFFFFFFFFFFFFFFFFFFFFFFFFFFFFFFFFFF AND PUSH4 0x70A08231 ADDRESS PUSH1 0x40 MLOAD DUP3 PUSH4 0xFFFFFFFF AND PUSH1 0xE0 SHL DUP2 MSTORE PUSH1 0x4 ADD PUSH2 0xC98 SWAP2 SWAP1 PUSH2 0x107C JUMP JUMPDEST PUSH1 0x20 PUSH1 0x40 MLOAD DUP1 DUP4 SUB DUP2 DUP7 GAS STATICCALL ISZERO DUP1 ISZERO PUSH2 0xCB3 JUMPI RETURNDATASIZE PUSH0 DUP1 RETURNDATACOPY RETURNDATASIZE PUSH0 REVERT JUMPDEST POP POP POP POP PUSH1 0x40 MLOAD RETURNDATASIZE PUSH1 0x1F NOT PUSH1 0x1F DUP3 ADD AND DUP3 ADD DUP1 PUSH1 0x40 MSTORE POP DUP2 ADD SWAP1 PUSH2 0xCD7 SWAP2 SWAP1 PUSH2 0x11E9 JUMP JUMPDEST SWAP1 POP PUSH0 PUSH1 0x1 PUSH0 SWAP1 SLOAD SWAP1 PUSH2 0x100 EXP SWAP1 DIV PUSH20 0xFFFFFFFFFFFFFFFFFFFFFFFFFFFFFFFFFFFFFFFF AND PUSH20 0xFFFFFFFFFFFFFFFFFFFFFFFFFFFFFFFFFFFFFFFF AND PUSH4 0x70A08231 ADDRESS PUSH1 0x40 MLOAD DUP3 PUSH4 0xFFFFFFFF AND PUSH1 0xE0 SHL DUP2 MSTORE PUSH1 0x4 ADD PUSH2 0xD34 SWAP2 SWAP1 PUSH2 0x107C JUMP JUMPDEST PUSH1 0x20 PUSH1 0x40 MLOAD DUP1 DUP4 SUB DUP2 DUP7 GAS STATICCALL ISZERO DUP1 ISZERO PUSH2 0xD4F JUMPI RETURNDATASIZE PUSH0 DUP1 RETURNDATACOPY RETURNDATASIZE PUSH0 REVERT JUMPDEST POP POP POP POP PUSH1 0x40 MLOAD RETURNDATASIZE PUSH1 0x1F NOT PUSH1 0x1F DUP3 ADD AND DUP3 ADD DUP1 PUSH1 0x40 MSTORE POP DUP2 ADD SWAP1 PUSH2 0xD73 SWAP2 SWAP1 PUSH2 0x11E9 JUMP JUMPDEST SWAP1 POP PUSH0 PUSH2 0xD81 DUP5 DUP4 DUP6 PUSH2 0xEFC JUMP JUMPDEST SWAP1 POP PUSH1 0x1 PUSH0 SWAP1 SLOAD SWAP1 PUSH2 0x100 EXP SWAP1 DIV PUSH20 0xFFFFFFFFFFFFFFFFFFFFFFFFFFFFFFFFFFFFFFFF AND PUSH20 0xFFFFFFFFFFFFFFFFFFFFFFFFFFFFFFFFFFFFFFFF AND PUSH4 0x23B872DD CALLER ADDRESS DUP8 PUSH1 0x40 MLOAD DUP5 PUSH4 0xFFFFFFFF AND PUSH1 0xE0 SHL DUP2 MSTORE PUSH1 0x4 ADD PUSH2 0xDE1 SWAP4 SWAP3 SWAP2 SWAP1 PUSH2 0x1214 JUMP JUMPDEST PUSH1 0x20 PUSH1 0x40 MLOAD DUP1 DUP4 SUB DUP2 PUSH0 DUP8 GAS CALL ISZERO DUP1 ISZERO PUSH2 0xDFD JUMPI RETURNDATASIZE PUSH0 DUP1 RETURNDATACOPY RETURNDATASIZE PUSH0 REVERT JUMPDEST POP POP POP POP PUSH1 0x40 MLOAD RETURNDATASIZE PUSH1 0x1F NOT PUSH1 0x1F DUP3 ADD AND DUP3 ADD DUP1 PUSH1 0x40 MSTORE POP DUP2 ADD SWAP1 PUSH2 0xE21 SWAP2 SWAP1 PUSH2 0x127E JUMP JUMPDEST POP PUSH0 DUP1 SLOAD SWAP1 PUSH2 0x100 EXP SWAP1 DIV PUSH20 0xFFFFFFFFFFFFFFFFFFFFFFFFFFFFFFFFFFFFFFFF AND PUSH20 0xFFFFFFFFFFFFFFFFFFFFFFFFFFFFFFFFFFFFFFFF AND PUSH4 0xA9059CBB CALLER DUP4 PUSH1 0x40 MLOAD DUP4 PUSH4 0xFFFFFFFF AND PUSH1 0xE0 SHL DUP2 MSTORE PUSH1 0x4 ADD PUSH2 0xE7C SWAP3 SWAP2 SWAP1 PUSH2 0x12A9 JUMP JUMPDEST PUSH1 0x20 PUSH1 0x40 MLOAD DUP1 DUP4 SUB DUP2 PUSH0 DUP8 GAS CALL ISZERO DUP1 ISZERO PUSH2 0xE98 JUMPI RETURNDATASIZE PUSH0 DUP1 RETURNDATACOPY RETURNDATASIZE PUSH0 REVERT JUMPDEST POP POP POP POP PUSH1 0x40 MLOAD RETURNDATASIZE PUSH1 0x1F NOT PUSH1 0x1F DUP3 ADD AND DUP3 ADD DUP1 PUSH1 0x40 MSTORE POP DUP2 ADD SWAP1 PUSH2 0xEBC SWAP2 SWAP1 PUSH2 0x127E JUMP JUMPDEST POP POP POP POP POP JUMP JUMPDEST PUSH1 0x1 PUSH1 0x14 SWAP1 SLOAD SWAP1 PUSH2 0x100 EXP SWAP1 DIV PUSH2 0xFFFF AND DUP2 JUMP JUMPDEST PUSH1 0x1 PUSH0 SWAP1 SLOAD SWAP1 PUSH2 0x100 EXP SWAP1 DIV PUSH20 0xFFFFFFFFFFFFFFFFFFFFFFFFFFFFFFFFFFFFFFFF AND DUP2 JUMP JUMPDEST PUSH0 DUP1 DUP4 GT DUP1 ISZERO PUSH2 0xF0B JUMPI POP PUSH0 DUP3 GT JUMPDEST PUSH2 0xF4A JUMPI PUSH1 0x40 MLOAD PUSH32 0x8C379A000000000000000000000000000000000000000000000000000000000 DUP2 MSTORE PUSH1 0x4 ADD PUSH2 0xF41 SWAP1 PUSH2 0x14B3 JUMP JUMPDEST PUSH1 0x40 MLOAD DUP1 SWAP2 SUB SWAP1 REVERT JUMPDEST PUSH0 PUSH1 0x1 PUSH1 0x14 SWAP1 SLOAD SWAP1 PUSH2 0x100 EXP SWAP1 DIV PUSH2 0xFFFF AND PUSH2 0x3E8 PUSH2 0xF69 SWAP2 SWAP1 PUSH2 0x14D1 JUMP JUMPDEST PUSH2 0xFFFF AND DUP6 PUSH2 0xF78 SWAP2 SWAP1 PUSH2 0x1365 JUMP JUMPDEST SWAP1 POP DUP1 PUSH2 0x3E8 DUP6 PUSH2 0xF89 SWAP2 SWAP1 PUSH2 0x1365 JUMP JUMPDEST PUSH2 0xF93 SWAP2 SWAP1 PUSH2 0x1436 JUMP JUMPDEST DUP4 DUP3 PUSH2 0xF9F SWAP2 SWAP1 PUSH2 0x1365 JUMP JUMPDEST PUSH2 0xFA9 SWAP2 SWAP1 PUSH2 0x13D3 JUMP JUMPDEST SWAP2 POP POP SWAP4 SWAP3 POP POP POP JUMP JUMPDEST PUSH0 DUP2 SWAP1 POP SWAP2 SWAP1 POP JUMP JUMPDEST PUSH2 0xFC5 DUP2 PUSH2 0xFB3 JUMP JUMPDEST DUP3 MSTORE POP POP JUMP JUMPDEST PUSH0 PUSH1 0x20 DUP3 ADD SWAP1 POP PUSH2 0xFDE PUSH0 DUP4 ADD DUP5 PUSH2 0xFBC JUMP JUMPDEST SWAP3 SWAP2 POP POP JUMP JUMPDEST PUSH0 DUP1 REVERT JUMPDEST PUSH2 0xFF1 DUP2 PUSH2 0xFB3 JUMP JUMPDEST DUP2 EQ PUSH2 0xFFB JUMPI PUSH0 DUP1 REVERT JUMPDEST POP JUMP JUMPDEST PUSH0 DUP2 CALLDATALOAD SWAP1 POP PUSH2 0x100C DUP2 PUSH2 0xFE8 JUMP JUMPDEST SWAP3 SWAP2 POP POP JUMP JUMPDEST PUSH0 PUSH1 0x20 DUP3 DUP5 SUB SLT ISZERO PUSH2 0x1027 JUMPI PUSH2 0x1026 PUSH2 0xFE4 JUMP JUMPDEST JUMPDEST PUSH0 PUSH2 0x1034 DUP5 DUP3 DUP6 ADD PUSH2 0xFFE JUMP JUMPDEST SWAP2 POP POP SWAP3 SWAP2 POP POP JUMP JUMPDEST PUSH0 PUSH20 0xFFFFFFFFFFFFFFFFFFFFFFFFFFFFFFFFFFFFFFFF DUP3 AND SWAP1 POP SWAP2 SWAP1 POP JUMP JUMPDEST PUSH0 PUSH2 0x1066 DUP3 PUSH2 0x103D JUMP JUMPDEST SWAP1 POP SWAP2 SWAP1 POP JUMP JUMPDEST PUSH2 0x1076 DUP2 PUSH2 0x105C JUMP JUMPDEST DUP3 MSTORE POP POP JUMP JUMPDEST PUSH0 PUSH1 0x20 DUP3 ADD SWAP1 POP PUSH2 0x108F PUSH0 DUP4 ADD DUP5 PUSH2 0x106D JUMP JUMPDEST SWAP3 SWAP2 POP POP JUMP JUMPDEST PUSH0 DUP1 PUSH1 0x40 DUP4 DUP6 SUB SLT ISZERO PUSH2 0x10AB JUMPI PUSH2 0x10AA PUSH2 0xFE4 JUMP JUMPDEST JUMPDEST PUSH0 PUSH2 0x10B8 DUP6 DUP3 DUP7 ADD PUSH2 0xFFE JUMP JUMPDEST SWAP3 POP POP PUSH1 0x20 PUSH2 0x10C9 DUP6 DUP3 DUP7 ADD PUSH2 0xFFE JUMP JUMPDEST SWAP2 POP POP SWAP3 POP SWAP3 SWAP1 POP JUMP JUMPDEST PUSH2 0x10DC DUP2 PUSH2 0x105C JUMP JUMPDEST DUP2 EQ PUSH2 0x10E6 JUMPI PUSH0 DUP1 REVERT JUMPDEST POP JUMP JUMPDEST PUSH0 DUP2 CALLDATALOAD SWAP1 POP PUSH2 0x10F7 DUP2 PUSH2 0x10D3 JUMP JUMPDEST SWAP3 SWAP2 POP POP JUMP JUMPDEST PUSH0 PUSH1 0x20 DUP3 DUP5 SUB SLT ISZERO PUSH2 0x1112 JUMPI PUSH2 0x1111 PUSH2 0xFE4 JUMP JUMPDEST JUMPDEST PUSH0 PUSH2 0x111F DUP5 DUP3 DUP6 ADD PUSH2 0x10E9 JUMP JUMPDEST SWAP2 POP POP SWAP3 SWAP2 POP POP JUMP JUMPDEST PUSH0 PUSH2 0xFFFF DUP3 AND SWAP1 POP SWAP2 SWAP1 POP JUMP JUMPDEST PUSH2 0x113E DUP2 PUSH2 0x1128 JUMP JUMPDEST DUP3 MSTORE POP POP JUMP JUMPDEST PUSH0 PUSH1 0x20 DUP3 ADD SWAP1 POP PUSH2 0x1157 PUSH0 DUP4 ADD DUP5 PUSH2 0x1135 JUMP JUMPDEST SWAP3 SWAP2 POP POP JUMP JUMPDEST PUSH0 DUP3 DUP3 MSTORE PUSH1 0x20 DUP3 ADD SWAP1 POP SWAP3 SWAP2 POP POP JUMP JUMPDEST PUSH32 0x496E76616C696420616D6F756E74730000000000000000000000000000000000 PUSH0 DUP3 ADD MSTORE POP JUMP JUMPDEST PUSH0 PUSH2 0x11A1 PUSH1 0xF DUP4 PUSH2 0x115D JUMP JUMPDEST SWAP2 POP PUSH2 0x11AC DUP3 PUSH2 0x116D JUMP JUMPDEST PUSH1 0x20 DUP3 ADD SWAP1 POP SWAP2 SWAP1 POP JUMP JUMPDEST PUSH0 PUSH1 0x20 DUP3 ADD SWAP1 POP DUP2 DUP2 SUB PUSH0 DUP4 ADD MSTORE PUSH2 0x11CE DUP2 PUSH2 0x1195 JUMP JUMPDEST SWAP1 POP SWAP2 SWAP1 POP JUMP JUMPDEST PUSH0 DUP2 MLOAD SWAP1 POP PUSH2 0x11E3 DUP2 PUSH2 0xFE8 JUMP JUMPDEST SWAP3 SWAP2 POP POP JUMP JUMPDEST PUSH0 PUSH1 0x20 DUP3 DUP5 SUB SLT ISZERO PUSH2 0x11FE JUMPI PUSH2 0x11FD PUSH2 0xFE4 JUMP JUMPDEST JUMPDEST PUSH0 PUSH2 0x120B DUP5 DUP3 DUP6 ADD PUSH2 0x11D5 JUMP JUMPDEST SWAP2 POP POP SWAP3 SWAP2 POP POP JUMP JUMPDEST PUSH0 PUSH1 0x60 DUP3 ADD SWAP1 POP PUSH2 0x1227 PUSH0 DUP4 ADD DUP7 PUSH2 0x106D JUMP JUMPDEST PUSH2 0x1234 PUSH1 0x20 DUP4 ADD DUP6 PUSH2 0x106D JUMP JUMPDEST PUSH2 0x1241 PUSH1 0x40 DUP4 ADD DUP5 PUSH2 0xFBC JUMP JUMPDEST SWAP5 SWAP4 POP POP POP POP JUMP JUMPDEST PUSH0 DUP2 ISZERO ISZERO SWAP1 POP SWAP2 SWAP1 POP JUMP JUMPDEST PUSH2 0x125D DUP2 PUSH2 0x1249 JUMP JUMPDEST DUP2 EQ PUSH2 0x1267 JUMPI PUSH0 DUP1 REVERT JUMPDEST POP JUMP JUMPDEST PUSH0 DUP2 MLOAD SWAP1 POP PUSH2 0x1278 DUP2 PUSH2 0x1254 JUMP JUMPDEST SWAP3 SWAP2 POP POP JUMP JUMPDEST PUSH0 PUSH1 0x20 DUP3 DUP5 SUB SLT ISZERO PUSH2 0x1293 JUMPI PUSH2 0x1292 PUSH2 0xFE4 JUMP JUMPDEST JUMPDEST PUSH0 PUSH2 0x12A0 DUP5 DUP3 DUP6 ADD PUSH2 0x126A JUMP JUMPDEST SWAP2 POP POP SWAP3 SWAP2 POP POP JUMP JUMPDEST PUSH0 PUSH1 0x40 DUP3 ADD SWAP1 POP PUSH2 0x12BC PUSH0 DUP4 ADD DUP6 PUSH2 0x106D JUMP JUMPDEST PUSH2 0x12C9 PUSH1 0x20 DUP4 ADD DUP5 PUSH2 0xFBC JUMP JUMPDEST SWAP4 SWAP3 POP POP POP JUMP JUMPDEST PUSH32 0x7573657220686173206E6F7420656E6F756768206C7000000000000000000000 PUSH0 DUP3 ADD MSTORE POP JUMP JUMPDEST PUSH0 PUSH2 0x1304 PUSH1 0x16 DUP4 PUSH2 0x115D JUMP JUMPDEST SWAP2 POP PUSH2 0x130F DUP3 PUSH2 0x12D0 JUMP JUMPDEST PUSH1 0x20 DUP3 ADD SWAP1 POP SWAP2 SWAP1 POP JUMP JUMPDEST PUSH0 PUSH1 0x20 DUP3 ADD SWAP1 POP DUP2 DUP2 SUB PUSH0 DUP4 ADD MSTORE PUSH2 0x1331 DUP2 PUSH2 0x12F8 JUMP JUMPDEST SWAP1 POP SWAP2 SWAP1 POP JUMP JUMPDEST PUSH32 0x4E487B7100000000000000000000000000000000000000000000000000000000 PUSH0 MSTORE PUSH1 0x11 PUSH1 0x4 MSTORE PUSH1 0x24 PUSH0 REVERT JUMPDEST PUSH0 PUSH2 0x136F DUP3 PUSH2 0xFB3 JUMP JUMPDEST SWAP2 POP PUSH2 0x137A DUP4 PUSH2 0xFB3 JUMP JUMPDEST SWAP3 POP DUP3 DUP3 MUL PUSH2 0x1388 DUP2 PUSH2 0xFB3 JUMP JUMPDEST SWAP2 POP DUP3 DUP3 DIV DUP5 EQ DUP4 ISZERO OR PUSH2 0x139F JUMPI PUSH2 0x139E PUSH2 0x1338 JUMP JUMPDEST JUMPDEST POP SWAP3 SWAP2 POP POP JUMP JUMPDEST PUSH32 0x4E487B7100000000000000000000000000000000000000000000000000000000 PUSH0 MSTORE PUSH1 0x12 PUSH1 0x4 MSTORE PUSH1 0x24 PUSH0 REVERT JUMPDEST PUSH0 PUSH2 0x13DD DUP3 PUSH2 0xFB3 JUMP JUMPDEST SWAP2 POP PUSH2 0x13E8 DUP4 PUSH2 0xFB3 JUMP JUMPDEST SWAP3 POP DUP3 PUSH2 0x13F8 JUMPI PUSH2 0x13F7 PUSH2 0x13A6 JUMP JUMPDEST JUMPDEST DUP3 DUP3 DIV SWAP1 POP SWAP3 SWAP2 POP POP JUMP JUMPDEST PUSH0 PUSH2 0x140D DUP3 PUSH2 0xFB3 JUMP JUMPDEST SWAP2 POP PUSH2 0x1418 DUP4 PUSH2 0xFB3 JUMP JUMPDEST SWAP3 POP DUP3 DUP3 SUB SWAP1 POP DUP2 DUP2 GT ISZERO PUSH2 0x1430 JUMPI PUSH2 0x142F PUSH2 0x1338 JUMP JUMPDEST JUMPDEST SWAP3 SWAP2 POP POP JUMP JUMPDEST PUSH0 PUSH2 0x1440 DUP3 PUSH2 0xFB3 JUMP JUMPDEST SWAP2 POP PUSH2 0x144B DUP4 PUSH2 0xFB3 JUMP JUMPDEST SWAP3 POP DUP3 DUP3 ADD SWAP1 POP DUP1 DUP3 GT ISZERO PUSH2 0x1463 JUMPI PUSH2 0x1462 PUSH2 0x1338 JUMP JUMPDEST JUMPDEST SWAP3 SWAP2 POP POP JUMP JUMPDEST PUSH32 0x496E76616C696420726573657276657300000000000000000000000000000000 PUSH0 DUP3 ADD MSTORE POP JUMP JUMPDEST PUSH0 PUSH2 0x149D PUSH1 0x10 DUP4 PUSH2 0x115D JUMP JUMPDEST SWAP2 POP PUSH2 0x14A8 DUP3 PUSH2 0x1469 JUMP JUMPDEST PUSH1 0x20 DUP3 ADD SWAP1 POP SWAP2 SWAP1 POP JUMP JUMPDEST PUSH0 PUSH1 0x20 DUP3 ADD SWAP1 POP DUP2 DUP2 SUB PUSH0 DUP4 ADD MSTORE PUSH2 0x14CA DUP2 PUSH2 0x1491 JUMP JUMPDEST SWAP1 POP SWAP2 SWAP1 POP JUMP JUMPDEST PUSH0 PUSH2 0x14DB DUP3 PUSH2 0x1128 JUMP JUMPDEST SWAP2 POP PUSH2 0x14E6 DUP4 PUSH2 0x1128 JUMP JUMPDEST SWAP3 POP DUP3 DUP3 SUB SWAP1 POP PUSH2 0xFFFF DUP2 GT ISZERO PUSH2 0x1500 JUMPI PUSH2 0x14FF PUSH2 0x1338 JUMP JUMPDEST JUMPDEST SWAP3 SWAP2 POP POP JUMP INVALID LOG2 PUSH5 0x6970667358 0x22 SLT KECCAK256 0xB9 SWAP13 EXP DIV ADD 0xD3 0xB6 DUP14 0xB5 PUSH13 0xB7169F7A754DCE5D4B0F2D2575 SMOD COINBASE PUSH27 0xF3F1A743EBD64736F6C634300081A003300000000000000000000 "
				},
				"gasEstimates": {
					"creation": {
						"codeDepositCost": "1087200",
						"executionCost": "infinite",
						"totalCost": "infinite"
					},
					"external": {
						"addLiquidity(uint256,uint256)": "infinite",
						"liquidity(address)": "2824",
						"removeLiquidity(uint256)": "infinite",
						"serviceChange()": "2583",
						"swapTokenForWETH(uint256)": "infinite",
						"swapWETHForToken(uint256)": "infinite",
						"token()": "2596",
						"totalLiquidity()": "2426",
						"weth()": "2550"
					},
					"internal": {
						"getAmountOut(uint256,uint256,uint256)": "infinite"
					}
				},
				"methodIdentifiers": {
					"addLiquidity(uint256,uint256)": "9cd441da",
					"liquidity(address)": "b8c876b1",
					"removeLiquidity(uint256)": "9c8f9f23",
					"serviceChange()": "fb840c82",
					"swapTokenForWETH(uint256)": "caffdf44",
					"swapWETHForToken(uint256)": "15d3eadd",
					"token()": "fc0c546a",
					"totalLiquidity()": "15770f92",
					"weth()": "3fc8cef3"
				}
			},
			"storageLayout": {
				"storage": [
					{
						"astId": 864,
						"contract": "contracts/test4/WETH_LP.sol:WETH_LP",
						"label": "weth",
						"offset": 0,
						"slot": "0",
						"type": "t_address"
					},
					{
						"astId": 866,
						"contract": "contracts/test4/WETH_LP.sol:WETH_LP",
						"label": "token",
						"offset": 0,
						"slot": "1",
						"type": "t_address"
					},
					{
						"astId": 868,
						"contract": "contracts/test4/WETH_LP.sol:WETH_LP",
						"label": "serviceChange",
						"offset": 20,
						"slot": "1",
						"type": "t_uint16"
					},
					{
						"astId": 870,
						"contract": "contracts/test4/WETH_LP.sol:WETH_LP",
						"label": "totalLiquidity",
						"offset": 0,
						"slot": "2",
						"type": "t_uint256"
					},
					{
						"astId": 874,
						"contract": "contracts/test4/WETH_LP.sol:WETH_LP",
						"label": "liquidity",
						"offset": 0,
						"slot": "3",
						"type": "t_mapping(t_address,t_uint256)"
					}
				],
				"types": {
					"t_address": {
						"encoding": "inplace",
						"label": "address",
						"numberOfBytes": "20"
					},
					"t_mapping(t_address,t_uint256)": {
						"encoding": "mapping",
						"key": "t_address",
						"label": "mapping(address => uint256)",
						"numberOfBytes": "32",
						"value": "t_uint256"
					},
					"t_uint16": {
						"encoding": "inplace",
						"label": "uint16",
						"numberOfBytes": "2"
					},
					"t_uint256": {
						"encoding": "inplace",
						"label": "uint256",
						"numberOfBytes": "32"
					}
				}
			},
			"userdoc": {
				"kind": "user",
				"methods": {},
				"version": 1
			}
		}
	}
}